:020000040800F2
:10000000000002204D100008A5100008A5100008EF
:10001000A5100008A5100008A510000800000000A9
:10002000000000000000000000000000A1280008FF
:10003000A510000800000000BD2900080D2A0008D6
:10004000A5100008A5100008A5100008A5100008BC
:10005000A5100008A5100008A5100008A5100008AC
:10006000A5100008A5100008A5100008A51000089C
:10007000A5100008A5100008A5100008A51000088C
:10008000A5100008A5100008A5100008A51000087C
:10009000A5100008A5100008A5100008A51000086C
:1000A000A5100008A5100008A5100008A51000085C
:1000B000A5100008A5100008A5100008A51000084C
:1000C000A5100008A5100008A5100008A51000083C
:1000D000A51000084D0400088D0B0008A5100008AD
:1000E000A5100008A5100008A5100008A51000081C
:1000F000A5100008A5100008A5100008A51000080C
:10010000A5100008A5100008A5100008A5100008FB
:10011000A5100008A5100008A5100008A5100008EB
:10012000A5100008A5100008A5100008A5100008DB
:10013000A5100008A5100008A5100008A5100008CB
:10014000A5100008A5100008A5100008A5100008BB
:10015000A5100008A5100008A5100008A5100008AB
:10016000A5100008A5100008A5100008A51000089B
:10017000A5100008A5100008A5100008A51000088B
:08018000A5100008A5100008FD
:1001880008B540F68400074BC2F200001B1A062B84
:1001980000D808BD40F20003C0F20003002BF8D0DD
:1001A8009847F6E78708002008B540F6840040F62F
:1001B8008403C2F20003C2F200001B1A9B1003EB77
:1001C800D373591000D108BD40F20002C0F20002FA
:1001D800002AF8D09047F6E710B540F68804C2F236
:1001E8000004237873B9FFF7CBFF40F20003C0F295
:1001F80000032BB144F24030C0F60000AFF300809A
:100208000123237010BD00BF08B540F20003C0F2FF
:1002180000034BB144F2403040F68C01C0F60000B8
:10022800C2F20001AFF3008040F68400C2F2000081
:1002380003682BB140F20003C0F2000303B19847F2
:10024800BDE80840B0E700BF844641EA000313F068
:1002580003036DD1403A41D351F8043B40F8043BC5
:1002680051F8043B40F8043B51F8043B40F8043B88
:1002780051F8043B40F8043B51F8043B40F8043B78
:1002880051F8043B40F8043B51F8043B40F8043B68
:1002980051F8043B40F8043B51F8043B40F8043B58
:1002A80051F8043B40F8043B51F8043B40F8043B48
:1002B80051F8043B40F8043B51F8043B40F8043B38
:1002C80051F8043B40F8043B51F8043B40F8043B28
:1002D80051F8043B40F8043B403ABDD2303211D3C8
:1002E80051F8043B40F8043B51F8043B40F8043B08
:1002F80051F8043B40F8043B51F8043B40F8043BF8
:10030800103AEDD20C3205D351F8043B40F8043BC7
:10031800043AF9D2043208D0D2071CBF11F8013BC5
:1003280000F8013B01D30B8803806046704700BF8B
:10033800082A13D38B078DD010F003038AD0C3F19A
:100348000403D21ADB071CBF11F8013B00F8013B7C
:1003580080D331F8023B20F8023B7BE7043AD9D33B
:10036800013A11F8013B00F8013BF9D20B78037010
:100378004B7843708B7883706046704780B582B045
:1003880000AF786039607B68DB68002B01D10023FF
:1003980021E002F0DDFA7B681A687B689B68581CCC
:1003A8007968886013441A783B681A707B689A6881
:1003B8007B685B689A4206DB7B689A687B685B6847
:1003C800D21A7B689A607B68DB685A1E7B68DA60A1
:1003D80002F0D4FA012318460837BD4680BD00BF95
:1003E80080B584B000AF78600B46FB707B68DA6834
:1003F8007B685B689A4201DB00231FE002F0A8FAE1
:100408007B689A687B68DB681344FB607B685A6882
:10041800FB689A4204DC7B685B68FA68D31AFB6065
:100428007B681A68FB681344FA781A707B68DB6883
:100438005A1C7B68DA6002F0A1FA012318461037CB
:10044800BD4680BD80B582B000AF4FF48053C4F282
:1004580001031B889BB203F02003002B27D04FF425
:100468008053C4F201039B889BB2DBB240F20000C8
:10047800C2F200001946FFF7B3FF0346002B0BD169
:1004880040F6A413C2F200031B685A1C40F6A413DA
:10049800C2F200031A600AE040F6A413C2F2000395
:1004A8005B685A1C40F6A413C2F200035A604FF46A
:1004B8008053C4F201031B889BB203F08003002B16
:1004C8002AD0FB1D40F21000C2F200001946FFF7C7
:1004D80055FF0346002B06D04FF48053C4F20103A6
:1004E800FA799A800DE04FF48053C4F201034FF477
:1004F8008052C4F20102928992B222F0800292B232
:100508009A8140F6A413C2F200039B685A1C40F675
:10051800A413C2F200039A600837BD4680BD00BF2D
:1005280080B582B000AF02F013FA4FF4A053C4F2C2
:1005380000035B6A7B6040F6B013C2F200031B88BD
:100548001A467B689A4203DD7B6803F580337B603B
:1005580040F6B013C2F200031B887A68D31A184613
:100568004FEAE07140F6B813C2F20003D3E9002362
:10057800801841EB030140F6B813C2F20003C3E947
:1005880000017B689AB240F6B013C2F200031A80E9
:1005980002F0F4F940F6B813C2F20003D3E90023DD
:1005A800104619460837BD4680BD00BF80B485B0E7
:1005B80000AF78604FF4A053C4F200035B6AFB817C
:1005C8004FF4A053C4F200035B6ABB60FA89BB68AE
:1005D8009A4203DDBB6803F58033BB60FB89BA68C8
:1005E800D31A1A467B689A4200D908E0FA89BB6890
:1005F800D31A7A6813447B60BB68FB81E0E7143741
:10060800BD465DF8047B704780B582B000AF786066
:100618007B684FF47A7202FB03F31846FFF7C6FFB4
:100628000837BD4680BD00BF80B584B000AF3B46EB
:10063800184602F07FFB2020012102F077FC4FF4DE
:100648006053C4F202034FF46052C4F20202126C07
:1006580042F020021A644FF4A053C4F20003F96870
:100668004DF68362C4F21B32A2FB0102920C92B2D5
:10067800013A92B21A854FF4A053C4F200034FF620
:10068800FF72DA624FF4A053C4F2000301221A8009
:100698004FF4A050C4F20000012102F005FD10370C
:1006A800BD4680BD80B54FF44064C4F202044FF4E7
:1006B80080594FF4FA754FF400584FF480474FF4BF
:1006C80000462046494602F0D3FA2846FFF79CFF29
:1006D8002046414602F0CCFA2846FFF795FF20460F
:1006E800394602F0C5FA2846FFF78EFF2046314604
:1006F80002F0BEFA2846FFF787FF20464FF4704104
:1007080002F0C4FA2846FFF77FFFDAE700B583B0A6
:100718008DF80710038803F040039BB2002BF9D033
:100728009DF8071002F000FF03B05DF804FB00BF5E
:1007380070B506460C4607E0254615F8011B3046FD
:10074800FFF7E4FF23782C46237813F0FF0FF3D14B
:1007580070BD00BF10B54FF48844C4F200042046B1
:1007680044F22811C0F60001FFF7E2FF204644F2E8
:10077800F011C0F60001FFF7DBFF002000F05CFF7E
:1007880010BD00BF10B50446002303724068194627
:10079800642201F0EBFD012818D14FF48840C4F21F
:1007A800000044F23411C0F60001FFF7C1FF40F227
:1007B8002003C2F200031B682360022323726068CF
:1007C80000210A460B4601F04BFD09E04FF4884032
:1007D800C4F2000044F24811C0F60001FFF7A8FF78
:1007E800002000F029FF10BD10B504460268002360
:1007F80082F82E3040F6C832C2F20002506819461C
:10080800642201F0B3FD012843D14FF48840C4F2BB
:10081800000044F26011C0F60001FFF789FF22686A
:1008280040F6D433C2F200039A4207D140F22003C3
:10083800C2F200031A6805321A600DE040F6A843B8
:10084800C2F200039A4201BF40F22003C2F2000341
:100858001A68053A08BF1A604FF47A7000F046FF2C
:100868004FF48840C4F2000044F27C11C0F6000145
:10087800FFF75EFF40F6C833C2F200035868002154
:100888000A460B4601F0ECFC2368022283F82E206E
:1008980009E04FF48840C4F2000044F29411C0F615
:1008A8000001FFF745FF002000F0C6FE10BD00BFA5
:1008B800F0B585B006460029BABF4942012700278E
:1008C800002246F26760C6F26660541C80FB013560
:1008D800CB17C3EBA5031D4603EB8303A1EB43032F
:1008E800DBB204A90A44303302F80C3C29462246FC
:1008F800002DEAD167B130462D21FFF707FF07E049
:10090800013C04AB2344304613F80C1CFFF7FEFEF1
:10091800002CF5D105B0F0BD2DE9F04F89B0814626
:100928004FF48844C4F20004204644F2B811C0F6DB
:100938000001FFF7FDFE2046D9F80410FFF7B8FFC5
:10094800204644F2F011C0F60001FFF7F1FE204600
:1009580044F2DC11C0F60001FFF7EAFE01F042FCA8
:1009680040F6C834C2F20004606000210A460B4613
:1009780001F076FC63684BB94FF48840C4F200007C
:1009880044F2F411C0F60001FFF7D2FE4FF4884498
:10099800C4F20004204644F21021C0F60001FFF71B
:1009A800C7FE2046D9F80410FFF782FF204644F21C
:1009B800F011C0F60001FFF7BBFE012540F28D776C
:1009C800C0F6000744F23026C0F6000640F6C834E8
:1009D800C2F2000444F2A42AC0F6000A44F2382BFA
:1009E800C0F6000B44F25823C0F600030593C2E09A
:1009F8000423009300250195029503953846314656
:100A08008022234600F04AFD4FF4FA7000F06EFE93
:100A1800237A022B40F0AF80606800210A220B463F
:100A280001F0A4FC012840F09D80D4F800804FF428
:100A38008845C4F2000528465946FFF779FE28463E
:100A48004146FFF735FF28460599FFF771FE28460E
:100A5800D9F80410FFF72CFF284644F2F011C0F62D
:100A68000001FFF765FE606800210A460B4601F0A9
:100A7800F7FBD9F80430434527DD4FF48840C4F22A
:100A8800000044F26421C0F60001FFF751FED9F8D6
:100A98000430C8EB0303079340F6D432C2F20002D5
:100AA80008AB43F8082D032200920022019202921B
:100AB800039240F2F170C0F6000044F27421C0F6CF
:100AC8000001802200F0EAFC45E0984527DD4FF45C
:100AD8008840C4F2000044F27821C0F60001FFF714
:100AE80027FED9F80430C3EB0803079340F6A84261
:100AF800C2F2000208AB43F8082D0322009200223C
:100B080001920292039240F2F170C0F6000044F2A2
:100B18007421C0F60001802200F0C0FC1BE04FF4F5
:100B28008844C4F20004204644F28C21C0F6000137
:100B3800FFF7FEFD20464146FFF7BAFE204644F285
:100B4800F011C0F60001FFF7F3FD002000F074FD7E
:100B580015E001F0EFFE069B93F82E30002BF8D03D
:100B6800012506E04FF48840C4F200005146FFF723
:100B7800DFFD01232372002D3FF446AF38E709B0AB
:100B8800BDE8F08F70B584B04FF48840C4F200001F
:100B980040F2255102F022FD002800F08F804FF42A
:100BA8008843C4F200039988C9B27F2918BF08296D
:100BB8001ED140F6C213C2F200031A78013AD2B22B
:100BC8001A7040F6E843C2F200030D2199544FF41D
:100BD8008844C4F2000420460821FFF797FD204608
:100BE8002021FFF793FD20460821FFF78FFD65E0E0
:100BF8000D2917D040F6C113C2F200031A7801324A
:100C08001A7040F6C213C2F200031A7840F6E8439D
:100C1800C2F2000399544FF48840C4F20000FFF771
:100C280075FD44E040F6C113C2F200031B78A3B37C
:100C380040F6C214C2F20004237840F6E846C2F235
:100C480000060D22F2544FF48840C4F2000044F22A
:100C5800F011C0F60001FFF76BFD227840F6C115D0
:100C6800C2F200052B78D31A0122009200240194C5
:100C78000294039440F25D70C0F6000044F2C8216B
:100C8800C0F600018022334400F008FC40F6C0138F
:100C9800C2F200031C702C7009E04FF48840C4F2C3
:100CA800000044F2F011C0F60001FFF741FD40F6E4
:100CB800C213C2F200031A7801321A7004B070BD70
:100CC800F0B589B00120014602F008F94FF4003070
:100CD800012102F02BF90C27069702268DF81C60DB
:100CE80000248DF81E408DF81F408DF81D602546A4
:100CF800C4F20205284606A901F02CFF2846314611
:100D0800072201F0D1FF28460321072201F0CCFF7A
:100D18000820012102F0E2F84FF470430693012500
:100D28008DF81C508DF81E4003238DF81D308DF86A
:100D38001F404FF44060C4F2020006A901F00AFF08
:100D48004FF416430293ADF80C40ADF80E40ADF8E1
:100D58001040ADF81440ADF812704FF48846C4F254
:100D68000006304602A902F0FBFA304640F225514F
:100D78002A4602F0EBFB26238DF804308DF8054057
:100D88008DF806408DF8075001A801F07DFE304629
:100D9800294602F0A9FB09B0F0BD00BF70B588B0C4
:100DA8000420012102F0C2F844F61F63069354237D
:100DB800ADF814300025ADF81C50ADF816504FF4BE
:100DC8000064C4F20004204605A902F0D7F86023A5
:100DD800ADF800300126ADF802600295ADF80C5070
:100DE8002046694602F080F92046082102F07EFA82
:100DF8002046694602F0F2F92046082102F092FAEC
:100E08002046314602F030F92046314602F04CF9CE
:100E180008B070BD034698B108220A66022081F81E
:100E28005C00596B92FBF1F2642101FB02F207EEC0
:100E3800102AF8EEC77AC3ED007A012283F82E2033
:100E4800704700BF2DE9F04792B0FFF739FFFFF771
:100E5800EBFB4FF48840C4F2000044F2F421C0F6E2
:100E68000001FFF765FC00254FF44064C4F202045A
:100E78004FF4805A4FF400594FF480484FF400471C
:100E88004FF4FA761BE02046514601F0F1FE204669
:100E9800494601F0EDFE2046414601F0E9FE2046B4
:100EA800394601F0E5FE3046FFF7AEFB20464FF429
:100EB800704101F0EBFE3046FFF7A6FB0135012D2E
:100EC800E1DD1020012102F009F801261096002426
:100ED8008DF846408DF8446002258DF845504FF452
:100EE8008057C4F20207384610A901F033FE109566
:100EF8008DF846408DF84440384610A901F02AFE86
:100F080000964FF4967301930CA839463A462B463F
:100F180000F054FAFFF742FF2846314601F0DEFFA1
:100F28004FF48067C4F20207384607212A4601F0C9
:100F3800BBFE384606212A4601F0B6FEC0230A93B6
:100F48008DF82E408DF82F608DF82C5003238DF8E6
:100F58002D3038460AA901F0FDFD07A840F63401F6
:100F6800C4F200014FF4FA7240F23A7300F042FA08
:100F780004A840F63801C4F200014FF4FA724FF4A5
:100F88007A7300F037FA07A85A2100F05DFA009446
:100F980001940294039440F2AD60C0F6000044F25C
:100FA8000431C0F600018022234600F077FA40F6AB
:100FB800D436C2F200060A22726340F6A843C2F28F
:100FC80000035A63304640F66431C2F20001FFF76D
:100FD80021FF304640F60031C2F20001FFF71AFF48
:100FE80040F6E046C2F200061423736000950194AF
:100FF8000294039440F62110C0F6000044F2103128
:10100800C0F600018022334600F048FA4FF48845C4
:10101800C4F20005284644F21431C0F60001FFF777
:1010280087FB28467168FFF743FC284644F2F01115
:10103800C0F60001FFF77CFB00F082FB204612B0EF
:10104800BDE8F087002103E00E4B5B5843500431A4
:101058000D480E4B42189A42F6D30D4A02E000237F
:1010680042F8043B0B4B9A42F9D30B48016841F410
:101078007001016000F014F802F028FBFFF7E2FEAF
:101088007047000064430008000000208408002026
:10109800880800201C0E002088ED00E0FEE7000014
:1010A80080B500AF4FF46053C4F202034FF46052AE
:1010B800C4F20202126842F001021A604FF460534F
:1010C800C4F2020300229A604FF46053C4F2020390
:1010D8004FF46052C4F20202126822F0847222F4C1
:1010E80080321A604FF46053C4F2020343F21002D4
:1010F800C2F200425A604FF46053C4F202034FF444
:101108006052C4F20202126822F480221A604FF47C
:101118006053C4F202030022DA6000F009F84FF4C9
:101128006D43CEF200034FF000629A6080BD00BFAD
:1011380080B483B000AF00237B6000233B604FF492
:101148006053C4F202034FF46052C4F20202126800
:1011580042F480321A604FF46053C4F202031B68F1
:1011680003F400333B607B6801337B603B68002BF2
:1011780003D17B68B3F5A06FEDD14FF46053C4F28F
:1011880002031B6803F40033002B02D001233B60E9
:1011980001E000233B603B68012B40F082804FF464
:1011A8006053C4F202034FF46052C4F20202126C9C
:1011B80042F080521A644FF4E043C4F200034FF443
:1011C800E042C4F20002126842F480421A604FF40E
:1011D8006053C4F202034FF46052C4F202029268F0
:1011E8009A604FF46053C4F202034FF46052C4F2A1
:1011F8000202926842F400429A604FF46053C4F2CB
:1012080002034FF46052C4F20202926842F4A05200
:101218009A604FF46053C4F2020345F20842C0F2E8
:1012280040725A604FF46053C4F202034FF46052A4
:10123800C4F20202126842F080721A6000BF4FF4D2
:101248006053C4F202031B6803F00073002BF6D04E
:101258004FF47053C4F2020340F205621A604FF46F
:101268006053C4F202034FF46052C4F2020292685F
:1012780022F003029A604FF46053C4F202034FF461
:101288006052C4F20202926842F002029A6000BF01
:101298004FF46053C4F202039B6803F00C03082B5D
:1012A800F6D14FF46053C4F202034FF46052C4F213
:1012B8000202926822F400029A604FF46053C4F26A
:1012C80002034FF44052C5F20002C3F884204FF4E1
:1012D8006053C4F202034FF46052C4F2020212686F
:1012E80042F080621A6000BF4FF46053C4F20203F8
:1012F8001B6803F00063002BF6D00C37BD465DF881
:10130800047B704790B484B000AF7860396040F6D1
:101318001863C2F200031B68002B08D140F618635B
:10132800C2F2000340F61C62C2F200021A6040F6E4
:101338001863C2F200031A683B681A44EFF3088383
:101348001C462346194640F22803C2F200031B68D4
:10135800CB1A9A4205D97B680C221A604FF0FF33EA
:1013680012E040F61863C2F200031B68FB6040F607
:101378001863C2F200031A683B681A4440F61863FF
:10138800C2F200031A60FB6818461037BD4690BCCD
:10139800704700BF80B582B000AF786001F0D8FA1E
:1013A8000837BD4680BD00BF80B582B000AF786009
:1013B80001F0E4FA0837BD4680BD00BF80B485B0AF
:1013C80000AFF860B9607A607B80FB68BA681A6021
:1013D800FB687A889A80FB687A689A60FB683A8B1F
:1013E8009A81FB68BA8BDA811437BD465DF8047BB5
:1013F800704700BF80B485B000AFF860B960FA806C
:10140800BB80FB68BA681A60FB68FA889A80BB8858
:101418009A0846F61743C1F2C163A3FB02139B085F
:101428009BB2DAB2FB689A71FB680022DA71FB683A
:1014380000221A72FB681B6800221A801437BD4606
:101448005DF8047B704700BF80B483B000AF78605C
:101458000B46FB707B681B687A689188FA7892B2B1
:101468007868807900FB02F292B20A4492B21A803C
:101478007B681A7A7B68DA717B68FA781A727B68FB
:101488009B881A46FB787968897901FB03F3134432
:1014980018460C37BD465DF8047B704780B58AB0A6
:1014A80002AFF860B9603B601346FB80FB881846C2
:1014B800396B00F09DFDB861BB69002B00F09E8080
:1014C800BB691A6BFB8803F18043013B9B00134403
:1014D8007B617B6923F007037B61FB880093B86914
:1014E800B968BA6A7B6B00F06FFC7869F9683A688A
:1014F80001F0A2F90246BB691A60FB6A002B02D010
:10150800FB6ABA691A6001F023FA40F6A023C2F216
:1015180000031B685A1C40F6A023C2F200031A609D
:1015280040F6C413C2F200031B68002B0FD140F62B
:10153800C413C2F20003BA691A6040F6A023C2F2CB
:1015480000031B68012B18D100F07AFC15E040F667
:10155800B023C2F200031B68002B0ED140F6C4135F
:10156800C2F200031B68DA6ABB6A9A4205D840F6E1
:10157800C413C2F20003BA691A60BB69DA6A40F69A
:10158800A823C2F200031B689A4206D9BB69DA6A2B
:1015980040F6A823C2F200031A6040F6C423C2F240
:1015A80000031B685A1C40F6C423C2F200031A60E9
:1015B800BB69DA6A40F6AC23C2F200031B689A42A0
:1015C80006D9BB69DA6A40F6AC23C2F200031A6096
:1015D800BB69DA6A13469B0013449B0040F6C812A5
:1015E800C2F200021A44BB6904331046194601F0DE
:1015F8009BF80123FB6101F0C1F902E04FF0FF33D2
:10160800FB61FB69012B11D140F6B023C2F2000344
:101618001B68002B0AD040F6C413C2F200031B68F3
:10162800DA6ABB6A9A4201D201F084F9FB6918466A
:101638002037BD4680BD00BF80B584B000AF78605C
:1016480001F086F940F6C413C2F200031B687A68F9
:101658009A4201D100237B607B68002B05D140F6BC
:10166800C413C2F200031B6800E07B68FB60FB68E0
:101678000433184601F0B8F8FB689B6A002B04D0C5
:10168800FB681833184601F0AFF8FB68043340F6DE
:101698007020C2F20000194601F046F840F6842393
:1016A800C2F200031B685A1C40F68423C2F20003EE
:1016B8001A6040F6C423C2F200031B685A1C40F6A5
:1016C800C423C2F200031A6001F058F940F6B023AF
:1016D800C2F200031B68002B04D07B68002B01D1E9
:1016E80001F028F91037BD4680BD00BF80B584B031
:1016F80000AF78600023FB607B68002B18D000F0F7
:1017080055F840F6A423C2F200031A687B68134414
:10171800BB6040F6C413C2F200031B6804331846CA
:1017280001F062F8B86800F01FFC00F051F8F860AA
:10173800FB68002B01D101F0FDF81037BD4680BDD4
:1017480080B586B004AF0023009340F69C23C2F214
:1017580000030193002302930023039341F6AD5045
:10176800C0F6000044F2B401C0F600014FF48072E4
:101778000023FFF793FE78607B68012B13D14FF0AD
:10178800BF0080F3118840F6B023C2F200030122A3
:101798001A6040F6A423C2F2000300221A60FEF782
:1017A80043FF01F091F80837BD4680BD80B400AF13
:1017B80040F6B423C2F200031B685A1C40F6B42357
:1017C800C2F200031A60BD465DF8047B704700BF93
:1017D80090B583B000AF00237B6001F0B9F840F604
:1017E800B423C2F200031B685A1E40F6B423C2F2A7
:1017F80000031A6040F6B423C2F200031B68002BF2
:1018080079D140F6A023C2F200031B68002B72D0E6
:1018180000233B6036E040F65C23C2F20003DB683D
:10182800DC6804F11803184600F0DEFF231D184693
:1018380000F0DAFFE26A40F6AC23C2F200031B684C
:101848009A4205D9E26A40F6AC23C2F200031A6054
:10185800E26A13469B0013449B0040F6C812C2F28A
:1018680000021A44231D1046194600F05DFFE26A83
:1018780040F6C413C2F200031B68DB6A9A4201D324
:1018880001233B6040F65C23C2F200031B68002B77
:10189800C1D140F6B823C2F200031B68002B16D052
:1018A8000CE000F02FF840F6B823C2F200031B68E2
:1018B8005A1E40F6B823C2F200031A6040F6B82355
:1018C800C2F200031B68002BEBD101233B603B688D
:1018D800012B06D040F6BC23C2F200031B68012B83
:1018E80009D101237B6040F6BC23C2F20003002229
:1018F8001A6001F01FF801F041F87B6818460C37B0
:10190800BD4690BD80B584B000AF40F6B423C2F2A6
:1019180000031B68002B40F0B98040F6A423C2F2F4
:1019280000031B685A1C40F6A423C2F200031A6085
:1019380040F6A423C2F200031B68002B3FD140F6F7
:101948005423C2F200031B68FB6040F65823C2F21E
:1019580000031A6840F65423C2F200031A6040F6E6
:101968005823C2F20003FA681A6040F6C023C2F294
:1019780000031B685A1C40F6C023C2F200031A6019
:1019880040F65423C2F200031B681B68002B07D1E2
:1019980040F22C03C2F200034FF0FF321A600EE04F
:1019A80040F65423C2F200031B68DB68DB68BB60A7
:1019B800BB685A6840F22C03C2F200031A6040F672
:1019C800A423C2F200031A6840F22C03C2F20003F7
:1019D8001B689A4259D340F65423C2F200031B688D
:1019E8001B68002B07D140F22C03C2F200034FF012
:1019F800FF321A6049E040F65423C2F200031B6824
:101A0800DB68DB68BB60BB685B687B6040F6A4236F
:101A1800C2F200031A687B689A4206D240F22C038D
:101A2800C2F200037A681A602FE0BB6804331846D4
:101A380000F0DAFEBB689B6A002B04D0BB68183341
:101A4800184600F0D1FEBB68DA6A40F6AC23C2F251
:101A580000031B689A4206D9BB68DA6A40F6AC23D1
:101A6800C2F200031A60BB68DA6A13469B0013448B
:101A78009B0040F6C812C2F200021A44BB68043345
:101A88001046194600F050FEA5E70AE040F6B823D4
:101A9800C2F200031B685A1C40F6B823C2F20003C6
:101AA8001A601037BD4680BD80B582B000AF40F6E1
:101AB800B423C2F200031B68002B06D040F6BC23F7
:101AC800C2F2000301221A6069E0FEF729FD02460E
:101AD8000B4613467B6040F6C413C2F200031A6833
:101AE800D16C40F6C823C2F200031B687868C31A99
:101AF8000B44D36440F6C823C2F200037A681A6024
:101B08000AE040F6AC23C2F200031B685A1E40F6F6
:101B1800AC23C2F200031A6040F6AC23C2F2000301
:101B2800196840F6C812C2F200020B469B000B442B
:101B38009B0013441B68002BE3D040F6AC23C2F291
:101B480000031A6813469B0013449B0040F6C81212
:101B5800C2F2000213443B603B685B685A683B680A
:101B68005A603B685A683B6808339A4204D13B681C
:101B78005B685A683B685A603B685B68DA6840F69D
:101B8800C413C2F200031A604FF4E843C4F200031E
:101B980040F6C412C2F200021268926CDA6008378A
:101BA800BD4680BD80B584B000AF7860396040F62E
:101BB800C413C2F200031B6818337868194600F092
:101BC800DBFD40F6C413C2F200031B680433184659
:101BD80000F00AFE3B68B3F1FF3F0DD140F6C41395
:101BE800C2F200031B68043340F68820C2F20000EA
:101BF800194600F099FD0AE040F6A423C2F200035A
:101C08001A683B681344FB60F86800F0ADF91037B8
:101C1800BD4680BD80B584B000AF78607B68DB6866
:101C2800DB68BB60BB681833184600F0DDFD40F682
:101C3800B423C2F200031B68002B26D1BB6804330F
:101C4800184600F0D1FDBB68DA6A40F6AC23C2F250
:101C580000031B689A4206D9BB68DA6A40F6AC23CF
:101C6800C2F200031A60BB68DA6A13469B00134489
:101C78009B0040F6C812C2F200021A44BB68043343
:101C88001046194600F050FD08E0BB68183340F6CE
:101C98005C20C2F20000194600F046FDBB68DA6A13
:101CA80040F6C413C2F200031B68DB6A9A4202D3EF
:101CB8000123FB6001E00023FB60FB681846103736
:101CC800BD4680BD80B483B000AF786040F6C023C5
:101CD800C2F200031A687B681A6040F6A423C2F2B5
:101CE80000031A687B685A600C37BD465DF8047BB0
:101CF800704700BF80B584B000AF7860396000F0ED
:101D080027FE3B681B68B3F1FF3F02D10023FB604D
:101D180035E07B681A6840F6C023C2F200031B68EE
:101D28009A420BD07B685A6840F6A423C2F200039B
:101D38001B689A4202D80123FB6020E040F6A423E6
:101D4800C2F200031A687B685B68D21A3B681B689A
:101D58009A4212D23B681A687B68596840F6A423F5
:101D6800C2F200031B68CB1A1A443B681A607868F1
:101D7800FFF7A8FF0023FB6001E00123FB6000F0F0
:101D8800FDFDFB6818461037BD4680BD80B400AF26
:101D980040F6BC23C2F2000301221A60BD465DF87A
:101DA800047B704780B582B000AF786000F094F88B
:101DB80040F6C813C2F200031B68012B02D900F0D9
:101DC800B9FDF3E7F2E700BF80B584B000AFF86073
:101DD800B9607A603B60FB6834331846B9681022F2
:101DE80001F0AEFFFB68002283F843207B68042BD8
:101DF80001D904237B60FB687A68DA62FB687A6839
:101E08005A64FB680433184600F082FCFB681833F8
:101E1800184600F07DFCFB68FA681A617B68C3F11C
:101E28000502FB689A61FB68FA685A62FB6800223F
:101E38009A64FB680022DA641037BD4680BD00BF93
:101E480080B582B000AF00237B600FE07A6813464C
:101E58009B0013449B0040F6C812C2F200021344D0
:101E6800184600F035FC7B6801337B607B68042BE7
:101E7800ECD940F62C20C2F2000000F029FC40F614
:101E88004020C2F2000000F023FC40F65C20C2F2C1
:101E9800000000F01DFC40F67020C2F2000000F0C7
:101EA80017FC40F68820C2F2000000F011FC40F652
:101EB8005423C2F2000340F62C22C2F200021A6038
:101EC80040F65823C2F2000340F64022C2F2000254
:101ED8001A600837BD4680BD80B582B000AF40F6B5
:101EE8008423C2F200031B68002B3AD0FFF75EFC84
:101EF80040F67023C2F200031B68002B14BF0023B6
:101F08000123DBB27B60FFF763FC7B68002B28D1E1
:101F180000F01EFD40F67023C2F20003DB68DB68A8
:101F28003B603B680433184600F05EFC40F6A02393
:101F3800C2F200031B685A1E40F6A023C2F2000337
:101F48001A6040F68423C2F200031B685A1E40F64A
:101F58008423C2F200031A6000F010FD386800F014
:101F68007BF80837BD4680BD80B582B000AF786089
:101F780040F6C413C2F200031B687A685A6040F640
:101F8800A423C2F200031B687A689A420FD240F673
:101F98005823C2F200031A6840F6C413C2F20003C1
:101FA8001B6804331046194600F0E6FB1CE040F6B7
:101FB8005423C2F200031A6840F6C413C2F20003A5
:101FC8001B6804331046194600F0D6FB40F22C0378
:101FD800C2F200031B687A689A4205D240F22C03C9
:101FE800C2F200037A681A600837BD4680BD00BF98
:101FF80080B584B000AF03463960FB80502001F003
:1020080093FB0346FB60FB68002B1FD03B68002B4B
:1020180006D1FB889B00184601F086FB034600E0CA
:102028003B68FA681363FB681B6B002B05D1F868E3
:1020380001F082FB0023FB6008E0FB681A6BFB8859
:102048009B001046A5211A4601F030FEFB68184691
:102058001037BD4680BD00BF80B582B000AF786044
:102068007B681B6B184601F067FB786801F064FB1E
:102078000837BD4680BD00BF80B483B000AF40F6CE
:10208800C413C2F200031B687B607B6818460C37D8
:10209800BD465DF8047B704780B584B000AF7860BA
:1020A8007B68FB60FB68DA6A40F6C413C2F200037F
:1020B8001B68DB6A9A424FD240F6C413C2F200038F
:1020C8001B68DB6AC3F10502FB689A61FB68596902
:1020D800FB68DA6A13469B0013449B0040F6C8125B
:1020E800C2F20002134499422ED1FB680433184609
:1020F80000F07AFB40F6C413C2F200031B68DA6AE8
:10210800FB68DA62FB68DA6A40F6AC23C2F20003C5
:102118001B689A4206D9FB68DA6A40F6AC23C2F219
:1021280000031A60FB68DA6A13469B0013449B009D
:1021380040F6C812C2F200021A44FB680433104683
:10214800194600F0F1FA07E040F6C413C2F20003A2
:102158001B68DA6AFB68DA621037BD4680BD00BFCB
:1021680080B584B000AF78607B68FB607B68002B2B
:1021780035D0FB68DA6AFB685B6C9A422FD0FB6843
:102188000433184600F030FBFB685A6CFB68DA62CF
:10219800FB68DB6AC3F10502FB689A61FB68DA6ACF
:1021A80040F6AC23C2F200031B689A4206D9FB68CA
:1021B800DA6A40F6AC23C2F200031A60FB68DA6AF6
:1021C80013469B0013449B0040F6C812C2F200025B
:1021D8001A44FB6804331046194600F0A5FA103774
:1021E800BD4680BD80B582B000AF4C2001F09CFA9E
:1021F80003467B607B68002B2CD07B6800225A60EA
:102208007B6800221A607B6800229A607B68002243
:10221800DA607B6800229A637B680122DA637B6854
:1022280000221A647B684FF0FF325A647B684FF0D3
:10223800FF329A647B681033184600F049FA7B68CD
:102248002433184600F044FA78680021002200235D
:1022580000F006F87B6818460837BD4680BD00BF09
:1022680080B588B000AFF860B9607A603B60002341
:10227800FB6100F06DFBFB689A6BFB68DB6B9A42B5
:1022880016D2F868B9683A6800F026F9FB685B6A04
:10229800002B09D0FB6824331846FFF7BBFC034624
:1022A800012B01D100F046FB00F068FB012359E047
:1022B8007B68002B03D100F061FB002352E0FB692F
:1022C800002B06D107F114031846FFF7FBFC012386
:1022D800FB6100F053FBFFF769FA00F039FBFB687C
:1022E8005B6CB3F1FF3F02D1FB6800225A64FB68C4
:1022F8009B6CB3F1FF3F02D1FB6800229A6400F0A7
:102308003DFB07F114023B1D10461946FFF7F2FC8E
:102318000346002B1ED1F86800F0C2F90346002BD3
:1023280012D0FB6803F110027B6810461946FFF7CC
:1023380039FCF86800F052F9FFF74AFA0346002B17
:102348000FD100F0F7FA0CE0F86800F047F9FFF752
:102358003FFA8EE7F86800F041F9FFF739FA0023F1
:1023680000E086E718462037BD4680BD80B588B0B6
:1023780000AFF860B9607A603B600023FB6100F051
:10238800E7FAFB689B6B002B3BD0FB68DB68BB6103
:10239800F868B96800F0FCF83B68002B1CD1FB68B2
:1023A8009B6B5A1EFB689A63FB681B68002B04D161
:1023B800FFF762FE0246FB685A60FB681B69002B48
:1023C8001BD0FB6810331846FFF724FC0346012B8B
:1023D80013D100F0AFFA10E0FB68BA69DA60FB6865
:1023E8005B6A002B09D0FB6824331846FFF712FC00
:1023F8000346002B01D000F09DFA00F0BFFA01233C
:1024080066E07B68002B03D100F0B8FA00235FE098
:10241800FB69002B06D107F110031846FFF752FCA1
:102428000123FB6100F0AAFAFFF7C0F900F090FA67
:10243800FB685B6CB3F1FF3F02D1FB6800225A6472
:10244800FB689B6CB3F1FF3F02D1FB6800229A64E2
:1024580000F094FA07F110023B1D10461946FFF7E9
:1024680049FC0346002B2BD1F86800F003F903461A
:10247800002B1FD0FB681B68002B08D100F068FAFE
:10248800FB685B681846FFF707FE00F077FAFB6801
:1024980003F124027B6810461946FFF783FBF868AE
:1024A80000F09CF8FFF794F90346002B0FD100F0D9
:1024B80041FA0CE0F86800F091F8FFF789F95EE757
:1024C800F86800F08BF8FFF783F9002300E056E77F
:1024D80018462037BD4680BD80B584B000AFF8608F
:1024E800B9607A60FB681B6C002B0CD1FB681B6819
:1024F800002B45D1FB685B681846FFF731FEFB6887
:1025080000225A603CE07B68002B1AD1FB689A686D
:10251800FB681B6C1046B9681A46FDF795FEFB6808
:102528009A68FB681B6C1A44FB689A60FB689A6897
:10253800FB685B689A4223D3FB681A68FB689A6059
:102548001EE0FB68DA68FB681B6C1046B9681A461F
:10255800FDF77AFEFB68DA68FB681B6C5B421A447D
:10256800FB68DA60FB68DA68FB681B689A4207D286
:10257800FB685A68FB681B6C5B421A44FB68DA60AC
:10258800FB689B6B5A1CFB689A631037BD4680BD7D
:1025980080B582B000AF786039607B681B68002B1B
:1025A80019D07B68DA687B681B6C1A447B68DA6030
:1025B8007B68DA687B685B689A4203D37B681A6831
:1025C8007B68DA607B68DA687B681B6C3868114660
:1025D8001A46FDF739FE0837BD4680BD80B582B082
:1025E80000AF786000F0B4F914E07B685B6A002BF8
:1025F8000FD07B6824331846FFF70CFB0346002BEB
:1026080001D0FFF7C3FB7B689B6C5A1E7B689A64FA
:1026180000E003E07B689B6C002BE6DC7B684FF0F6
:10262800FF329A6400F0AAF900F092F914E07B688E
:102638001B69002B0FD07B6810331846FFF7EAFAA6
:102648000346002B01D0FFF7A1FB7B685B6C5A1E89
:102658007B685A6400E003E07B685B6C002BE6DC77
:102668007B684FF0FF325A6400F088F90837BD469E
:1026780080BD00BF80B584B000AF786000F068F915
:102688007B689B6B002B14BF00230123DBB2FB602C
:1026980000F074F9FB6818461037BD4680BD00BFCE
:1026A80080B584B000AF786000F052F97B689A6B0F
:1026B8007B68DB6B9A4214BF00230123DBB2FB600B
:1026C80000F05CF9FB6818461037BD4680BD00BFB6
:1026D80080B483B000AF78607B6803F108027B6840
:1026E8005A607B684FF0FF329A607B6803F10802FA
:1026F8007B68DA607B6803F108027B681A617B6893
:1027080000221A600C37BD465DF8047B704700BF95
:1027180080B483B000AF78607B6800221A610C3700
:10272800BD465DF8047B704780B485B000AF786023
:1027380039607B685B68FB60FB685A683B685A6075
:102748007B685A683B689A60FB685B683A689A607D
:10275800FB683A685A607B683A685A603B687A68EE
:102768001A617B681B685A1C7B681A601437BD465F
:102778005DF8047B704700BF80B485B000AF786017
:1027880039603B681B68BB60BB68B3F1FF3F03D18E
:102798007B681B69FB600CE07B680833FB6002E028
:1027A800FB685B68FB60FB685B681A68BB689A42F9
:1027B800F6D9FB685A683B685A603B685B683A68B8
:1027C8009A603B68FA689A60FB683A685A603B68A6
:1027D8007A681A617B681B685A1C7B681A60143710
:1027E800BD465DF8047B704780B485B000AF786063
:1027F8007B685B687A6892689A607B689B687A688D
:1028080052685A607B681B69FB60FB685A687B6882
:102818009A4203D17B689A68FB685A607B680022F9
:102828001A61FB681B685A1EFB681A601437BD469C
:102838005DF8047B704700BF80B485B000AFF860D6
:10284800B9607A60FB68043BFB60FB684FF08072FC
:102858001A60FB68043BFB60BA68FB681A60FB6897
:10286800043BFB60FB6800221A60FB68143BFB60BA
:102878007A68FB681A60FB68043BFB60FB686FF0D2
:1028880002021A60FB68203BFB60FB68184614379D
:10289800BD465DF8047B7047054B19680868B0E8C9
:1028A800F04F80F309884FF0000080F311887047DB
:1028B800C409002003480068006880F3088862B6ED
:1028C80000DF00BF08ED00E080B500AF4EF62053F2
:1028D800CEF200034EF62052CEF20002126842F405
:1028E8007F021A604EF62053CEF200034EF62052B5
:1028F800CEF20002126842F07F421A6000F09CF8A3
:1029080040F23003C2F2000300221A6000F0B2F86D
:102918004EF63473CEF200034EF63472CEF2000255
:10292800126842F040421A60FFF7C4FF00231846BD
:1029380080BD00BF80B400AF4EF60453CEF2000352
:102948004FF080521A60BD465DF8047B704700BFA7
:1029580080B400AF4FF0BF0080F3118840F230031D
:10296800C2F200031B685A1C40F23003C2F2000393
:102978001A60BD465DF8047B704700BF80B400AFA5
:1029880040F23003C2F200031B685A1E40F23003C3
:10299800C2F200031A6040F23003C2F200031B685F
:1029A800002B03D14FF0000080F31188BD465DF87D
:1029B800047B7047EFF30980114B1A681EF0100F63
:1029C80008BF20ED108A20E9F04F10602DE908407B
:1029D8004FF0BF0080F31188FFF766F84FF0000052
:1029E80080F31188BDE8084019680868B0E8F04F1E
:1029F8001EF0100F08BFB0EC108A80F309887047EA
:102A0800C409002080B582B000AF4EF60453CEF260
:102A180000034FF080521A6000237B604FF0BF0024
:102A280080F31188FEF76EFF4FF0000080F31188E5
:102A38000837BD4680BD00BF80B400AF4EF2140316
:102A4800CEF2000340F22402C2F20002116844F6FA
:102A5800D352C1F26202A2FB01029209013A1A6042
:102A68004EF21003CEF2000307221A60BD465DF84D
:102A7800047B7047DFF80C00016841F470010160C5
:102A88007047000088ED00E080B485B000AF786042
:102A98000023FB730023BB730F237B737B68DB78F6
:102AA800002B40D04FF46D43CEF20003DB68DB43CC
:102AB80003F4E0631B0AFB73FB7BC3F10403BB73E2
:102AC8007A7BFB7B42FA03F37B737B685B781A465D
:102AD800BB7B02FA03F3FB737B689A787B7B13401A
:102AE800DAB2FB7B1343FB73FB7B1B01FB734FF4D5
:102AF8006143CEF200037A6812781344FA7B83F8B4
:102B080000234FF46143CEF200037A681278520929
:102B1800D2B27968097801F01F01012000FA01F1A9
:102B280043F8221011E04FF46143CEF200037A68B3
:102B380012785209D2B27968097801F01F01012090
:102B480000FA01F1203243F822101437BD465DF82F
:102B5800047B704780B487B000AF78603960002389
:102B68007B6100233B610023FB6000237B6176E0EF
:102B78007B69012202FA03F33B613B681A683B69EF
:102B88001340FB60FA683B699A4265D17B681A6812
:102B98007B695B00032101FA03F3DB431A407B687E
:102BA8001A607B681A683B681B7919467B695B0069
:102BB80001FA03F31A437B681A603B681B79012BFF
:102BC80003D03B681B79022B2ED17B689A687B69FE
:102BD8005B00032101FA03F3DB431A407B689A6028
:102BE8007B689A683B685B7919467B695B0001FAE8
:102BF80003F31A437B689A607B685A687B699BB2C7
:102C0800012101FA03F3DB431A407B685A607B68B1
:102C18005A683B689B7919467B699BB201FA03F3B2
:102C28009BB21A437B685A607B68DA687B699BB2FF
:102C38005B00032101FA03F3DB431A407B68DA6087
:102C48007B68DA683B68DB7919467B695B0001FAC7
:102C580003F31A437B68DA607B6901337B617B6924
:102C68000F2B85D91C37BD465DF8047B704700BF24
:102C780080B483B000AF78600B467B807B687A882D
:102C88001A830C37BD465DF8047B704780B483B067
:102C980000AF78600B467B807B687A885A830C3754
:102CA800BD465DF8047B704780B485B000AF78609E
:102CB80013460A467A807B700023FB600023BB60C2
:102CC8007A787B8803F007039B0002FA03F3FB6022
:102CD8007B88DB089BB21A467B88DB089BB21946C7
:102CE8007B68083153F821107B8803F007039B00A9
:102CF8000F2000FA03F3DB4319407B68083243F8DE
:102D080022107B88DB089BB21A467B68083253F88E
:102D18002220FB681343BB607B88DB089BB21A4602
:102D28007B680832B96843F822101437BD465DF84D
:102D3800047B704780B489B000AF78600023BB6122
:102D480000237B610023FB6102233B610023FB60BE
:102D58000223BB604FF46053C4F202039B6803F084
:102D68000C03BB61BB69042B0AD0082B0FD0002BC6
:102D78005AD17A684FF41053C0F2F40313605AE042
:102D88007A684FF49053C0F27A03136053E04FF41B
:102D98006053C4F202035B6803F480039B0DFB607D
:102DA8004FF46053C4F202035B6803F03F03BB6057
:102DB800FB68002B13D04FF49053C0F27A03BA6823
:102DC800B3FBF2F24FF46053C4F20203596847F6BA
:102DD800C0730B409B0903FB02F3FB6112E04FF445
:102DE8001053C0F2F403BA68B3FBF2F24FF4605325
:102DF800C4F20203596847F6C0730B409B0903FBF2
:102E080002F3FB614FF46053C4F202035B6803F4FE
:102E180040331B0C01335B003B61FA693B69B2FB31
:102E2800F3F27B681A6006E07A684FF41053C0F238
:102E3800F403136000BF4FF46053C4F202039B68AD
:102E480003F0F003BB61BB691B09BB6140F23403AB
:102E5800C2F20003BA6913441B78DBB27B617B685A
:102E68001A687B69DA407B685A604FF46053C4F291
:102E780002039B6803F4E053BB61BB699B0ABB6117
:102E880040F23403C2F20003BA6913441B78DBB280
:102E98007B617B685A687B69DA407B689A604FF48B
:102EA8006053C4F202039B6803F46043BB61BB69CF
:102EB8005B0BBB6140F23403C2F20003BA691344EE
:102EC8001B78DBB27B617B685A687B69DA407B6878
:102ED800DA602437BD465DF8047B704780B483B060
:102EE80000AF78600B46FB70FB78002B0CD04FF4DA
:102EF8006053C4F202034FF46052C4F20202116B31
:102F08007A680A431A630CE04FF46053C4F2020370
:102F18004FF46052C4F20202116B7A68D2430A403D
:102F28001A630C37BD465DF8047B704780B483B0E4
:102F380000AF78600B46FB70FB78002B0CD04FF489
:102F48006053C4F202034FF46052C4F20202116CDF
:102F58007A680A431A640CE04FF46053C4F202031F
:102F68004FF46052C4F20202116C7A68D2430A40EC
:102F78001A640C37BD465DF8047B704780B485B091
:102F880000AF786039600023FB817B681B88FB8178
:102F98007A680023C4F201039A421FD07A684FF47A
:102FA8008063C4F201039A4218D07B68B3F1804F62
:102FB80014D07A684FF48063C4F200039A420DD0AB
:102FC8007A684FF40063C4F200039A4206D07A6824
:102FD8004FF44063C4F200039A4208D1FB8923F0FE
:102FE8007003FB813B685A88FB891343FB817A682D
:102FF8004FF48053C4F200039A420FD07A684FF41A
:10300800A053C4F200039A4208D0FB8923F440730A
:10301800FB813B681A89FB891343FB817B68FA892A
:103028001A803B685A687B68DA623B681A887B6852
:103038001A857A680023C4F201039A4206D07A6896
:103048004FF48063C4F201039A4204D13B689B7A2F
:103058001A467B681A867B6801229A821437BD4615
:103068005DF8047B704700BF80B483B000AF786020
:103078000B46FB70FB78002B08D07B681B889BB243
:1030880043F080039AB27B681A8007E07B681B884C
:103098009BB223F080039AB27B681A800C37BD4636
:1030A8005DF8047B704700BF80B483B000AF7860E0
:1030B8000B46FB70FB78002B08D07B681B889BB203
:1030C80043F001039AB27B681A8007E07B681B888B
:1030D8009BB223F001039AB27B681A800C37BD4675
:1030E8005DF8047B704700BF80B485B000AF78609E
:1030F800396000237B810023FB810023BB817B682F
:103108001B8C9BB223F001039AB27B681A847B68FC
:103118001B8CFB817B689B88BB817B681B8B7B81BD
:103128007B8923F070037B817B8923F003037B81F8
:103138003B681A887B8913437B81FB8923F0020350
:10314800FB813B689A89FB891343FB813B685A885A
:10315800FB891343FB817A680023C4F201039A4276
:1031680006D07A684FF48063C4F201039A4223D1EF
:10317800FB8923F00803FB813B68DA89FB89134349
:10318800FB81FB8923F00403FB813B689A88FB8958
:103198001343FB81BB8923F48073BB81BB8923F470
:1031A8000073BB813B681A8ABB891343BB813B68A8
:1031B8005A8ABB891343BB817B68BA899A807B682A
:1031C8007A891A833B689A687B685A637B68FA89AC
:1031D8001A841437BD465DF8047B704780B485B007
:1031E80000AF7860396000237B810023FB810023D6
:1031F800BB817B681B8C9BB223F010039AB27B685F
:103208001A847B681B8CFB817B689B88BB817B68ED
:103218001B8B7B817B8923F4E0437B817B8923F4AF
:1032280040737B813B681B881B029AB27B891343DE
:103238007B81FB8923F02003FB813B689B891B0171
:103248009AB2FB891343FB813B685B881B019AB2E6
:10325800FB891343FB817A680023C4F201039A4275
:1032680006D07A684FF48063C4F201039A422BD1E6
:10327800FB8923F08003FB813B68DB891B019AB241
:10328800FB891343FB81FB8923F04003FB813B68E7
:103298009B881B019AB2FB891343FB81BB8923F4EA
:1032A8008063BB81BB8923F40063BB813B681B8AB5
:1032B8009B009AB2BB891343BB813B685B8A9B0026
:1032C8009AB2BB891343BB817B68BA899A807B68B1
:1032D8007A891A833B689A687B689A637B68FA895B
:1032E8001A841437BD465DF8047B704780B485B0F6
:1032F80000AF78600B467B800023FB817B681B8BCB
:10330800FB81FB8923F00803FB81FA897B8813433F
:10331800FB817B68FA891A831437BD465DF8047B04
:10332800704700BF80B485B000AF78600B467B80E3
:103338000023FB817B681B8BFB81FB8923F40063E3
:10334800FB817B881B029AB2FB891343FB817B6854
:10335800FA891A831437BD465DF8047B704700BFAD
:1033680080B58AB000AF7860396000237B620023A3
:103378003B620023FB610023BB617B681B8A9BB215
:103388007B627B6A23F440537B623B68DB887A6A02
:1033980013437B627B6A9AB27B681A827B689B893B
:1033A8009BB27B627B6A23F4B05323F00C037B62ED
:1033B8003B689A883B681B8913439AB23B685B89D0
:1033C80013439BB27A6A13437B627B6A9AB27B6827
:1033D8009A817B689B8A9BB27B627B6A23F44073E9
:1033E8007B623B689B897A6A13437B627B6A9AB2E9
:1033F8007B689A8207F108031846FFF79BFC7A68F6
:103408004FF48053C4F201039A4206D07A684FF40D
:10341800A053C4F201039A4202D17B693B6201E0E6
:103428003B693B627B689B899BB29BB21BB2002BBA
:103438000CDA3A6A13469B0013449A001A443B6814
:103448001B685B00B2FBF3F3FB610BE03A6A1346BF
:103458009B0013449A001A443B681B689B00B2FB0C
:10346800F3F3FB61FA6948F21F53C5F2EB13A3FBB0
:1034780002135B091B017B627B6A1B09642202FB46
:1034880003F3FA69D31ABB617B689B899BB29BB231
:103498001BB2002B10DABB69DB0003F1320248F2E1
:1034A8001F53C5F2EB13A3FB02135B0903F00703D9
:1034B8007A6A13437B620FE0BB691B0103F1320296
:1034C80048F21F53C5F2EB13A3FB02135B0903F089
:1034D8000F037A6A13437B627B6A9AB27B681A810C
:1034E8002837BD4680BD00BF80B483B000AF786088
:1034F8000B46FB70FB78002B08D07B689B899BB23E
:1035080043F400539AB27B689A8107E07B689B89F1
:103518009BB223F400539AB27B689A810C37BD465C
:103528005DF8047B704700BF80B483B000AF78605B
:103538000B467B807B88C3F308039AB27B689A802A
:103548000C37BD465DF8047B704700BF80B487B078
:1035580000AF786013460A467A807B7000233B618F
:103568000023FB600023BB6000237B617B687B61D9
:103578007B88DBB25B09DBB23B617B8803F01F030E
:10358800FB60FB68012202FA03F3BB603B69012B75
:1035980003D17B690C337B6109E03B69022B03D1C2
:1035A8007B6910337B6102E07B6914337B617B7834
:1035B800002B06D07B697A691168BA680A431A60D9
:1035C80006E07B697A691168BA68D2430A401A60D2
:1035D8001C37BD465DF8047B704700BF80B487B0D8
:1035E80000AF78600B467B800023FB6000237B6183
:1035F8000023BB600023FB747B88DBB25B09DBB272
:10360800BB607B8803F01F037B617B69012202FAA0
:1036180003F37B61BB68012B06D17B689B899BB256
:103628007A6913407B610FE0BB68022B06D17B6887
:103638001B8A9BB27A6913407B6105E07B689B8A91
:103648009BB27A6913407B617B881B0A9BB2FB6043
:10365800FB68012202FA03F3FB607B681B889BB2BC
:10366800FA681340FB607B69002B05D0FB68002BD0
:1036780002D00123FB7401E00023FB74FB7C184695
:103688001C37BD465DF8047B704700BF014600202B
:103698000246034600F088BB38B544F2643444F26D
:1036A8006035C0F60005C0F60004641BA41018BFFE
:1036B80005EB840505D0013C55F8043D9847002CDE
:1036C800F9D1BDE8384000F03DBE00BF70B544F206
:1036D800583644F25835C0F60005C0F60006761B89
:1036E800B6101CBF043D002405D0013455F8043F32
:1036F8009847A642F9D144F2603644F25835C0F6EC
:103708000005C0F60006761B00F016FEB6101CBFBA
:10371800043D002406D0013455F8043F9847A642DA
:10372800F9D170BD70BD00BF40F27043C2F2000312
:103738000146186800F008B840F27043C2F200036E
:103748000146186800F0E4BB2DE9F04F01F10B05C4
:10375800162D87BF25F00705EB0F002310258D4296
:103768002CBF194643F0010183B00746002940F0F9
:10377800B580FDF70FFEB5F5FC7F1FD240F2744609
:10378800C2F200064FEAD50C06EBCC03DC689C427B
:1037980000F0F4816368E268A16823F0030323441E
:1037A80038465D68CA6045F0010591605D60FDF7C7
:1037B800FBFD0834204603B0BDE8F08F5FEA552CC6
:1037C80004BF7E214FF03F0C40F08F8040F27446DA
:1037D800C2F2000606EB8101CC68A14206D10DE0D9
:1037E800002B80F26381E468A14207D0626822F06E
:1037F8000302531B0F2BF3DD0CF1FF3C0CF1010C02
:1038080040F27443C2F20003346903F1080E7445B0
:1038180008BF5A6822D0616821F003014A1B0F2AA9
:1038280000F39081002AC3F814E0C3F810E067DAC7
:10383800B1F5007F80F05F81C90803EBC1004FEA52
:10384800A1085A688168E0604FF0010909FA08F890
:1038580048EA0202A1605A608460CC604FEAAC0377
:1038680001209840904258D8024206D12CF0030C0F
:10387800400002420CF1040CFAD006EBCC08444696
:10388800E146E3689C4207D16FE1002A80F280811B
:10389800DB689C4200F06981596821F003014A1BEA
:1038A8000F2AF2DD1C46D3F80CC054F8088F5919BA
:1038B80045F0010942F00105C3F804903846C8F8FC
:1038C8000CC0CCF8088071613161C1F80CE0C1F816
:1038D80008E04D608A50FDF767FD6BE70C23002474
:1038E8000360204603B0BDE8F08FBCF1040F00F27E
:1038F800EE804FEA951C0CF1380C4FEA4C0165E755
:10390800214438464B6843F001034B60FDF74CFDFA
:103918000834204603B0BDE8F08FB468636823F02C
:1039280003094D4504D8C5EB09030F2B00F3AE80FE
:1039380040F6D42340F6800AC2F20003C2F2000A1D
:103948001B68DAF800102B4401311DBF03F58053C2
:103958000F3323F47F6303F1100C18BF23F00F0C0F
:1039680004EB0902614638460192CDF800C0FDF724
:10397800C9FCB0F1FF3F8046019ADDF800C000F0B5
:103988001D81824200F2178140F6D82BC2F2000B4B
:103998004245DBF800306344CBF8003000F05D812D
:1039A800DAF8000040F68001013018BFC2EB0802C7
:1039B800C2F2000116BF9B18C1F80080CBF8003096
:1039C80018F007031FBFC3F108029044C3F58053E2
:1039D80003F1080A08EB0C0308BF4FF4805AC3F33D
:1039E8000B03C3EB0A0A51463846FDF78BFC431C10
:1039F80018BFC8EB0002DBF80030C6F8088015BF16
:103A080052444FF0000A42F0010201225344B442EA
:103A180040F6D82AC8F80420CBF80030C2F2000AD1
:103A280015D0B9F10F0F40F2F8806168A9F10C02C6
:103A380022F0070201F0010EA118052042EA0E0E3D
:103A48000F2AC4F804E04860886000F2128140F64A
:103A5800D022C2F20002B46811688B4288BF13609A
:103A680040F6CC22C2F2000211688B4288BF136074
:103A7800626822F003029542C5EB020301D80F2BBE
:103A880004DC3846FDF790FC002493E6621943F005
:103A9800010345F0010565603846B2605360FDF7E3
:103AA80083FC0834204603B0BDE8F08F2244E36865
:103AB8005068A16840F00105CB60384699605560B0
:103AC800FDF772FC0834204603B0BDE8F08FBCF166
:103AD800140F9CBF0CF15B0C4FEA4C017FF676AEDD
:103AE800BCF1540F00F28F804FEA153C0CF16E0CBC
:103AF8004FEA4C016AE64B0A042B58D9142B9CBF99
:103B080003F15B02500005D9542B00F2BA800A0B6E
:103B18006E32500006EB800040F27448836883429E
:103B2800C2F200087FD05A6822F00302914202D202
:103B38009B689842F7D1D9687268E160A3608C608D
:103B4800DC608BE6611942F0010645F0010565600D
:103B5800384659611961C1F80CE0C1F808E04E60B7
:103B68008A500834FDF720FC24E609F1010919F010
:103B7800030F04F108047FF484AE28E004F108037D
:103B88006469A34208BF0CF1020C3FF439AE01E6A8
:103B980019441C464868DB6854F8082F40F00105B2
:103BA8004D603846D3609A60FDF7FEFB02E68A094D
:103BB80038325000AEE7B4423FF4E6AEB46862680B
:103BC80022F0030257E7D8F8008098456BD11CF023
:103BD800030FA8F108030CF1FF3CF4D1736823EA42
:103BE80000037360400098423FF697AE00283FF408
:103BF80094AE0342CC467FF440AE400003420CF141
:103C0800040CFAD039E6BCF5AA7F17D84FEAD53CA0
:103C18000CF1770C4FEA4C01D8E50123C8F80430C1
:103C28004446002227E791100120D8F8042000FA22
:103C380001F10A43C8F8042019467EE740F25453BC
:103C48009C459DBF4FEA954C0CF17C0C4FEA4C010A
:103C5800FC2188BF4FF07E0CB8E5C2F30B010029A8
:103C68007FF49EAE0CEB0901B26841F0010151608E
:103C7800EDE604F10801384600F04AF9DAF80030B8
:103C8800E5E6B3F5AA7F03D8CA0B7732500041E7BF
:103C980040F2545293429DBF8A0C7C325000FC2063
:103CA80088BF7E2236E773689CE700BFF0B48407BC
:103CB80043D0541E002A3ED0CDB2034603E0621E14
:103CC800002C38D0144603F8015B9A07F7D1032C6F
:103CD8002AD9CDB245EA05250F2C45EA054515D95F
:103CE800A4F110073F0903F1100606EB07161A4660
:103CF800156055609560D5601032B242F8D104F075
:103D08000F040137032C03EB07130DD91E46224677
:103D1800043A032A46F8045BFAD8221F22F0030269
:103D28000432134404F003042CB1C9B21C4403F850
:103D3800011BA342FBD1F0BC704714460346C6E7FB
:103D480040EA01039B0770B42BD1032A84BF0C46B9
:103D5800034626D9214654F8045BA5F1013626EA24
:103D6800050616F0803F05D1043A032A43F8045BA0
:103D78002146EFD89AB10C78013A1C7001333CB156
:103D88006AB111F8014F013A03F8014B002CF7D141
:103D98002AB11A44002103F8011B9342FBD170BCDD
:103DA80070470346E6E700BFF0B544F23C34C0F67E
:103DB800000485B02668D6F848410746002C44D050
:103DC80065681F2D21DD43F23174C0F600041CB96B
:103DD8004FF0FF3005B0F0BD4FF4C8700391029268
:103DE8000193FFF7A1FC0399029A019B044600285E
:103DF800EED0D6F848510020256060600546C6F828
:103E08004841C4F88801C4F88C013FB9AB1C0020B4
:103E18000135656044F8231005B0F0BD04EB85005A
:103E28004FF0010CC0F88820D4F888610CFA05F22C
:103E38001643022FC4F88861C0F8083102BFD4F8CD
:103E48008C311A43C4F88C21E0E706F5A674C6F84D
:103E58004841B5E740F20003C0F200032BB143F23A
:103E6800A160C0F60000FFF711BC7047F8B540F23A
:103E78007444C2F200040F460546FDF78BFAA368A6
:103E88005E6826F00306F71B07F6EF773F0B013F46
:103E98003F03B7F5805F07DB28460021FDF732FABC
:103EA800A3683344984204D02846FDF77DFA0020E1
:103EB800F8BD28467942FDF725FA013010D040F6C2
:103EC800D823C2F20003A1681A68F61B46F001065F
:103ED8002846D71B4E601F60FDF766FA0120F8BD23
:103EE80028460021FDF70EFAA368C21A0F2ADBDD67
:103EF80040F68004C2F2000440F6D8212468C2F2D9
:103F0800000142F00102001B5A600860CCE700BFC4
:103F18002DE9F8430E468146002960D0FDF73AFAAC
:103F280056F8041CA6F1080421F00103E21840F237
:103F380074455768C2F2000527F00300AF6897423E
:103F480063D011F0010C506018BF002111D156F850
:103F5800081C641A05F10808A668464518BFD4F875
:103F68000C800B441DBFC6F80C806146C8F8086079
:103F7800012116187668F60708D40344906811B929
:103F8800494EB04260D0D268C260906043F00102EE
:103F98006260E350F1B9B3F5007F22D35A0A042ACC
:103FA8005BD898093830410005EB810540F274412F
:103FB800AA68AA42C2F200015BD0516821F003014D
:103FC8008B4202D292689542F7D1D368E360A2602F
:103FD8009C60D4604846BDE8F843FDF7E5B9BDE804
:103FE800F883DB0805EBC30268689168E260012684
:103FF8009B1006FA03F31843A16068609460484672
:10400800CC60BDE8F843FDF7CFB9CF07184407D413
:1040180056F8083CE41A1844A268E368D3609A602A
:1040280040F67C02C2F2000240F0010113686160B0
:104038009842AC60CED340F6D423C2F2000348467F
:104048001968FFF713FFC5E743F001026C612C61A3
:10405800E060A0606260E350BCE7142A9CBF02F1F4
:104068005B004100A0D9542A0CD8180B6E304100CF
:104078009AE74B688010012505FA00F003434B606E
:104088001346A3E7B2F5AA7F03D8D80B77304100CF
:104098008AE740F254518A429DBF980C7C30410017
:1040A800FC2188BF7E207FE77C04002049444C45E2
:1040B800000000000D0A000025752020256320203F
:1040C800252D31367320202020202020202020304C
:1040D80020202030252520202535750D0A000000D8
:1040E8002575202025632020252D31367320253184
:1040F800307520253375252520202535750D0A00B6
:104108002575202025632020252D31367320253163
:10411800307520203C31252520202535750D0A00D5
:10412800436F6D6D616E643A2000000052656164F2
:10413800207048204D657465722E2E2E0D0A0000E1
:10414800434F554C444E542054414B452053454D04
:104158004150484F524500005374617274696E674C
:1041680020746F2064697370656E73652E2E2E0D32
:104178000A00000046696E697368656420646973A3
:1041880070656E73696E670D0A0000005050554DDA
:10419800505F44495350454E534520434F554C4476
:1041A8004E5420474554204D555445580D0A00009B
:1041B8002D2D2D2D2D2D2D2D2D2D2D2D2D2D2D2D27
:1041C8002D0D0A2831297461726765742070683A68
:1041D80020000000457865637574696E6720504853
:1041E8005F7461736B2E2E2E0D0A000050485F4DD0
:1041F800455445522D3E6D75746578203D3D204EE1
:10420800554C4C0D0A0000002D2D2D2D2D2D2D2D3A
:104218002D2D2D2D2D2D2D2D2D0D0A7461726765D7
:10422800742070683A20000050482052656164008C
:104238004D4554455220524541442053554343452A
:10424800535346554C4C592E2050483D0000000011
:10425800097461726765745F50483D004144444980
:104268004E472050482055500D0A0000505000007D
:10427800414444494E4720504820444F574E0D0A68
:104288000000000053544142494C495A45442050CB
:1042980048204C4556454C5320400000434F554C50
:1042A800444E542041434345535320534146454CC3
:1042B8005920494E2050485F5441534B0D0A000085
:1042C80068616E646C655F756172745F636F6D6D54
:1042D800616E64004578656375746564204C696730
:1042E80068745F7461736B0D0A000000426F6F742D
:1042F800696E672075702E2E2E0D0A0069646C6534
:104308005F626C696E6B7900765048002D2D2D2DFB
:104318002D2D2D2D2D2D2D2D2D2D2D2D2D0D0A280D
:1043280032297461726765742070683A2000000051
:104338004300000048000020F8B500BFF8BC08BCE6
:104348009E467047F8B500BFF8BC08BC9E4670474B
:084358005D3E0008110200089F
:04436000E10100086F
:10436400A4080020800000000000000000000000FD
:10437400240900208000000000000000000000006C
:1043840032000000007A030A00010000FFFFFFFF73
:10439400AAAAAAAA0000000001020304010203045D
:1043A4000607080900000000000000003403002094
:1043B4009C03002004040020000000000000000012
:1043C40000000000000000000000000000000000E9
:1043D4000000000000000000000000003843000856
:1043E40000000000000000000000000000000000C9
:1043F40000000000000000000000000000000000B9
:1044040000000000000000000000000000000000A8
:104414000000000000000000000000000000000098
:104424000000000000000000000000000000000088
:104434000000000000000000000000000000000078
:104444000000000000000000000000000000000068
:1044540001000000000000000E33CDAB34126DE605
:10446400ECDE05000B00000000000000000000006E
:104474000000000000000000000000000000000038
:104484000000000000000000000000000000000028
:104494000000000000000000000000000000000018
:1044A4000000000000000000000000000000000008
:1047D40048000020000000000000000074040020D5
:1047E400740400207C0400207C0400208404002045
:1047F400840400208C0400208C04002094040020F5
:10480400940400209C0400209C040020A4040020A4
:10481400A4040020AC040020AC040020B404002054
:10482400B4040020BC040020BC040020C404002004
:10483400C4040020CC040020CC040020D4040020B4
:10484400D4040020DC040020DC040020E404002064
:10485400E4040020EC040020EC040020F404002014
:10486400F4040020FC040020FC04002004050020C3
:10487400040500200C0500200C0500201405002070
:10488400140500201C0500201C0500202405002020
:10489400240500202C0500202C05002034050020D0
:1048A400340500203C0500203C0500204405002080
:1048B400440500204C0500204C0500205405002030
:1048C400540500205C0500205C05002064050020E0
:1048D400640500206C0500206C0500207405002090
:1048E400740500207C0500207C0500208405002040
:1048F400840500208C0500208C05002094050020F0
:10490400940500209C0500209C050020A40500209F
:10491400A4050020AC050020AC050020B40500204F
:10492400B4050020BC050020BC050020C4050020FF
:10493400C4050020CC050020CC050020D4050020AF
:10494400D4050020DC050020DC050020E40500205F
:10495400E4050020EC050020EC050020F40500200F
:10496400F4050020FC050020FC05002004060020BE
:10497400040600200C0600200C060020140600206B
:10498400140600201C0600201C060020240600201B
:10499400240600202C0600202C06002034060020CB
:1049A400340600203C0600203C060020440600207B
:1049B400440600204C0600204C060020540600202B
:1049C400540600205C0600205C06002064060020DB
:1049D400640600206C0600206C060020740600208B
:1049E400740600207C0600207C060020840600203B
:1049F400840600208C0600208C06002094060020EB
:104A0400940600209C0600209C060020A40600209A
:104A1400A4060020AC060020AC060020B40600204A
:104A2400B4060020BC060020BC060020C4060020FA
:104A3400C4060020CC060020CC060020D4060020AA
:104A4400D4060020DC060020DC060020E40600205A
:104A5400E4060020EC060020EC060020F40600200A
:104A6400F4060020FC060020FC06002004070020B9
:104A7400040700200C0700200C0700201407002066
:104A8400140700201C0700201C0700202407002016
:104A9400240700202C0700202C07002034070020C6
:104AA400340700203C0700203C0700204407002076
:104AB400440700204C0700204C0700205407002026
:104AC400540700205C0700205C07002064070020D6
:104AD400640700206C0700206C0700207407002086
:104AE400740700207C0700207C0700208407002036
:104AF400840700208C0700208C07002094070020E6
:104B0400940700209C0700209C070020A407002095
:104B1400A4070020AC070020AC070020B407002045
:104B2400B4070020BC070020BC070020C4070020F5
:104B3400C4070020CC070020CC070020D4070020A5
:104B4400D4070020DC070020DC070020E407002055
:104B5400E4070020EC070020EC070020F407002005
:104B6400F4070020FC070020FC07002004080020B4
:104B7400040800200C0800200C0800201408002061
:104B8400140800201C0800201C0800202408002011
:104B9400240800202C0800202C08002034080020C1
:104BA400340800203C0800203C0800204408002071
:104BB400440800204C0800204C0800205408002021
:104BC400540800205C0800205C08002064080020D1
:104BD400640800206C0800206C080020000002001B
:044BE400FFFFFFFFD1
:040000050800104D92
:00000001FF
