:020000040800F2
:1000000000000220091C0008611C0008611C000897
:10001000611C0008611C0008611C00080000000051
:10002000000000000000000000000000553900083A
:10003000611C000800000000FD3900084D3A00086E
:10004000611C0008611C0008611C0008611C00089C
:10005000611C0008611C0008611C0008611C00088C
:10006000611C0008611C0008611C0008611C00087C
:10007000611C0008611C0008611C0008611C00086C
:10008000611C0008611C0008611C0008611C00085C
:10009000611C0008611C0008611C0008611C00084C
:1000A000611C0008611C0008611C0008611C00083C
:1000B000611C0008611C0008611C0008611C00082C
:1000C000611C0008611C0008611C0008611C00081C
:1000D000611C0008FD160008611C0008611C000876
:1000E000611C0008611C0008611C0008611C0008FC
:1000F000611C0008611C0008611C0008611C0008EC
:10010000611C0008611C0008611C0008611C0008DB
:10011000611C0008611C0008611C0008611C0008CB
:10012000611C0008611C0008611C0008611C0008BB
:10013000611C0008611C0008611C0008611C0008AB
:10014000611C0008611C0008611C0008611C00089B
:10015000611C0008611C0008611C0008611C00088B
:10016000611C0008611C0008611C0008611C00087B
:10017000611C0008611C0008611C0008611C00086B
:08018000611C0008611C00086D
:1001880008B540F6EC00074BC2F200001B1A062B1C
:1001980000D808BD40F20003C0F20003002BF8D0DD
:1001A8009847F6E7EF08002008B540F6EC0040F65F
:1001B800EC03C2F20003C2F200001B1A9B1003EB0F
:1001C800D373591000D108BD40F20002C0F20002FA
:1001D800002AF8D09047F6E710B540F6F004C2F2CE
:1001E8000004237873B9FFF7CBFF40F20003C0F295
:1001F80000032BB148F24460C0F60000AFF3008062
:100208000123237010BD00BF08B540F20003C0F2FF
:1002180000034BB148F2446040F6F401C0F6000018
:10022800C2F20001AFF3008040F6EC00C2F2000019
:1002380003682BB140F20003C0F2000303B19847F2
:10024800BDE80840B0E700BF844641EA000313F068
:1002580003036DD1403A41D351F8043B40F8043BC5
:1002680051F8043B40F8043B51F8043B40F8043B88
:1002780051F8043B40F8043B51F8043B40F8043B78
:1002880051F8043B40F8043B51F8043B40F8043B68
:1002980051F8043B40F8043B51F8043B40F8043B58
:1002A80051F8043B40F8043B51F8043B40F8043B48
:1002B80051F8043B40F8043B51F8043B40F8043B38
:1002C80051F8043B40F8043B51F8043B40F8043B28
:1002D80051F8043B40F8043B403ABDD2303211D3C8
:1002E80051F8043B40F8043B51F8043B40F8043B08
:1002F80051F8043B40F8043B51F8043B40F8043BF8
:10030800103AEDD20C3205D351F8043B40F8043BC7
:10031800043AF9D2043208D0D2071CBF11F8013BC5
:1003280000F8013B01D30B8803806046704700BF8B
:10033800082A13D38B078DD010F003038AD0C3F19A
:100348000403D21ADB071CBF11F8013B00F8013B7C
:1003580080D331F8023B20F8023B7BE7043AD9D33B
:10036800013A11F8013B00F8013BF9D20B78037010
:100378004B7843708B7883706046704781F00041FA
:1003880002E000BF83F0004330B54FEA41044FEA72
:10039800430594EA050F08BF90EA020F1FBF54EA0D
:1003A800000C55EA020C7FEA645C7FEA655C00F0A9
:1003B800E2804FEA5454D4EB5555B8BF6D420CDD7A
:1003C8002C4480EA020281EA030382EA000083EAFD
:1003D800010180EA020281EA0303362D88BF30BD9D
:1003E80011F0004F4FEA01314FF4801C4CEA1131F3
:1003F80002D0404261EB410113F0004F4FEA033352
:100408004CEA133302D0524263EB430394EA050FDC
:1004180000F0A780A4F10104D5F1200E0DDB02FA4B
:100428000EFC22FA05F2801841F1000103FA0EF2DF
:10043800801843FA05F359410EE0A5F120050EF1A5
:10044800200E012A03FA0EFC28BF4CF0020C43FAD6
:1004580005F3C01851EBE37101F0004507D54FF0E3
:10046800000EDCF1000C7EEB00006EEB0101B1F533
:10047800801F1BD3B1F5001F0CD349085FEA300079
:100488004FEA3C0C04F101044FEA445212F5800F84
:1004980080F09A80BCF1004F08BF5FEA500C50F121
:1004A800000041EB045141EA050130BD5FEA4C0C04
:1004B800404141EB010111F4801FA4F10104E9D18D
:1004C80091F0000F04BF01460020B1FA81F308BF84
:1004D8002033A3F10B03B3F120020CDA0C3208DD50
:1004E80002F1140CC2F10C0201FA0CF021FA02F12B
:1004F8000CE002F11402D8BFC2F1200C01FA02F19B
:1005080020FA0CFCDCBF41EA0C019040E41AA2BFBF
:1005180001EB0451294330BD6FEA04041F3C1CDA87
:100528000C340EDC04F11404C4F1200220FA04F0A7
:1005380001FA02F340EA030021FA04F345EA030151
:1005480030BDC4F10C04C4F1200220FA02F001FA13
:1005580004F340EA0300294630BD21FA04F0294695
:1005680030BD94F0000F83F4801306BF81F480112E
:100578000134013D4EE77FEA645C18BF7FEA655CA1
:1005880029D094EA050F08BF90EA020F05D054EA73
:10059800000C04BF1946104630BD91EA030F1EBF78
:1005A8000021002030BD5FEA545C05D1400049417C
:1005B80028BF41F0004130BD14F580043CBF01F56F
:1005C800801130BD01F0004545F0FE4141F4700155
:1005D8004FF0000030BD7FEA645C1ABF1946104630
:1005E8007FEA655C1CBF0B46024650EA013406BF31
:1005F80052EA033591EA030F41F4002130BD00BFF0
:1006080090F0000F04BF0021704730B54FF48064AC
:1006180004F132044FF000054FF0000150E700BF2D
:1006280090F0000F04BF0021704730B54FF480648C
:1006380004F1320410F0004548BF40424FF0000179
:100648003EE700BF42004FEAE2014FEA31014FEABC
:1006580002701FBF12F07F4393F07F4F81F060510B
:10066800704792F0000F14BF93F07F4F704730B57A
:100678004FF4607401F0004521F0004120E700BF0D
:1006880050EA010208BF704730B54FF000050AE094
:1006980050EA010208BF704730B511F0004502D595
:1006A800404261EB41014FF4806404F132045FEA97
:1006B800915C3FF4DCAE4FF003025FEADC0C18BF3C
:1006C80003325FEADC0C18BF033202EBDC02C2F132
:1006D800200300FA03FC20FA02F001FA03FE40EAC4
:1006E8000E0021FA02F11444C1E600BF70B54FF0C4
:1006F800FF0C4CF4E06C1CEA11541DBF1CEA1355A6
:1007080094EA0C0F95EA0C0F00F0DEF82C4481EA0D
:10071800030621EA4C5123EA4C5350EA013518BF2D
:1007280052EA033541F4801143F4801338D0A0FB1A
:1007380002CE4FF00005E1FB02E506F00042E0FBC7
:1007480003E54FF00006E1FB03569CF0000F18BFCD
:100758004EF0010EA4F1FF04B6F5007F64F5407475
:1007680004D25FEA4E0E6D4146EB060642EAC62108
:1007780041EA55514FEAC52040EA5E504FEACE2E75
:10078800B4F1FD0C88BFBCF5E06F1ED8BEF1004F78
:1007980008BF5FEA500E50F1000041EB045170BDF4
:1007A80006F0004646EA010140EA020081EA030138
:1007B800B4EB5C04C2BFD4EB0C0541EA045170BD34
:1007C80041F480114FF0000E013C00F3AB8014F1AE
:1007D800360FDEBF002001F0004170BDC4F10004F7
:1007E800203C35DA0C341BDC04F11404C4F1200578
:1007F80000FA05F320FA04F001FA05F240EA0200D3
:1008080001F0004221F0004110EBD37021FA04F608
:1008180042EB06015EEA430E08BF20EAD37070BDC2
:10082800C4F10C04C4F1200500FA04F320FA05F021
:1008380001FA04F240EA020001F0004110EBD37023
:1008480041F100015EEA430E08BF20EAD37070BD93
:10085800C4F1200500FA05F24EEA020E20FA04F36C
:1008680001FA05F243EA020321FA04F001F000411B
:1008780021FA04F220EA020000EBD3705EEA430E8C
:1008880008BF20EAD37070BD94F0000F0FD101F0BB
:100898000046400041EB010111F4801F08BF013CF4
:1008A800F7D041EA060195F0000F18BF704703F032
:1008B8000046520043EB030313F4801F08BF013DB9
:1008C800F7D043EA0603704794EA0C0F0CEA135575
:1008D80018BF95EA0C0F0CD050EA410618BF52EA2F
:1008E8004306D1D181EA030101F000414FF0000035
:1008F80070BD50EA410606BF1046194652EA430643
:1009080019D094EA0C0F02D150EA013613D195EAB6
:100918000C0F05D152EA03361CBF104619460AD1FE
:1009280081EA030101F0004141F0FE4141F4700108
:100938004FF0000070BD41F0FE4141F4780170BDF8
:1009480070B54FF0FF0C4CF4E06C1CEA11541DBF5D
:100958001CEA135594EA0C0F95EA0C0F00F0A7F85F
:10096800A4EB050481EA030E52EA03354FEA01318C
:1009780000F088804FEA03334FF0805545EA13139F
:1009880043EA12634FEA022245EA111545EA106567
:100998004FEA00260EF000419D4208BF964244F1FE
:1009A800FD0404F5407402D25B084FEA3202B61A1D
:1009B80065EB03055B084FEA32024FF480104FF4F1
:1009C800002CB6EB020E75EB030E22BFB61A754665
:1009D80040EA0C005B084FEA3202B6EB020E75EBF8
:1009E800030E22BFB61A754640EA5C005B084FEA60
:1009F8003202B6EB020E75EB030E22BFB61A75462D
:100A080040EA9C005B084FEA3202B6EB020E75EB37
:100A1800030E22BFB61A754640EADC0055EA060EF8
:100A280018D04FEA051545EA16754FEA06164FEA3B
:100A3800C30343EA52734FEAC2025FEA1C1CC0D1E7
:100A480011F4801F0BD141EA00014FF000004FF074
:100A5800004CB6E711F4801F04BF01430020B4F135
:100A6800FD0C88BFBCF5E06F3FF6AFAEB5EB030CED
:100A780004BFB6EB020C5FEA500C50F1000041EBEA
:100A8800045170BD0EF0004E4EEA113114EB5C04B7
:100A9800C2BFD4EB0C0541EA045170BD41F480118A
:100AA8004FF0000E013C90E645EA060E8DE60CEA92
:100AB800135594EA0C0F08BF95EA0C0F3FF43BAFAF
:100AC80094EA0C0F0AD150EA01347FF434AF95EA66
:100AD8000C0F7FF425AF104619462CE795EA0C0F4A
:100AE80006D152EA03353FF4FDAE1046194622E717
:100AF80050EA410618BF52EA43067FF4C5AE50EAF1
:100B080041047FF40DAF52EA43057FF4EBAE12E7E0
:100B18004FF0FF3C06E000BF4FF0010C02E000BFC1
:100B28004FF0010C4DF804CD4FEA410C7FEA6C5CA4
:100B38004FEA430C18BF7FEA6C5C1BD001B050EA47
:100B4800410C0CBF52EA430C91EA030F02BF90EA32
:100B5800020F0020704710F1000F91EA030F58BFF1
:100B6800994208BF90422CBFD8176FEAE37040F053
:100B7800010070474FEA410C7FEA6C5C02D150EAF1
:100B8800013C07D14FEA430C7FEA6C5CD6D152EAAC
:100B9800033CD3D05DF8040B704700BF8446104671
:100BA80062468C461946634600E000BF01B5FFF770
:100BB800B7FF002848BF10F1000F01BD4DF808ED40
:100BC800FFF7F4FF0CBF012000205DF808FB00BF11
:100BD8004DF808EDFFF7EAFF34BF012000205DF86B
:100BE80008FB00BF4DF808EDFFF7E0FF94BF0120B8
:100BF80000205DF808FB00BF4DF808EDFFF7CEFFB9
:100C080094BF012000205DF808FB00BF4DF808EDF7
:100C1800FFF7C4FF34BF012000205DF808FB00BFC8
:100C28004FEA410212F5001215D211D56FF478730C
:100C3800B3EB625212D94FEAC12343F0004343EAAF
:100C4800505311F0004F23FA02F018BF404270478A
:100C58004FF00000704750EA013005D111F0004014
:100C680008BF6FF0004070474FF00000704700BFAA
:100C78004BB942B9002908BF002802D04FF0FF3114
:100C8800084600F03BB882B0EC462DE9005000F071
:100C98001DF8DDF804E002B00CBC70472DE9F04106
:100CA800069C154606460F46984600F029F805FBAF
:100CB80001F300FB0838A5FB00234344B21A67EB95
:100CC8000303C4E90023BDE8F08100BF2DE9F0412A
:100CD800069C154606460F46984600F067F900FB45
:100CE80008F8A0FB052305FB01884344B21A67EB0B
:100CF8000303C4E90023BDE8F08100BF704700BFCB
:100D080000292DE9F00FA8BF0026C0F2A980002B0A
:100D1800C0F2A180894690469C46144605460F4677
:100D2800002B47D18A425BD9B2FA82F353B1C3F19F
:100D3800200201FA03F720FA02F208FA03F4174333
:100D480000FA03F5210CB7FBF1F22B0C01FB127C26
:100D5800A0B243EA0C4700FB02F3BB4209D93F1992
:100D680002F1FF3C04D2BB4284BF023A3F1900D8CB
:100D78006246FF1AB7FBF1F3ADB201FB137145EA06
:100D8800014100FB03F0884208D9091903F1FF3734
:100D980003D2884288BF023B00D83B4643EA02435D
:100DA80000221846114616B1404261EB4101BDE8E8
:100DB800F00F70478B4284BF00221346F1D8BCFA6B
:100DC8008CF1002940F09080CC4528BF80458CBF2D
:100DD800002201229CBF01230A46E2D91346E0E71C
:100DE80012B90123B3FBF2F4B4FA84F3002B3DD11A
:100DF8003F1B200C1FFA84FC0122B7FBF0F12B0CDF
:100E080000FB117743EA07470CFB01F3BB420AD901
:100E18003F1901F1FF3880F0C180BB4284BF02391D
:100E28003F1940F2BB80FF1AB7FBF0F3ADB200FBED
:100E3800137045EA00400CFB03FC844508D90019EF
:100E480003F1FF3703D2844588BF023B00D83B46F5
:100E580043EA0143A5E7F643524263EB430359E7EC
:100E6800404261EB41014FF0FF3650E79C40C3F12F
:100E7800200227FA02F1200C25FA02F29F401743BC
:100E8800B1FBF0F24FEA174800FB12111FFA84FC7D
:100E980048EA01410CFB02F8884505FA03F508D930
:100EA800091902F1FF337FD2884584BF023A091934
:100EB8007AD9C8EB0101B1FBF0F300FB1311BFB203
:100EC80047EA01470CFB03F1B94209D93F1903F17D
:100ED800FF3804D2B94284BF023B3F1900D84346C9
:100EE8007F1A43EA024288E7C1F1200328FA03F295
:100EF8000CFA01FC42EA0C0C29FA03F44FEA1C4AEA
:100F080020FA03F309FA01F943EA0900B4FBFAF7F6
:100F18000AFB1744030C1FFA8CF943EA044409FB43
:100F280007FBA34508FA01F209D914EB0C0407F1F1
:100F3800FF3337D2A34584BF023F644432D9CBEB99
:100F48000404B4FBFAF30AFB134480B240EA0440F9
:100F580009FB03F4844209D910EB0C0003F1FF38B4
:100F68001ED2844284BF023B604419D943EA074732
:100F7800001BA7FB022398420DD314BF00230123B3
:100F880005FA01F191422CBF002203F001023B4611
:100F9800002A3FF406AF7B1E002202E7414642E7E3
:100FA8004346E3E71F46CAE71A4682E72DE9F003FE
:100FB800144605460E46002B41D18A4254D9B2FA4E
:100FC80082F34BB1C3F12006994020FA06F602FAE3
:100FD80003F40E4300FA03F5220CB6FBF2F02B0CD7
:100FE80002FB1061A7B243EA014607FB00F3B342D4
:100FF80009D9361900F1FF3104D2B34284BF02384F
:10100800361900D80846F61AB6FBF2F3ADB202FB61
:10101800136245EA024207FB03F7974209D91219FE
:1010280003F1FF3180F0EA80974288BF023B40F22B
:10103800E58043EA00400021BDE8F00370478B4299
:1010480084BF00210846F7D8B3FA83F4002C49D1AD
:101058008B4228BF82428CBF002101219CBF012006
:101068002146E9D90846E7E712B90124B4FBF2F4AE
:10107800B4FA84F7002F40F082800B1B260CA7B22D
:101088000121B3FBF6F02A0C06FB103342EA0343B6
:1010980007FB00F29A420AD91B1900F1FF3C80F0C5
:1010A800AF809A4284BF02381B1940F2A9809B1A6C
:1010B800B3FBF6F2ADB206FB123345EA034507FB74
:1010C80002F7AF4209D92C1902F1FF3380F09A8058
:1010D800A74288BF023A40F2958042EA0040BDE844
:1010E800F0037047C4F1200522FA05F6A340334304
:1010F8004FEA134821FA05F6A14020FA05F5B6FB98
:10110800F8FC0D4308FB1C66290C1FFA83F941EA19
:10111800064609FB0CF7B74202FA04F204D9F6189E
:101128000CF1FF3176D38C46F61BB6FBF8F708FBBB
:101138001766ADB245EA064509FB07F6AE4204D983
:10114800ED1807F1FF315FD30F4647EA0C47AD1B97
:10115800A7FB02239D420DD300FA04F114BF00251A
:10116800012591422CBF002105F0010138460029D4
:101178003FF462AF781E0021BDE8F0037047BC4021
:10118800C7F1200321FA03FC260CB94020FA03F327
:101198000B43BCFBF6F11A0C06FB11CC1FFA84F8C2
:1011A80042EA0C4C08FB01F2624500FA07F509D93E
:1011B8001CEB040C01F1FF3033D2624584BF0239C5
:1011C800A4442ED9C2EB0C0CBCFBF6F29BB206FB76
:1011D80012CC43EA0C4308FB02F0984209D91B19C8
:1011E80002F1FF3704D2984284BF023A1B1900D893
:1011F8003A461B1A42EA0141474642E70B4618E7BE
:10120800604654E71A4668E7AE4284BF023FED18CD
:101218009BD899E7B74284BFACF1020CF61883D883
:1012280081E70146CEE700BF10B502F0C9FB4FF4D5
:10123800A053C4F20003596A40F60C13C2F200032B
:101248001B888B42C8BF01F58031C81A40F61014BC
:10125800C2F20004D4E90023121843EBE073C4E996
:10126800002340F60C13C2F20003198002F0B4FB0D
:10127800D4E9000110BD00BF10B44FF4A053C4F26C
:1012880000035A6A92B24FF4A054C4F20004636A8D
:1012980011469A42C8BF03F580339A1A824203D88E
:1012A800C91A08449AB2F2E75DF8044B704700BFC8
:1012B80008B54FF47A7303FB00F0FFF7DDFF08BDB4
:1012C80000B585B0684602F07FFC2020012102F0BD
:1012D8001DFD4FF46053C4F202031A6C42F0200261
:1012E8001A644DF68363C4F21B33039AA3FB0213FB
:1012F8009B0C013B9BB24FF4A050C4F20000038545
:101308004FF6FF73C3620121018002F0B7FE05B0FA
:101318005DF804FB10B504462021032200F074FE9A
:101328002046032101F094FA002001F03FFD10BD92
:1013380080B54FF44060C4F20200102102F01CFC9A
:101348004FF44064C4F202044FF480594FF4FA7524
:101358004FF400584FF480474FF400462046494662
:1013680002F00AFC2846FFF7A3FF2046414602F098
:1013780003FC2846FFF79CFF2046394602F0FCFB99
:101388002846FFF795FF2046314602F0F5FB284630
:10139800FFF78EFF20464FF4704102F0EFFB28461E
:1013A800FFF786FFDAE700BF10B568B1002340F207
:1013B8000002C2F200021268026002220272406851
:1013C80019461A4602F024F9002001F0EFFC10BD7E
:1013D8002DE9F04FA9B000241F9420942194229461
:1013E8002394249425942694279440F6A843C2F283
:1013F80000030E931293169328A840F8383D47F639
:101408006871C0F6000100F0A5FD1EA801F032FBCE
:1014180001F076FA01461EA801F032FB00F52850CB
:101428003030219001238DF888301FA840F6F05104
:10143800C2F2000101F08CFA0546204601F0F6FCE4
:10144800049040F60C44C2F2000447F68072C0F6DD
:101458000002079241F2B137C0F6000747F6A07ABA
:10146800C0F6000A47F6A87BC0F6000B002DFDD099
:10147800D4F88C0020B902F035F9C4F88C00F5E7EF
:1014880000214FF0FF320B4602F04EF90128EDD152
:1014980016A8079900F05EFD012384F890304FF0FC
:1014A800000847F6E073C0F60003069383E0049A49
:1014B800531C00930023019302930393384651462B
:1014C80080223F4B01F0D0FB94F89030022BFBD1E7
:1014D800D4F8886009AB0F930EA85946324600F03D
:1014E80073FD012384F89030D4F89430B34214DDAE
:1014F80012A847F6B871C0F6000100F02BFD40F2C3
:101508000003C2F200031A6805321A60D4F8943056
:101518009B1B059304F1040932E09E4214DD12A8D6
:1015280047F6CC71C0F6000100F014FD40F200034C
:10153800C2F200031A68053A1A60D4F89430F31A14
:10154800059304F130091BE01EA801F093FA01F09D
:10155800D7F901461EA801F093FA00F5285030305B
:10156800219012A8069900F0F5FC1FA840F6F0514A
:10157800C2F2000101F0ECF905464FF001081AE04B
:1015880001F09CFC0890D4F898304FF47A7606FB6A
:1015980003F6D4F88C0000214FF0FF320B4602F01E
:1015A800C3F8012807D14846059900F041FC08A86E
:1015B800314601F09FFDB8F1000F3FF478AF55E7D1
:1015C800940C00202DE9F04383B001F077FC0DF175
:1015D800080848F8080D4FF47A7940F6F057C2F237
:1015E800000700266846494601F084FD01F066FCC4
:1015F80000903C6835461BE001A801F03BFA01F079
:101608007FF9014601A801F03BFAA36898420DD979
:10161800206831463246334601F0FAFF15B964684E
:101628003C6005E063686B60646801E025466468B7
:10163800002CE1D1D6E700BF2DE9F04196B0002497
:101648000D940E940F94109411941294139414946E
:1016580015940CA801F00EFA01F052F901460CA8F5
:1016680001F00EFA129002238DF84030274640F61A
:10167800F056C2F2000640F6A848C2F2000847F643
:10168800F475C0F60005013438460CA902F088FC50
:1016980001F036F901460CA801F0F2F90F300F906D
:1016A8000DA8314601F054F90028ECD014940CA888
:1016B80001F0E0F901F024F901460CA801F0E0F985
:1016C80001F01EF901460CA801F0DAF91290CDF8E4
:1016D800208001AB95E8070083E8070004AA099277
:1016E80008A81946452200F06FFC08A800F0BEFBC8
:1016F800C9E700BF70B584B04FF48050C4F2010050
:1017080040F2255102F064FD002800F097804FF464
:101718008053C4F201039988C9B27F2918BF0829E8
:101728001AD140F6A843C2F200031A68013A1A60B7
:1017380013440D221A774FF48054C4F20104204652
:10174800082100F0B5FB2046202100F0B1FB20461F
:10175800082100F0ADFB71E00D2926D040F61813E2
:10176800C2F200031A6801321A6040F6A843C2F2B6
:1017780000031A6840F22B139A4201BF40F6A843AF
:10178800C2F2000300221A6040F6A844C2F2000424
:101798002368234419774FF48050C4F2010000F005
:1017A80087FB23680133236048E040F61813C2F230
:1017B80000031B68002B37D040F6A844C2F200048F
:1017C800236823440D221A774FF48050C4F2010095
:1017D80047F6F071C0F6000100F07CFB226840F685
:1017E8001816C2F200063368D31A2344092200925D
:1017F800002501950295039541F21D30C0F60000C1
:1018080048F20001C0F600014FF4EA721C3301F0FF
:101818002BFAA06929462A462B4601F0F9FE3560C5
:1018280023680133236009E04FF48050C4F20100BB
:1018380047F6F071C0F6000100F04CFB04B070BD33
:1018480030B589B00220012102F04EFA10200121A2
:1018580002F06EFAC023069302238DF81C30002490
:101868008DF81E408DF81F408DF81D304FF48065AF
:10187800C4F20205284606A902F036F928460621D0
:10188800072202F07DF9284607210A4602F078F976
:101898004FF416430293ADF80C40ADF80E40ADF886
:1018A8001040ADF814400C23ADF812304FF48055B9
:1018B800C4F20105284602A902F0EEFB284640F2D0
:1018C8002551012202F068FC25238DF804308DF89B
:1018D80005408DF8064001248DF8074001A802F064
:1018E800C5F82846214602F045FC09B030BD00BFC6
:1018F800F0B589B00120014602F0F6F94FF4003046
:10190800012102F003FA0C27069702268DF81C60C5
:1019180000248DF81E408DF81F408DF81D60254667
:10192800C4F20205284606A902F0DEF82846314628
:10193800072202F025F928460321072202F020F9A0
:101948000820012102F0D0F94FF4704306930125D5
:101958008DF81C508DF81E4003238DF81D308DF82E
:101968001F404FF44060C4F2020006A902F0BCF820
:101978004FF416430293ADF80C40ADF80E40ADF8A5
:101988001040ADF81440ADF812704FF48846C4F218
:101998000006304602A902F07FFB304640F225518E
:1019A8002A4602F0F9FB26238DF804308DF805400D
:1019B8008DF806408DF8075001A802F057F8304618
:1019C800294602F0D7FB09B0F0BD00BF10B584B0BE
:1019D8004FF08050012102F099F9012002F0E8F857
:1019E800012002F0EBF86124204602F0B3F9002848
:1019F800FAD04FF4007002F055F9012002F06EF9A8
:101A080002F050FA002002F0D3F9002401947C235C
:101A18000293FE23039301A802F018FA20462146F8
:101A2800224600F0C7FF0C200521112201F008F81A
:101A380004B010BD2DE9F04788B0FFF759FFFFF754
:101A4800FFFEFFF73DFCFFF7C1FF002001460246FD
:101A580000F0B0FF012000F059FF40F6F053C2F249
:101A6800000300251D6040F6A844C2F200044FF4AC
:101A78008056C4F201062046314600F005FA204699
:101A880000F0BCFA304648F29801C0F6000100F0B8
:101A980021FA4FF44064C4F202044FF4805A4FF420
:101AA80000594FF480484FF400474FF4FA761BE092
:101AB8002046514602F060F82046494602F05CF89C
:101AC8002046414602F058F82046394602F054F8BC
:101AD8003046FFF7EDFB20464FF4704102F04EF818
:101AE8003046FFF7E5FB0135012DE1DD102001212E
:101AF80002F0FAF82026069600248DF81E400127E9
:101B08008DF81C7002238DF81D304FF48055C4F2F7
:101B18000205284606A901F0E7FF2846314602F0EB
:101B28002DF80420394602F0DFF8802604968DF857
:101B380016408DF8144003238DF81530284604A963
:101B480001F0D2FF4FF48078CDF810808DF8147032
:101B5800284604A901F0C8FF009401940294039454
:101B680041F23930C0F6000048F2AC01C0F600017D
:101B78003246234601F078F80F230093019402942B
:101B8800039441F2CD50C0F6000048F2B801C0F607
:101B980000013246234601F067F80A2300930194B6
:101BA8000294039441F24160C0F6000048F2C80173
:101BB800C0F600013246234601F056F84FF4805033
:101BC800C4F2010048F2D801C0F6000100F082F921
:101BD8000523009301940294039441F2D930C0F68E
:101BE800000048F21011C0F600014246234601F0F9
:101BF8003BF801F02BF9204608B0BDE8F08700BF9C
:101C0800002103E00E4B5B58435004310D480E4B46
:101C180042189A42F6D30D4A02E0002342F8043BE8
:101C28000B4B9A42F9D30B48016841F470010160EB
:101C380000F0A2F802F012FBFFF7FCFE704700006C
:101C48007086000800000020EC080020F008002042
:101C5800EC0E002088ED00E0FEE7000082B00023D3
:101C6800019300934FF46053C4F202031A6842F4DC
:101C780080321A604FF46052C4F20202136803F40F
:101C880000330093019B01330193009B1BB9019B17
:101C9800B3F5A06FF2D14FF46053C4F202031B688E
:101CA80013F4003F14BF012300230093009B012B72
:101CB80046D14FF46053C4F202031A6C42F08052CA
:101CC8001A644FF4E042C4F20002116841F4804102
:101CD80011609A689A609A6842F400429A609A6819
:101CE80042F4A0529A6045F20842C0F240725A602B
:101CF8001A6842F080721A604FF46052C4F202020D
:101D0800136813F0007FFBD04FF47053C4F2020342
:101D180040F205621A604FF46053C4F202039A68F5
:101D280022F003029A609A6842F002029A604FF425
:101D38006052C4F20202936803F00C03082BFAD134
:101D48004FF46053C4F202039A6822F400029A60C6
:101D58004FF44052C5F20002C3F884201A6842F0DA
:101D680080621A604FF46052C4F20202136813F0E2
:101D7800006FFBD002B0704708B54FF46053C4F24F
:101D880002031A6842F001021A6000229A60196878
:101D980021F0847121F48031196043F21001C2F2FC
:101DA80000415960196821F480211960DA60FFF751
:101DB80055FF4FF46D43CEF200034FF000629A6076
:101DC80008BD00BF30B440F6F453C2F200031B68EC
:101DD80043B940F6F453C2F2000340F6EC62C2F293
:101DE80000021A6040F6F453C2F200031A68114464
:101DF800EFF3088540F20803C2F200031C682B1BAE
:101E0800994283BF0C2303604FF0FF3040F6F45330
:101E18009EBFC2F200031960104630BC704700BF75
:101E280008B501F0CDFD08BD08B501F0D5FD08BD28
:101E380038B50D460446B8B10068A18801F09CFE8B
:101E4800E28848F68903C8F68803A3FB02135B09F6
:101E580005FB03F54FF47A7000FB05F0FFF728FA4D
:101E68002068A18801F08AFE38BD00BF08B5034686
:101E780080680021DA680B4601F056FC012814BF7F
:101E88000020012008BD00BF10B504468160002372
:101E98000360436001F026FCE06001F023FC206150
:101EA80001F020FCA06101F01DFC606110BD00BFC5
:101EB80000B583B08DF80710038803F040039BB288
:101EC800002BF9D09DF8071002F062F903B05DF815
:101ED80004FB00BF70B506460C4607E0254615F81A
:101EE800011B3046FFF7E4FF23782C46237813F0D4
:101EF800FF0FF3D170BD00BF10B504460368D86862
:101F080000214FF0FF320B4601F00EFC01281CD1D6
:101F180001F056FD236898686168FFF7DBFF2368C6
:101F2800986900210A460B4601F072FB2368D868BD
:101F380000210A460B4601F06BFBA06800210A4607
:101F48000B4601F065FB01F047FD002000F02EFF75
:101F580010BD00BF10B584B00446416001F0C2FB5B
:101F6800A06000214FF0FF320B4601F0DDFB012895
:101F780015D14FF0FF33E36008230093002301934A
:101F88000293039341F60170C0F6000048F2141161
:101F9800C0F600018022234600F066FE11E048F2F8
:101FA8002014C0F600044FF48050C4F2010021460A
:101FB800FFF790FF4FF48840C4F200002146FFF776
:101FC80089FF04B010BD00BF0EB430B582B004461E
:101FD800436863B106AA01921846059903F062FFA7
:101FE800054620466168FFF7B5FF284601E04FF037
:101FF800FF3002B0BDE8304003B0704740F6F853F8
:10200800C2F200031860704703E08B4208BF0270F9
:10201800013003780D2BF8D1704700BF30B400238E
:10202800C45CCD5CAC4203D1944203D00133F7E7E2
:10203800002000E0012030BC704700BF0023C15CD5
:10204800914202D019B10133F9E7184670474FF0B1
:10205800FF30704770B4054603782D2B14BF002657
:102068000126324600200AE0A3F13004E4B2092C2C
:1020780008D800EB8000303B03EB40000132AB5C3A
:102088008B42F1D106B1404270BC70472DE9F04F48
:10209800ADB004460F4601A848F25C11C0F6000135
:1020A8004C22FEF7D1F814AB299340F6F853C2F24C
:1020B80000031B682893204600213A46FFF7BEFF1D
:1020C8000130044420460321FFF7C4FF461E0A28B6
:1020D8000AD928A801A964224FF0FF33FFF774FF3B
:1020E80028A8FFF7C3FE82E0B6F1FF3F18BF4FF004
:1020F800000B23D10CE002EBC6035B68B3F1FF3F92
:1021080004D152F83630B3F1FF3F08D0013604E06D
:10211800002640F20C02C2F20002092EEBDD0A2E64
:102128000AD128A801A965224FF0FF33FFF74CFF19
:1021380028A8FFF79BFE5AE04FF0010B204600212C
:102148003A46FFF77BFF431C1C4400254FF0030869
:1021580040F20C09C2F2000909EBC60A38E02378FC
:10216800642B09D0702B0FD1013420464146FFF76C
:1021780071FF49F8360020E0013420464146FFF758
:1021880069FFCAF8040018E028A801A966224FF0E0
:10219800FF33FFF719FF28A8FFF768FEBBF1000F10
:1021A8000BD040F20C03C2F200034FF0FF3243F8A9
:1021B800362003EBC6035A6019E0204600213A4650
:1021C800FFF73CFFB0F1FF3F0BD0431C1C44013527
:1021D800012DCCBF00230123002808BF0023002BBA
:1021E800BDD128A801A90022731CFFF7EDFE2DB070
:1021F800BDE8F08F2DE9F04FADB004460F4602A8B8
:1022080048F2A811C0F600014822FEF71DF814ABE9
:10221800299340F6F853C2F200031B68289320461E
:1022280000213A46FFF70AFF013025182846032106
:10223800FFF710FF441E0A280AD928A802A9642219
:102248004FF0FF33FFF7C0FE28A8FFF70FFEA9E005
:10225800B4F1FF3F0AD00022019226E004EB4403C8
:1022680002EBC3035B6943B1013404E0002440F688
:10227800FC52C2F20002092CF0DD0A2C0AD128A86F
:1022880002A965224FF0FF33FFF79EFE28A8FFF74B
:10229800EDFD87E040F6FC53C2F2000304EB440274
:1022A80003EBC20301225A610192284600213A46F3
:1022B800FFF7C4FE431C1D4404F1010B40F6FC5318
:1022C800C2F2000304EB440243F832B000264FF098
:1022D800030A40F6FC53C2F2000303EBC209B046FE
:1022E8004EE02B78693B072B25D8DFE803F0142450
:1022F800240424241C0C013528465146FFF7AAFE65
:10230800C9F8040031E0013528465146FFF7A2FE1E
:10231800C9F80C0029E0013528465146FFF79AFE16
:10232800C9F8100021E0013528465146FFF792FE12
:10233800C9F8080019E028A802A966225B46FFF739
:1023480043FE019B6BB140F6FC52C2F200026000F2
:10235800011902EBC10100234B618B600B61CB605B
:102368004B6028A8FFF782FD1CE0284641463A4604
:10237800FFF764FEB0F1FF3F0BD0431C1D4401364C
:10238800042ECCBF00230123002808BF0023002B04
:10239800A7D128A802A900225B46FFF715FE28A8A6
:1023A800FFF764FD2DB0BDE8F08F00BF30B585B0F4
:1023B8000C4640F6F853C2F200031B680093051D53
:1023C800284648F2F011C0F600012246FFF726FE23
:1023D80020B128462146FFF759FE20E0284648F25A
:1023E800FC11C0F600012246FFF718FE20B128466E
:1023F8002146FFF7FFFE12E0284648F20421C0F606
:1024080000012246FFF70AFE48B9684648F218213B
:10241800C0F60001FFF79EFD6846FFF727FD05B0EF
:1024280030BD00BF10B584B004460A4640F6F853E4
:10243800C2F200031B6800930021FFF7FFFD013083
:1024480020440321FFF706FE441E092C07D96846DD
:1024580048F25C21C0F60001FFF77CFD12E06846F7
:1024680048F27C21C0F600012246FFF7ADFD40F29C
:102478000C03C2F200034FF0FF3243F8342003EBA1
:10248800C404626004B010BD30B585B004460A4685
:1024980040F6F853C2F200031B6800930021FFF7CF
:1024A800CDFD013020440321FFF7D4FD0246431E31
:1024B800092B07D9684648F29C21C0F60001FFF7AE
:1024C80049FD14E040F6FC54C2F200045800C51857
:1024D80004EBC50500216961A9602961E9606960AB
:1024E800684648F2B821C0F60001FFF76DFD05B057
:1024F80030BD00BF30B585B00D4640F6F853C2F286
:1025080000031B680093041D986848F2DC21C0F69C
:102518000001FFF7DFFC204648F2F011C0F6000189
:102528002A46FFF77BFD20B120462946FFF77AFFB0
:1025380021E0204648F2FC11C0F600012A46FFF7C8
:102548006DFD20B120462946FFF79EFF13E0204687
:1025580048F20421C0F600012A46FFF75FFD50B992
:10256800684648F2E421C0F600012246FFF72CFD38
:102578006846FFF77BFC05B030BD00BF00B5A3B0CF
:1025880040F6F853C2F200031B681E9305AB1F9375
:102598000268436881680091C168019101690291EC
:1025A800416903911EA848F20431C0F60001FFF703
:1025B8000BFD1EA8FFF75AFC23B05DF804FB00BF13
:1025C80000B595B040F6F853C2F200031B681093AB
:1025D80003AB11934A1C03684068009010A848F2A6
:1025E8005831C0F60001FFF7EFFC10A8FFF73EFCDA
:1025F80015B05DF804FB00BFF0B585B00E4640F697
:10260800F853C2F200031B680093051D284648F2E0
:10261800F011C0F600013246FFF700FDA0B32846CE
:1026280000213246FFF70AFD013005442846032100
:10263800FFF710FD411E092908D840F20C00C2F22C
:10264800000000EBC100FFF7BBFF1DE0B1F1FF3F49
:102658000FD106E007EBC4002146FFF7B1FF0134B4
:1026680004E0002440F20C07C2F20007092CF1DD57
:102678000AE0684648F27C31C0F60001FFF76AFCC0
:102688006846FFF7F3FB3CE0284648F2FC11C0F629
:1026980000013246FFF7C2FC98B3284600213246B3
:1026A800FFF7CCFC013028440321FFF7D3FC431E7D
:1026B80080B907E004EB440005EBC000FFF75EFFBC
:1026C800013404E0002440F6FC55C2F20005092C50
:1026D800F0DD16E0092B0AD803EB430340F6FC5063
:1026E800C2F2000000EBC300FFF748FF09E06846AC
:1026F80048F29C31C0F60001FFF72CFC6846FFF752
:10270800B5FB05B0F0BD00BF2DE9F04FB3B00446EE
:10271800884606A848F2B831C0F600014D22FDF7F8
:1027280093FD1AAB2F9340F6F853C2F200031B68CF
:102738002E93204600214246FFF780FC431C1C4490
:102748004FF00009CDF80C90CA464D4663264FF06D
:10275800030B4F463BE023786D2B13D0732B1ED011
:10276800682B18BF40F2911624D1013420465946EF
:10277800FFF770FC8246172884BFBA464FF4C87624
:1027880018D817E0013420465946FFF763FC039038
:102798003B2884BF03974FF4C8760BD80AE001346E
:1027A80020465946FFF756FC81463B2884BFB94668
:1027B8004FF4C876632E13D1204639464246FFF7B8
:1027C8003DFCB0F1FF3F0BD0431C1C440135032DE9
:1027D800CCBF00230123002808BF0023002BBAD157
:1027E800632E0FD105A800F045F900F089F80146DD
:1027F80005A800F045F90346504603994A4600F0FB
:1028080055F9002605A800F035F9039B0093CDF88B
:1028180004902EA806A932465346FFF7D5FB2EA8EA
:10282800FFF724FB33B0BDE8F08F00BF38B50C4686
:10283800C51D284648F20841C0F600012246FFF7A8
:10284800EDFB18B128462146FFF75EFF38BD00BFF3
:1028580030B585B005460C4640F6F853C2F2000381
:102868001B68009348F21041C0F600012246FFF7AA
:10287800D5FB28B128462146FFF7BEFE00203DE0E3
:10288800284648F21841C0F600012246FFF7C6FB69
:1028980028B128462146FFF789FD00202EE028466A
:1028A80048F22041C0F600012246FFF7B7FB28B1E5
:1028B80028462146FFF71EFE00201FE0284648F262
:1028C8002841C0F600012246FFF7A8FB28B1284698
:1028D8002146FFF7ABFF002010E02B78A34208BF8A
:1028E80000200BD0684648F23041C0F60001FFF7DF
:1028F80031FB6846FFF7BAFA0120FFE705B030BDA3
:1029080040F61C13C2F200031868704740F61C1307
:10291800C2F200031860704770B582B005460C46D5
:10292800002610E0304601A901F03AFBFFF7E8FF66
:10293800014601A800F0A4F8A3685B1B0344A36048
:102948002561A0616468002CECD102B070BD00BFA5
:1029580038B504460D46036813B900F0C3FE20607D
:10296800206800214FF0FF320B4600F0DDFE012801
:102978001ED12A680023636012B92C6038BD1A463C
:102988005368002BFBD15460206800214FF0FF32C0
:102998000B4600F0C9FE012814BF002501252DB102
:1029A800206800210A460B4600F032FE284638BD52
:1029B800002038BD70B582B004460D46164601F0B9
:1029C80009FA40F6F053C2F200031B6813B19DF8F0
:1029D80004201A6246F26763C6F2666383FB062127
:1029E800F217C2EBA10202EB8201A6EB410606EB4D
:1029F80002128DF8062083FB0521EA17C2EBA1021B
:102A080002EB8201A5EB410505EB02128DF80520CA
:102A180083FB0423E217C2EBA30303EB8302A4EBBB
:102A2800420404EB03138DF8043000238DF80730BB
:102A3800012001A901F068FA01F0FEF902B070BDA9
:102A480070B582B005460E46144601F0C3F98DF8FC
:102A580006608DF8055004238DF804308DF8074082
:102A680001200DEB030101F0BDFA01F0E5F902B018
:102A780070BD00BF08B50146002001F091FA08BDFD
:102A880010B44FF4A343C0F2010302784FF4616419
:102A980004FB02F203FB01214278C2EB021201EBB4
:102AA8008202807810445DF8044B7047F0B583B01B
:102AB80006460D46144600F083FF01A8FFF7DAFF2B
:102AC800FFF71EFF014601A8FFF7DAFF0746304669
:102AD80029462246FFF76EFF40F6F053C2F2000384
:102AE800196811B13846FFF717FF00F075FF03B0FA
:102AF800F0BD00BF10B50446006B01F0E5FB2046B1
:102B080001F0E2FB10BD00BF70B506460D4650202F
:102B180001F0D2FB044680B128461DB9B00001F08F
:102B2800CBFBFFE7206320B9204601F0CDFB002452
:102B380003E0A521B20001F081FE204670BD00BF70
:102B480038B5044615463430102201F0F1FE002352
:102B580084F84330042D28BF0425E5626564201DF0
:102B680000F074FE04F1180000F070FE2461C5F155
:102B78000505A56164620023A364E36438BD00BF52
:102B880038B5002440F62C15C2F2000506E004EB27
:102B9800840005EB800000F04DFE0134042CF6D9CA
:102BA80040F6E415C2F20005284600F043FE40F660
:102BB800F814C2F20004204600F03CFE40F6AC10C7
:102BC800C2F2000000F036FE40F69410C2F2000097
:102BD80000F030FE40F6D010C2F2000000F02AFEED
:102BE80040F6A813C2F200031D6040F69013C2F22B
:102BF80000031C6038BD00BF10B5044640F6CC1376
:102C0800C2F200031B68586040F62023C2F200039A
:102C18001B6898420DD240F69013C2F20003186860
:102C280040F6CC13C2F200031968043100F020FE0C
:102C380010BD40F6A813C2F20003186840F6CC1382
:102C4800C2F200031968043100F012FE40F25C037E
:102C5800C2F200031B689C423EBF40F25C03C2F212
:102C680000031C6010BD00BF2DE9F04F83B0824601
:102C78008B46154699460C9EDDF8348010460E9911
:102C8800FFF742FF0446002877D0036B05F1804721
:102C9800013F03EB870727F007070095594632469F
:102CA8000F9BFFF74DFF384651464A4600F03CFE61
:102CB8002060B8F1000F01D0C8F8004000F080FE95
:102CC80040F62813C2F200031A6801321A6040F66F
:102CD800CC13C2F200031B6873B940F6CC13C2F2DE
:102CE80000031C6040F62813C2F200031B68012B86
:102CF80015D1FFF745FF12E040F6C013C2F20003FA
:102D08001B6863B940F6CC13C2F200031B68DB6A88
:102D1800B3429EBF40F6CC13C2F200031C60E36AC4
:102D280040F62422C2F200021268934282BF40F6A3
:102D38002422C2F20002136040F60C21C2F2000104
:102D48000A6801320A6040F62011C2F200010A68DE
:102D5800934282BF40F620120A46136040F62C10B8
:102D6800C2F2000003EB830300EB8300211D00F097
:102D780071FD00F031FE012401E04FF0FF34012C19
:102D88000FD140F6C013C2F200031B684BB140F6E6
:102D9800CC13C2F200031B68DB6AB34201D200F015
:102DA80007FE204603B0BDE8F08F00BF70B50446AB
:102DB80000F006FE40F6CC13C2F200031B689C42EA
:102DC80008BF002425462CB940F6CC13C2F20003F4
:102DD8001D68FFE72E1D304600F066FDAB6A1BB18B
:102DE80005F1180000F060FD40F69410C2F20000F2
:102DF800314600F02FFD40F62413C2F200031A6892
:102E080001321A6040F60C23C2F200031A6801323C
:102E18001A6000F0E1FD40F6C013C2F200031B681F
:102E280013B10CB900F0C4FD70BD00BF10B5044665
:102E380000F0C6FD24B940F6CC13C2F200031C68AA
:102E4800E46A00F0C9FD204610BD00BF00B585B09A
:102E58000023009340F61022C2F20002019202936E
:102E6800039343F2D910C0F6000048F2B841C0F607
:102E780000014FF48072FFF7F7FE012813D14FF0DD
:102E8800BF0080F3118840F6C013C2F2000301228C
:102E98001A6040F62023C2F2000300221A60FEF7EF
:102EA8000FFA00F061FD05B05DF804FB40F614234D
:102EB800C2F200031A6801321A60704710B500F0B8
:102EC8007FFD40F62023C2F200031C6800F084FD59
:102ED800204610BD2DE9F84340F61423C2F2000342
:102EE8001B68002B40F0828040F62023C2F20003CA
:102EF8001A6801321A601B6853BB40F6A813C2F265
:102F08000003196840F69012C2F2000210681860B7
:102F1800116040F61C22C2F20002116801311160F2
:102F28001B681B683BB940F25C03C2F200034FF018
:102F3800FF321A600CE040F6A813C2F200031B68C7
:102F4800DB68DB685A6840F25C03C2F200031A606F
:102F580040F62023C2F200031A6840F25C03C2F272
:102F680000031B689A4248D340F6A816C2F200062E
:102F780040F62028C2F2000840F62017C2F20007E7
:102F880040F62C19C2F2000933681B6843B940F2B5
:102F98005C03C2F200034FF0FF321A60BDE8F88309
:102FA8003368DB68DC686368D8F800209A4206D288
:102FB80040F25C02C2F200021360BDE8F883251DEE
:102FC800284600F071FCA36A1BB104F1180000F058
:102FD8006BFCE36A3A68934288BF3B6003EB83006B
:102FE80009EB8000294600F035FCCDE740F61823B0
:102FF800C2F200031A6801321A60BDE8F88300BF04
:103008002DE9F04700F0DCFC40F61423C2F200037F
:103018001A68013A1A601B680024002B65D140F633
:103028002813C2F200031B680BBB00245DE0F368A1
:10303800DC6804F1180000F037FC251D284600F074
:1030480033FCE36AD8F80020934288BFC8F8003000
:1030580003EB83000AEB8000294600F0FBFBE26AE1
:10306800D9F80030DB6A9A4228BF012710E0002710
:1030780040F6AC16C2F2000640F62018C2F200086C
:1030880040F62C1AC2F2000A40F6CC19C2F2000926
:103098003368002BCBD140F61823C2F200031B681B
:1030A80033B90DE0FFF716FF2368013B236003E007
:1030B80040F61824C2F200042368002BF2D101273D
:1030C800012F08D040F6C813C2F200031B68012B79
:1030D80018BF002409D140F6C813C2F20003002229
:1030E8001A6000F065FC0124FFE700F075FC20463B
:1030F800BDE8F08738B505460C46FFF7D7FE2B68C4
:103108001C4440F62022C2F20002126893420DD9F4
:10311800A34298BF002317D940F62023C2F2000328
:103128001B689C4294BF002301230DE0A34288BF83
:10313800012309D840F62023C2F200031B689C42F1
:1031480094BF00230123FFE72C6053B140F6CC1352
:10315800C2F200031868043000F0A6FB2046FFF70F
:103168004BFDFFF74DFF08B900F022FC38BD00BF4A
:1031780010B540F62413C2F200031B683BB3FFF7F7
:1031880095FE40F69413C2F200031C68FFF738FF5F
:10319800ECB100F015FC40F69413C2F20003DB68B2
:1031A800DC68201D00F080FB40F62813C2F2000303
:1031B8001A68013A1A6040F62413C2F200031A682A
:1031C800013A1A6000F008FC2046FFF793FC10BD96
:1031D80008B540F62C14C2F20004FFF7C9FF2368B3
:1031E800012BFAD900F0E4FBF7E700BF10B540F671
:1031F8001423C2F200031B6833B140F6C813C2F2AD
:10320800000301221A6010BDFEF70EF840F6CC1339
:10321800C2F200031A6840F6C413C2F20003196828
:10322800441AD16C2144D164186040F62013C2F2CC
:10323800000340F62C11C2F2000102E01A68013ABC
:103248001A601A6802EB820251F82220002AF5D08F
:1032580040F62013C2F200031B6840F62C12C2F29B
:10326800000203EB830302EB83035A6852685A6037
:1032780003F108018A4204BF52685A605B68DA6841
:1032880040F6CC13C2F200031A601B689A6C4FF424
:10329800E843C4F20003DA6010BD00BF38B50D463C
:1032A80040F6CC14C2F200042168183100F0E0FAAC
:1032B8002068043000F0F8FAB5F1FF3F08D1216822
:1032C80040F6D010C2F20000043100F0C3FA38BD55
:1032D80040F62023C2F2000318682844FFF78CFC4C
:1032E80038BD00BF38B5C368DC6804F11805284646
:1032F80000F0DAFA40F61423C2F200031B68E3B9BF
:10330800251D284600F0D0FAE36A40F62012C2F2E2
:1033180000021268934282BF40F62012C2F20002F5
:10332800136040F62C10C2F2000003EB830300EB9D
:103338008300294600F08EFA06E040F6AC10C2F28F
:103348000000294600F086FAE06A40F6CC13C2F283
:1033580000031B68DB6A984234BF0020012038BD97
:1033680040F61C23C2F200031B68036040F62023CA
:10337800C2F200031B684360704700BF38B50446BB
:103388000D4600F01DFB2A68B2F1FF3F08BF00247C
:1033980029D0216840F61C23C2F200031B68994219
:1033A80009D0616840F62023C2F200031B689942E5
:1033B80098BF012417D940F62023C2F200031968E8
:1033C8006368C91A8A4298BF01240CD940F62021A3
:1033D800C2F2000109685B1A1A442A602046FFF706
:1033E800BFFF0024FFE700F0F7FA204638BD00BF12
:1033F80040F6C813C2F2000301221A60704700BFEA
:1034080040F6CC13C2F200031868704738B504467A
:10341800C26A40F6CC13C2F200031B68DB6A9A4208
:103428003DD240F6CC13C2F200031B68DB6AC3F13D
:1034380005038361416940F62C13C2F2000302EBD5
:10344800820203EB8203994222D1051D284600F02F
:103458002BFA40F6CC13C2F200031B68DB6AE36266
:1034680040F62012C2F200021268934282BF40F670
:103478002012C2F20002136040F62C10C2F20000C3
:1034880003EB830300EB8300294600F0E3F938BD22
:1034980040F6CC13C2F200031B68DB6AC36238BD76
:1034A80038B5044618B3C26A436C9A421FD0051D4A
:1034B800284600F0F9F9636CE362C3F10502A261E2
:1034C80040F62012C2F200021268934282BF40F610
:1034D8002012C2F20002136040F62C10C2F2000063
:1034E80003EB830300EB8300294600F0B3F938BDF2
:1034F80010B5044600F064FAA26BE36B9A4214BF5D
:103508000024012400F068FA204610BD10B50446D6
:1035180000F056FAA46BD4F1010438BF002400F07F
:103528005BFA204610BD00BF10B50446036C3BB9DA
:1035380003681BBB4068FFF7B3FF002363601DE00F
:103548006AB980681A46FCF77FFEA268236C1344A8
:10355800A3606268934211D32368A3600EE0C06839
:103568001A46FCF771FE226C5242E3681344E3608A
:1035780021688B423EBF6368D218E260A36B0133B7
:10358800A36310BD38B5034605685DB1026CC46815
:103598001444C4604068844228BFDD600846D96886
:1035A800FCF752FE38BD00BF38B5044600F008FAF3
:1035B80004F124050AE0636A5BB12846FFF792FE2E
:1035C80008B1FFF715FFA36C013BA364A36C002BA4
:1035D800F1DC4FF0FF33A36400F0FEF900F0F0F9DE
:1035E80004F110050AE023695BB12846FFF77AFE6B
:1035F80008B1FFF7FDFE636C013B6364636C002B4D
:10360800F1DC4FF0FF33636400F0E6F938BD00BF2A
:103618002DE9F04F85B004468B4601929A46002664
:103628004FF00109374600F1100800F0C9F9A36B03
:10363800E56BAB4212D2204659465246FFF774FF5B
:10364800636A3BB104F12400FFF74CFE012801D165
:1036580000F0AEF900F0C0F901203FE0019B1BB972
:1036680000F0BAF9002039E01EB902A8FFF778FE89
:103678004E4600F0B1F9FFF719FC00F0A1F9636CB0
:10368800B3F1FF3F08BF6764A36CB3F1FF3F08BF06
:10369800A76400F0A1F902A801A9FFF76FFEB8B965
:1036A8002046FFF725FF68B140460199FFF7F6FD70
:1036B8002046FFF779FFFFF7A3FC0028B5D100F0FB
:1036C80077F9B2E72046FFF76FFFFFF799FCACE701
:1036D8002046FFF769FFFFF793FC002005B0BDE81F
:1036E800F08F00BF38B54C2000F0E6FD0446C8B1A5
:1036F8000025456005608560C56085630123C36357
:1037080005644FF0FF3343648364103000F092F88F
:1037180004F1240000F08EF8204629462A462B465C
:10372800FFF776FF204638BD2DE9F04784B0044600
:103738008A460192994600254FF001082F4600F16C
:10374800240600F03DF9A26B42B3E56820465146D5
:10375800FFF718FFB9F1000F12D1A36B013BA36368
:10376800236813B9FFF74CFE6060236993B104F135
:103778001000FFF7B7FD01280CD100F019F909E096
:10378800E560636A33B104F12400FFF7ABFD08B1CB
:1037980000F00EF900F020F9012048E0019B1BB968
:1037A80000F01AF9002042E01DB902A8FFF7D8FD81
:1037B800454600F011F9FFF779FB00F001F9636C59
:1037C800B3F1FF3F08BF6764A36CB3F1FF3F08BFC5
:1037D800A76400F001F902A801A9FFF7CFFD00BB1B
:1037E8002046FFF793FEB0B1236833B900F0E8F83C
:1037F8006068FFF70BFE00F0EFF830460199FFF71D
:103808004DFD2046FFF7D0FEFFF7FAFB002898D1C0
:1038180000F0CEF895E72046FFF7C6FEFFF7F0FB6D
:103828008FE72046FFF7C0FEFFF7EAFB002004B051
:10383800BDE8F08700F1080343604FF0FF32826073
:10384800C360036100230360704700BF0023036166
:10385800704700BF43685A684A6042688A605A687D
:1038680091605960416008610368013303607047E3
:1038780010B40C68B4F1FF3F0CBF036900F10803F2
:1038880001D104E05B685A681268A242FAD95A6802
:103898004A6091608B605960086103680133036076
:1038A8005DF8044B704700BF436882689A6083687C
:1038B80042685A6003695A68824204BF82685A6043
:1038C800002202611A68013A1A60704703480068CA
:1038D800006880F3088862B600DF00BF08ED00E0EA
:1038E80040F20403C2F200031A6844F6D353C1F24B
:1038F8006203A3FB02129209013A4EF21403CEF2BC
:1039080000031A604EF21003CEF2000307221A6079
:10391800704700BFDFF80C00016841F470010160D6
:103928007047000088ED00E04FF0807340F8043CD9
:1039380040F8081C002340F80C3C40F8202C6FF09D
:10394800020340F8243C4438704700BF054B19680F
:103958000868B0E8F04F80F309884FF0000080F362
:1039680011887047CC09002010B54EF62053CEF2CE
:1039780000031A6842F47F021A601A6842F07F4214
:103988001A60FFF7ADFF40F26003C2F200030024A3
:103998001C60FFF7BFFF4EF63473CEF200031A68BF
:1039A80042F040421A60FFF791FF204610BD00BF69
:1039B8004EF60453CEF200034FF080521A6070475F
:1039C8004FF0BF0080F3118840F26003C2F2000399
:1039D8001A6801321A60704740F26003C2F20003AD
:1039E8001A68013A1A601AB94FF0000080F311887A
:1039F800704700BFEFF30980114B1A681EF0100FD3
:103A080008BF20ED108A20E9F04F10602DE908402A
:103A18004FF0BF0080F31188FFF7E8FB4FF000007C
:103A280080F31188BDE8084019680868B0E8F04FCD
:103A38001EF0100F08BFB0EC108A80F30988704799
:103A4800CC09002008B54EF60453CEF200034FF01F
:103A580080521A604FF0BF0080F31188FFF73AFADE
:103A68004FF0000080F3118808BD00BF10B4C37880
:103A78004BB34FF46D43CEF20003DB68DB43C3F373
:103A88000223C3F10402D2B20F2141FA03F34178B1
:103A980001FA02F2D2B2847803EA0401114309015F
:103AA800C9B202784FF46143CEF200031A4482F897
:103AB80000130278510902F01F02012000FA02F2F5
:103AC80043F821200CE003785A0903F01F03012171
:103AD80099404FF46143CEF20003203243F822109C
:103AE8005DF8044B704700BFF0B40023012503269E
:103AF8003EE005FA03F20C681440944237D1076897
:103B08005A0006FA02F4E44327400760D0F800C0E0
:103B18000F7997404CEA070707600F79013FFFB21A
:103B2800012F16D887683C40846087684C79944098
:103B38003C43846047689CB205FA04FC27EA0C07FA
:103B48004760476891F806C00CFA04F4A4B23C43F5
:103B58004460C7689CB2640006FA04F427EA0404C7
:103B6800C460C468CF7907FA02F22243C260013305
:103B78000F2BBED9F0BC7047018370474183704753
:103B880030B401F007039B009A40C908083150F887
:103B980021400F2505FA03F324EA030340F82130F6
:103BA80050F821301A4340F8212030BC704700BF3C
:103BB8002023C4F20E231860704700BF4FF46863D7
:103BC800C4F247231860704710B44FF46053C4F22E
:103BD80002039B6803F00C03042B09D0082B0DD0BB
:103BE800002B36D14FF41053C0F2F403036035E0D4
:103BF8004FF49053C0F27A0303602FE04FF4605300
:103C0800C4F202035A685B6803F03F0312F4800FA2
:103C180019BF4FF49051C0F27A014FF41051C0F21D
:103C2800F401B1FBF3F34FF46052C4F2020251689D
:103C3800C1F3881101FB03F14FF46053C4F202038E
:103C48005A68C2F3014201325200B1FBF2F3036039
:103C580004E04FF41053C0F2F40303604FF46052D1
:103C6800C4F202029168C1F3031140F26403C2F284
:103C78000003595CC9B2046824FA01F141609468F0
:103C8800C4F382241C5DE4B221FA04F484609268CF
:103C9800C2F342329B5CDBB2D940C1605DF8044B91
:103CA800704700BF00F44073B3F5407F0CD14FF468
:103CB8006053C4F20203996821F4F81120F07042AD
:103CC80022F440720A439A604FF46053C4F202032C
:103CD8001A6FC0F30B0010431867704740F63C6337
:103CE800C4F247231860704739B14FF46053C4F2E7
:103CF80002031A6B1043186370474FF46053C4F201
:103D080002031A6B22EA00001863704739B14FF4B6
:103D18006053C4F202031A6C1043186470474FF4DE
:103D28006053C4F202031A6C22EA00001864704758
:103D380039B14FF46053C4F202035A6C104358640B
:103D480070474FF46053C4F202035A6C22EA000031
:103D5800586470474309012B05D14FF46053C4F2EE
:103D680002031B6807E0022B4FF46053C4F20203FE
:103D78000CBF1B6F5B6F00F01F0023FA00F000F010
:103D880001007047002303E00133DBB20A38C0B2F8
:103D98000928F9D81B01DBB218437047030903EB64
:103DA80083035B00DBB200F00F001844C0B2704719
:103DB80030B14FF42053C4F20003FF225A62704717
:103DC8004FF42053C4F20003CA225A6253225A62A3
:103DD800704700BF82B0002301934FF42053C4F210
:103DE8000003DB6813F0400F18BF012021D14FF406
:103DF8002053C4F200034FF0FF32DA604FF4205131
:103E0800C4F20001CB6803F04002019B0133019327
:103E1800019BB3F5803F01D0002AF3D04FF4205323
:103E2800C4F20003D86800F04000003018BF012039
:103E3800FFE702B0704700BF4FF42053C4F20003FD
:103E4800DA6822F08002DA60704700BF10B50446D5
:103E58004FF42053C4F20003CA225A6253225A6212
:103E6800FFF7B8FFB0B14FF42053C4F200039A68CB
:103E780022F040029A60996822680A439A60A26810
:103E88001A611A69616842EA01421A61FFF7D4FFB0
:103E9800012000E000204FF42053C4F20003FF2269
:103EA8005A6210BD82B0002301934FF42053C4F22C
:103EB8000003CA225A6253225A62DA6822F0A00228
:103EC800DA604FF42051C4F20001CB6803F02002FD
:103ED800019B01330193019BB3F5003F01D0002AF8
:103EE800F3D04FF42053C4F20003D86800F0200048
:103EF8004FF42053C4F20003FF225A62003018BF67
:103F0800012002B0704700BF38B50C464FF420526C
:103F1800C4F20002926812F0400F04BF0022CA7077
:103F280050B10A784B781B0243EA02438A7813435C
:103F3800CC7843EA04440FE00878FFF723FF050430
:103F48006078FFF71FFF45EA0025A078FFF71AFF02
:103F58002843E47840EA04444FF42053C4F20003B1
:103F6800CA225A6253225A62FFF734FF80B104F022
:103F78007F3424F0FE444FF42053C4F200031C6045
:103F8800FFF75AFFFFF78EFF003018BF012000E04F
:103F980000204FF42053C4F20003FF225A6238BDB8
:103FA80070B50C464FF42053C4F200031B68C3F3EA
:103FB80005420A70C3F306264E7003F07F058D7024
:103FC80003F480031B0CCB7058B91046FFF7E6FECC
:103FD80020703046FFF7E2FE60702846FFF7DEFEED
:103FE800A07070BD38B50C46034638B94A7812F04F
:103FF800100F1EBF22F010020A324A7053B1E27845
:1040080063781B0243EA0243A2781343247843EA05
:1040180044340FE0E078FFF7B5FE05046078FFF759
:10402800B1FE45EA0025A078FFF7ACFE28432478C6
:1040380040EA44344FF42053C4F20003CA225A62BF
:1040480053225A62FFF7C6FE80B124F07F4424F061
:10405800C0044FF42053C4F200035C60FFF7ECFE89
:10406800FFF720FF003018BF012000E000204FF4C8
:104078002053C4F20003FF225A6238BD29B10388D5
:104088009BB243F0010303807047038823F00103C8
:104098001B041B0C0380704730B585B004460D46E1
:1040A800038A23F440531B041B0CCA88134303825E
:1040B800838923F4B05323F00C031B041B0C88885A
:1040C8000A89498902430A431343A381A38A23F433
:1040D80040731B041B0CAA891343A3826846FFF78D
:1040E80073FD4FF48052C4F201024FF4A053C4F29E
:1040F80001039C4218BF94420CBF039A029AA389F9
:104108001BB2002B02EB820202EB8202BDBF2B68BE
:104118005B00B2FBF3F22968A4BF8900B2FBF1F29D
:1041280048F21F53C5F2EB13A3FB02135B091D01F1
:10413800642003FB1023A08900B200280BDADB00FF
:10414800323348F21F51C5F2EB11A1FB0321C1F331
:10415800421129430AE01B01323348F21F51C5F2CC
:10416800EB11A1FB0321C1F34311294389B221813A
:1041780005B030BD29B183899BB243F400538381D4
:104188007047838923F400531B041B0C83817047F9
:10419800C1F308018180704710B4C1F3421301F0E4
:1041A8001F01012404FA01F1A34208BF0C3003D017
:1041B800022B0CBF103014301AB103681943016088
:1041C80003E0036823EA010101605DF8044B7047CE
:1041D80010B4C1F3421301F01F0201249440012BD3
:1041E80003D1828992B2224005E0022B0CBF028AD9
:1041F800828A92B22240090A012303FA01F1038854
:104208009BB20B420CBF00230123002A0CBF0020E5
:1042180003F001005DF8044B704700BF0146002021
:104228000246034601F04CBE38B548F2706448F2C5
:104238006C65C0F60005C0F60004641BA41018BF26
:1042480005EB840505D0013C55F8043D9847002C42
:10425800F9D1BDE8384004F0F7B900BF70B548F2AD
:10426800646648F26465C0F60005C0F60006761B71
:10427800B6101CBF043D002405D0013455F8043F96
:104288009847A642F9D148F26C6648F26465C0F6D0
:104298000005C0F60006761B04F0D0F9B6101CBF66
:1042A800043D002406D0013455F8043F9847A6423F
:1042B800F9D170BD70BD00BF40F2A043C2F2000347
:1042C8000146186800F008B840F2A043C2F20003A3
:1042D8000146186802F0EABE2DE9F04F01F10B051E
:1042E800162D87BF25F00705EB0F002310258D42FB
:1042F8002CBF194643F0010183B00746002940F05E
:10430800B580FDF78DFDB5F5FC7F1FD240F2A446C0
:10431800C2F200064FEAD50C06EBCC03DC689C42DF
:1043280000F0F4816368E268A16823F00303234482
:1043380038465D68CA6045F0010591605D60FDF72B
:1043480073FD0834204603B0BDE8F08F5FEA552CB2
:1043580004BF7E214FF03F0C40F08F8040F2A4460E
:10436800C2F2000606EB8101CC68A14206D10DE03D
:10437800002B80F26381E468A14207D0626822F0D2
:104388000302531B0F2BF3DD0CF1FF3C0CF1010C66
:1043980040F2A443C2F20003346903F1080E7445E5
:1043A80008BF5A6822D0616821F003014A1B0F2A0E
:1043B80000F39081002AC3F814E0C3F810E067DA2C
:1043C800B1F5007F80F05F81C90803EBC1004FEAB7
:1043D800A1085A688168E0604FF0010909FA08F8F5
:1043E80048EA0202A1605A608460CC604FEAAC03DC
:1043F80001209840904258D8024206D12CF0030C74
:10440800400002420CF1040CFAD006EBCC084446FA
:10441800E146E3689C4207D16FE1002A80F280817F
:10442800DB689C4200F06981596821F003014A1B4E
:104438000F2AF2DD1C46D3F80CC054F8088F59191E
:1044480045F0010942F00105C3F804903846C8F860
:104458000CC0CCF8088071613161C1F80CE0C1F87A
:1044680008E04D608A50FDF7DFFC6BE70C23002461
:104478000360204603B0BDE8F08FBCF1040F00F2E2
:10448800EE804FEA951C0CF1380C4FEA4C0165E7B9
:10449800214438464B6843F001034B60FDF7C4FCE8
:1044A8000834204603B0BDE8F08FB468636823F091
:1044B80003094D4504D8C5EB09030F2B00F3AE8063
:1044C80040F6302340F6B00AC2F20003C2F2000AF6
:1044D8001B68DAF800102B4401311DBF03F5805327
:1044E8000F3323F47F6303F1100C18BF23F00F0C74
:1044F80004EB0902614638460192CDF800C0FDF789
:1045080061FCB0F1FF3F8046019ADDF800C000F081
:104518001D81824200F2178140F6342BC2F2000B53
:104528004245DBF800306344CBF8003000F05D8191
:10453800DAF8000040F6B001013018BFC2EB0802FB
:10454800C2F2000116BF9B18C1F80080CBF80030FA
:1045580018F007031FBFC3F108029044C3F5805346
:1045680003F1080A08EB0C0308BF4FF4805AC3F3A1
:104578000B03C3EB0A0A51463846FDF723FC431CDC
:1045880018BFC8EB0002DBF80030C6F8088015BF7A
:1045980052444FF0000A42F0010201225344B4424F
:1045A80040F6342AC8F80420CBF80030C2F2000ADA
:1045B80015D0B9F10F0F40F2F8806168A9F10C022B
:1045C80022F0070201F0010EA118052042EA0E0EA2
:1045D8000F2AC4F804E04860886000F2128140F6AF
:1045E8002C22C2F20002B46811688B4288BF1360A3
:1045F80040F62822C2F2000211688B4288BF13607D
:10460800626822F003029542C5EB020301D80F2B22
:1046180004DC3846FDF708FC002493E6621943F0F1
:10462800010345F0010565603846B2605360FDF747
:10463800FBFB0834204603B0BDE8F08F2244E36852
:104648005068A16840F00105CB6038469960556014
:10465800FDF7EAFB0834204603B0BDE8F08FBCF153
:10466800140F9CBF0CF15B0C4FEA4C017FF676AE41
:10467800BCF1540F00F28F804FEA153C0CF16E0C20
:104688004FEA4C016AE64B0A042B58D9142B9CBFFD
:1046980003F15B02500005D9542B00F2BA800A0BD3
:1046A8006E32500006EB800040F2A44883688342D3
:1046B800C2F200087FD05A6822F00302914202D267
:1046C8009B689842F7D1D9687268E160A3608C60F2
:1046D800DC608BE6611942F0010645F00105656072
:1046E800384659611961C1F80CE0C1F808E04E601C
:1046F8008A500834FDF798FB24E609F1010919F0FE
:10470800030F04F108047FF484AE28E004F10803E1
:104718006469A34208BF0CF1020C3FF439AE01E60C
:1047280019441C464868DB6854F8082F40F0010516
:104738004D603846D3609A60FDF776FB02E68A0939
:1047480038325000AEE7B4423FF4E6AEB46862686F
:1047580022F0030257E7D8F8008098456BD11CF087
:10476800030FA8F108030CF1FF3CF4D1736823EAA6
:1047780000037360400098423FF697AE00283FF46C
:1047880094AE0342CC467FF440AE400003420CF1A5
:10479800040CFAD039E6BCF5AA7F17D84FEAD53C05
:1047A8000CF1770C4FEA4C01D8E50123C8F8043026
:1047B8004446002227E791100120D8F8042000FA87
:1047C80001F10A43C8F8042019467EE740F2545321
:1047D8009C459DBF4FEA954C0CF17C0C4FEA4C016F
:1047E800FC2188BF4FF07E0CB8E5C2F30B0100290D
:1047F8007FF49EAE0CEB0901B26841F001015160F3
:10480800EDE604F10801384602F050FCDAF8003011
:10481800E5E6B3F5AA7F03D8CA0B7732500041E723
:1048280040F2545293429DBF8A0C7C325000FC20C7
:1048380088BF7E2236E773689CE700BFF0B4840720
:1048480043D0541E002A3ED0CDB2034603E0621E78
:10485800002C38D0144603F8015B9A07F7D1032CD3
:104868002AD9CDB245EA05250F2C45EA054515D9C3
:10487800A4F110073F0903F1100606EB07161A46C4
:10488800156055609560D5601032B242F8D104F0D9
:104898000F040137032C03EB07130DD91E462246DC
:1048A800043A032A46F8045BFAD8221F22F00302CE
:1048B8000432134404F003042CB1C9B21C4403F8B5
:1048C800011BA342FBD1F0BC704714460346C6E760
:1048D80020F0030110F00300C0F1000051F8043B80
:1048E80000F1040C4FEACC0C6FF000021CBF22FA56
:1048F8000CF213434FF0010C4CEA0C2C4CEA0C4C14
:10490800A3EB0C0222EA030212EACC1204BF51F80C
:10491800043B0430F4D013F0FF0F1FBF013013F431
:104928007F4F013013F47F0F18BF0130704700BF6D
:1049380040EA01039B0770B42BD1032A84BF0C46BD
:10494800034626D9214654F8045BA5F1013626EA28
:10495800050616F0803F05D1043A032A43F8045BA4
:104968002146EFD89AB10C78013A1C7001333CB15A
:104978006AB111F8014F013A03F8014B002CF7D145
:104988002AB11A44002103F8011B9342FBD170BCE1
:1049980070470346E6E700BF2DE9F04FC7B09346DE
:1049A8000A9113930F9002F04FFC00681990FFF7DB
:1049B8008FFF0A9C1C90A389190603D52369002B35
:1049C80001F07F800DF1D70436AD07940895079D57
:1049D800CDF82CB036A8441B48F2C8491F9448F2B9
:1049E800185548F21C540023C0F60004C0F600090C
:1049F800C0F6000510932B932A931A931B931893D0
:104A08001D93119329901594169506464F460B9CB5
:104A18002378252B18BF002B00F0B380621C1446A6
:104A280001322378252B18BF002BF8D10B98251AB3
:104A38000FD02A9B2B9A306001332A44072B7560CC
:104A48002B922A93D8BF083600F381801199294404
:104A580011912378002B00F082800023651C94F8C4
:104A680001908DF887304FF0FF341A46129309935E
:104A78000B950C942B460133A9F12001582900F21B
:104A88000284DFE811F0E40300040004EB030004EF
:104A980000040004000400040004F2039903000465
:104AA8005D002D0200046C0273027302730273022C
:104AB8007302730273027302730200040004000499
:104AC80000040004000400040004000400044E0272
:104AD8008B0200048B02000400040004000484021A
:104AE80000040004C80200040004000400040004D8
:104AF800E30200040004FB020004000400040004B4
:104B08000004000400040004000400042203380325
:104B18008B028B028B02DD033803000400049D0323
:104B28000004B1031C02C50350030004570300042A
:104B38008000000400047F03129C139164421294C5
:104B4800099D45F00405099593F8009093E70F989F
:104B58000A9929AA02F002FF40B936AE76E72B9BE4
:104B680023B10F980A9929AA02F0F8FE0A9C119815
:104B7800A38913F0400F18BF4FF0FF3047B0BDE8CE
:104B8800F08F0B9C65E7099C0B93A30640F16782A5
:104B9800139DEB1D23F0070303F108041394D3E9D5
:104BA800004501234FF0000A8DF887A00C9A002ACF
:104BB800A2BF099820F08000099054EA05010C98DA
:104BC8000CBF00220122002818BF42F00102002A6F
:104BD80000F0DF83012B00F00C85022B0DF1D702CA
:104BE80040F05181189804F00F012309904643EAD8
:104BF8000573425C29091C460D4654EA050188F8EC
:104C0800002008F1FF32EED1089BC8EB03030E9396
:104C18000C9C0E9DA542B8BF254600240D951794FF
:104C2800BAF1000F02D00D9C01340D94099D15F0C6
:104C3800020B18BF0D9C099D1CBF02340D9415F082
:104C48008405149540F03483129D0D982C1A002C7D
:104C580040F32E83102C48F21C5A40F3D687304676
:104C68001E972B992A9A159E2746C0F6000A1025EA
:104C78000F9C02E0103F102F17DD01321031072A78
:104C8800066045602B912A92D8BF0830F2DD204695
:104C98000A9929AA02F062FE00287FF467AF103F44
:104CA800102F2B992A9A36A8E7DC3C461E9F064609
:104CB80001322144072A2B912A92C6F800A0746079
:104CC80000F3A5849DF887A008360C46BAF1000FBA
:104CD8000ED02A9B013301340DF187010122072BE5
:104CE80086E806002B942A93D8BF083600F3E282A0
:104CF800BBF1000F0DD02A9B0133023422A90222F6
:104D0800072B86E806002B942A93D8BF083600F3B1
:104D18000D84149B802B00F04F830C9D0E9BC3EBDE
:104D2800050ABAF1000F44DDBAF1100F48F2C84580
:104D3800DCBFC0F600052A9B27DDC0F60005224629
:104D48002A9B54464FF0100BAA460F9D02E0103CD8
:104D5800102C17DD01331032072B86E880082B92C0
:104D68002A93D8BF0836F2DD28460A9929AA02F004
:104D7800F5FD00287FF4FAAE103C102C2B9A2A9BE4
:104D880036AEE7DC5546A246144601335444072B99
:104D980086E820042B942A93D8BF083609DD0F989B
:104DA8000A9929AA02F0DAFD00287FF4DFAE2B9CCD
:104DB80036AE099DEA0500F188822A9B0E9DC6F849
:104DC800008001332C44072B2B9475602A9300F341
:104DD80093830836099D6B0746D512980D99451A95
:104DE800002D41DD102D48F21C5ADCBFC0F6000A28
:104DF8002A9B27DD09972A9BDDF83C90DDF828B02F
:104E0800159FC0F6000A4FF0100802E0103D102D63
:104E180017DD01331034072B86E880012B942A9381
:104E2800D8BF0836F2DD4846594629AA02F096FD51
:104E380000287FF49BAE103D102D2B9C2A9B36AE8C
:104E4800E7DC099F01332C44072B2B942A93C6F8DF
:104E580000A0756008DD0F980A9929AA02F07EFD66
:104E680000287FF483AE2B9C119D0D9912988142E6
:104E7800ACBF6D182D181195002C40F04883002305
:104E88002A9336AEC3E5E308904643EA4573EA0839
:104E980004F0070115461C4601F1300354EA0501E8
:104EA80088F8003008F1FF32EDD1099CE00741464F
:104EB80000F1FF84089DC8EB05050E95A8E6099D3D
:104EC8000B9315F0200300F0B080139CE31D23F032
:104ED800070303F108051395D3E90045002361E6AC
:104EE80093F80090B9F12A0F03F1010000F0A287AE
:104EF800A9F13001092982BF002403460C943FF62A
:104F0800BBAD002310F8019B03EB830301EB4303C4
:104F1800A9F130010929F5D943EAE3730C93034653
:104F2800AAE5099D8DF8872045F010050995099C8B
:104F38000B93A20640F1E680139DE91D21F00701BD
:104F4800D1E900230831139114461D46002A73F154
:104F58000001C0F2CF839DF887A0012326E6099CB3
:104F680044F08004099493F8009084E50025A9F1A1
:104F780030011295284613F8019B00EB800001EBE5
:104F88004000A9F130010929F5D9129074E5099C6E
:104F980044F00804099493F800906CE5099C0B937D
:104FA80024078DF8872040F1AE84139DEB1D23F074
:104FB800070303F108041D6813941A955B681B9393
:104FC8001B991A9802F0A2FC01281B991A9840F024
:104FD8007C8400220023FBF7FBFD002840F0548668
:104FE8009DF887A003250D95099D002425F08005CF
:104FF80048F2DC4848F2D843C0F60008C0F600037F
:105008000C94099503240025B9F1470FD8BF984699
:105018000E94179504E6099C0B9344F01004099428
:10502800099D15F020037FF450AF099C14F010027D
:1050380040F04C83099C14F0400300F04783139818
:1050480004880430134600251390ABE5099D0B93A3
:1050580045F010050995099CA3063FF599AD099DF2
:10506800ED0600F12583099C640640F1218313981D
:105078000488043000250123139093E5099D0B93C0
:1050880048F2E844C0F60004A8068DF88720189472
:1050980040F18480139CE31D23F0070303F1080506
:1050A8001395D3E900450998C30740F14B8254EAA8
:1050B800050100F04782302340F002008DF8883067
:1050C8008DF88990099002236CE50B93139B139C30
:1050D8001B684FF0000A012504348DF887A00D9550
:1050E8008DF8B0301394CDF830A0CDF85CA00E95B3
:1050F8000DF1B0089AE5099C8DF88720A2060B935C
:105108003FF51AAF099CE30600F1E782099C6506A2
:1051180040F1E3821398B0F900400430E5172246C5
:105128002B46139012E7099C44F02004099493F845
:105138000090A0E4139C0B93D4F8008000258DF810
:1051480087500434B8F1000F00F07E850C980028D1
:105158004046C0F24C8529460C9A02F07BF800289C
:1051680000F0A3850C991394C8EB00008842B8BFDF
:10517800014621EAE1740E910C950D9417959DF85E
:1051880087A04DE5099D0B9348F2FC44C0F6000446
:10519800A8068DF8872018943FF57CAF099CE10696
:1051A80000F18E82099C620640F18A821398048875
:1051B80004300025139076E793F800902B225AE4E8
:1051C80093F80090B9F16C0F0CBF099C099D194622
:1051D80009BF44F0200445F01005013309940CBFC1
:1051E80091F80190099546E4099D0B93A9068DF85D
:1051F800872040F19583139C2168119CE5172B4665
:10520800139D224604351395C1E90023FFF7FFBB20
:10521800099D139A0B9345F0020548F2FC40302390
:105228004FF078090995C0F60000151D8DF88830F3
:10523800139514688DF88990002518900223B1E41D
:10524800099D45F04005099593F8009013E493F8FB
:105258000090002A7FF40FAC20220CE4099D45F051
:105268000105099593F8009005E4139C139D2468A3
:10527800002C129405F10401FFF65EAC139193F82B
:105288000090FFF7F8BB0B938DF88720B9F1000F5A
:105298003FF465AC002301259A460D958DF8B09032
:1052A8008DF887300C9317930E950DF1B008BDE477
:1052B8002B9C0BE50F980A9929AA02F04FFB0028AE
:1052C8007FF454AC2B9C36AE12E5B9F1650F40F370
:1052D800C2801A981B9900220023FBF76FFC002854
:1052E80000F033812A9B169D013301340122072BDC
:1052F800356072602B942A93D8BF083600F31C835C
:10530800239B109DAB4203DB099DEB077FF562AD44
:10531800199D2A9B35601C9D01332C44072B756011
:105328002B942A93D8BF083600F3C083109D05F14B
:10533800FF38B8F1000F7FF74DADB8F1100F48F204
:10534800C84540F303852A9BDDF83CA0DDF828B06A
:10535800C0F600054FF0100905E0A8F11008B8F1F3
:10536800100F40F3C08001331034072B86E8800209
:105378002B942A93D8BF0836EFDD5046594629AA00
:1053880002F0ECFA00287FF4F1AB2B9C2A9B36AE96
:10539800E3E7002B40F0C580099CE1075CBF0E9352
:1053A8000DF1D8087FF534AC1F9D30238DF8D73028
:1053B8000E950DF1D7082BE4129D0D98C0EB050A48
:1053C800BAF1000F7FF7A9ACBAF1100F48F2C8453F
:1053D800DCBFC0F600052A9B27DDC0F60005224683
:1053E8002A9B54464FF0100BAA460F9D02E0103C32
:1053F800102C17DD01331032072B86E880082B921A
:105408002A93D8BF0836F2DD28460A9929AA02F05D
:10541800A5FA00287FF4AAAB103C102C2B9A2A9BE3
:1054280036AEE7DC5546A246144601335444072BF2
:1054380086E820042B942A93D8BF08367FF76DACF2
:105448000F980A9929AA02F089FA00287FF48EABEE
:105458002B9C36AE61E4109D012D40F3D8812A9B28
:10546800C6F800800133621C0121072B71602B9262
:105478002A93D8BF083600F3F5811C9C199D224455
:1054880035605C1C1C9D2B92072C2A94756000F3D8
:10549800DC81083691461A981B9900220023FBF7F5
:1054A8008DFB109D002840F0C0806B1E013408F170
:1054B800010103EB0902072C31602A942B927360D7
:1054C80000F3B681083691461D9A631C1D9C2A93E9
:1054D8004A4425A9072B2B9286E812000CDC0836D3
:1054E800144677E4144601334444072B2B942A933B
:1054F80086E820017FF76DAC0F980A9929AA02F077
:105508002DFA00287FF432AB2B9C36AE62E40F985C
:105518000A9929AA02F022FA00283FF4B0ACFFF752
:1055280025BB0E920DF1D808FFF772BB0F980A99A8
:1055380029AA02F013FA00287FF418AB2B9C36AE88
:10554800FFF7E7BB0223FFF72DBB239B002B40F39C
:10555800FE81109D1798DDF840B08542A8BF05462A
:10556800002DC3440CDD2A9BC6F8008001332C446F
:10557800072B75602B942A93D8BF083600F34B830A
:10558800179925EAE575C5EB0109B9F1000F40F354
:10559800D180B9F1100F48F2C845DCBFC0F600054C
:1055A8002A9B40F3B380C0F6000522460C952A9B3F
:1055B8000F9C0A9D4FF0100A05E0A9F11009B9F1F6
:1055C800100F40F3A18001331032072B86E88004C6
:1055D8002B922A93D8BF0836EFDD2046294629AA00
:1055E80002F0BCF900287FF4C1AA2B9A2A9B36AE98
:1055F800E3E7002D08BF0A2C80F040811F9D30345E
:105608008DF8D7400E950DF1D708FFF701BB0F981D
:105618000A9929AA02F0A2F900287FF4A7AA9DF8FE
:1056280087A02B9C36AEFFF751BB05F1FF38B8F1C8
:10563800000F7FF749AF48F2C845B8F1100FC0F620
:10564800000528DD4B464FF0100AA946DDF83CB0AE
:105658000A9D04E0A8F11008B8F1100F19DD013413
:105668001033072C86E880042B932A94D8BF083679
:10567800F0DD5846294629AA02F070F900287FF47F
:1056880075AAA8F11008B8F1100F2B9B2A9C36AE0A
:10569800E5DC4D469946013408EB0903072C2B93AA
:1056A8002A9486E8200100F3C380083699460BE760
:1056B800139D2C680435139501230025FFF772BA52
:1056C800139D2C68043513950025ECE4139D2C6874
:1056D800043513950025FFF765BA139D13982C68B8
:1056E800E51722462B460430002A73F10001139077
:1056F800BFF631AC4FF02D0A644265EB45058DF8D5
:1057080087A00123FFF752BA0C9D144601334C447D
:10571800072B86E820022B942A93D8BF083609DD88
:105728000F980A9929AA02F019F900287FF41EAAED
:105738002B9C36AE179D239BA844109DAB424DDB96
:10574800099DE9074AD41098C8EB0B05C31AAB4268
:10575800B8BF1D46002D0CDD2A9AC6F8008001321C
:105768002C44072A75602B942A92D8BF083600F378
:105778005D8225EAE575C5EB0308B8F1000F7FF7F0
:1057880029ABB8F1100F48F2C84540F3DF822A9BD5
:10579800DDF83CA0DDF828B0C0F600054FF0100990
:1057A800224605E0A8F11008B8F1100F7FF79AAE6D
:1057B80001331032072B86E880022B922A93D8BF38
:1057C8000836EFDD5046594629AA02F0C7F80028E6
:1057D8007FF4CCA92B9A2A9B36AEE3E7199D2A9A27
:1057E80035601C9D01322C44072A75602B942A923F
:1057F800D8BF0836A7DD0F980A9929AA02F0AEF893
:1058080000287FF4B3A9239B2B9C36AE9BE7099D08
:10581800EA073FF524AE2A9AC6F80080631C541C98
:10582800072C4FF001022B932A9472607FF73DAF4B
:105838000F980A9929AA02F091F800287FF496A9EE
:10584800DDF8AC902A9C36AE3EE60F980A9929AA54
:1058580002F084F800287FF489A9DDF8AC902A9C2E
:1058680036AE18E60F980A9929AA02F077F80028A8
:105878007FF47CA92B9A2A9B36AEFEE50DF1D70B57
:10588800204629460A220023FBF7F2F930328BF82A
:105898000020204629460A220023FBF7E9F904469E
:1058A8000D4654EA0500D8460BF1FF3BE8D1FFF757
:1058B800ABB9302B3FF4A8A9089C3023A41A904612
:1058C8000E9401F8013CFFF7A3B902F01FF8002875
:1058D80040F08D80099D0C9048F2E44848F2E0437E
:1058E8000324C0F60008C0F6000325F080050D94D7
:1058F8000995B9F1470FD8BF984617900E949DF8AF
:1059080087A0FFF78DB9139CE31D23F0070303F16C
:1059180008051C6813951A945B681B93FFF750BB26
:10592800099CE20640F1B480139D119C2B68043554
:1059380013951C60FFF76BB80F980A9929AA02F013
:105948000DF800287FF412A92B9C36AED8E42A9AC9
:10595800169D013201340121072A35602B942A92C1
:10596800716000F313810836184628B9109D1DB9D7
:10597800099DED077FF52EAA2A9B1C99199D2144A4
:1059880001331C9C3560072B2B9174602A93D8BF78
:1059980006F1080200F3BD814442002C40F3178150
:1059A80048F2C845102CC0F6000540F3FB801026CD
:1059B800DDF83C90DDF828A003E0103C102C40F303
:1059C800F18001331031072B176056602B912A9311
:1059D800D8BF0832F1DD4846514629AA01F0BEFF7A
:1059E80000287FF4C3A82B992A9B36AAE5E70C9CCC
:1059F800013408BF062429F0200508BF0C9406D0FE
:105A0800472D04D10C9C002C08BF01240C941B9B2F
:105A1800099C002B44F480741494BDBF1C4604F107
:105A2800004A4FF02D0BDDF86CA0A8BF4FF0000B1B
:105A3800B5F14600D0F1000C5CEB000CBCF1000F96
:105A48004DD0032123A80C9C0091029024A927A8DB
:105A580004901A9A0194534603910F98CDF818C0F0
:105A680000F026FB472D8046DDF818C003D1099CBD
:105A7800E10740F10F810C9C4444BCF1000F43D076
:105A880098F80030302B00F0A581239B1C443BE0A4
:105A9800139C099D236815F0400F119D04F104041F
:105AA800139414BF1D801D60FEF7B1BF0F980A99AB
:105AB80029AA01F053FF00287FF458A82B9C36AE82
:105AC80034E40F984021FEF707FC2060206100288D
