:020000040800F2
:100000000000022051180008A9180008A9180008CB
:10001000A9180008A9180008A91800080000000085
:100020000000000000000000000000001132000885
:10003000A91800080000000071320008C132000851
:10004000A9180008A9180008A9180008A91800088C
:10005000A9180008A9180008A9180008A91800087C
:10006000A9180008A9180008A9180008A91800086C
:10007000A9180008A9180008A9180008A91800085C
:10008000A9180008A9180008A9180008A91800084C
:10009000A9180008A9180008A9180008A91800083C
:1000A000A9180008A9180008A9180008A91800082C
:1000B000A9180008A9180008A9180008A91800081C
:1000C000A9180008A9180008A9180008A91800080C
:1000D000A918000839130008A9180008A918000871
:1000E000A9180008A9180008A9180008A9180008EC
:1000F000A9180008A9180008A9180008A9180008DC
:10010000A9180008A9180008A9180008A9180008CB
:10011000A9180008A9180008A9180008A9180008BB
:10012000A9180008A9180008A9180008A9180008AB
:10013000A9180008A9180008A9180008A91800089B
:10014000A9180008A9180008A9180008A91800088B
:10015000A9180008A9180008A9180008A91800087B
:10016000A9180008A9180008A9180008A91800086B
:10017000A9180008A9180008A9180008A91800085B
:08018000A9180008A9180008E5
:1001880008B540F6E400074BC2F200001B1A062B24
:1001980000D808BD40F20003C0F20003002BF8D0DD
:1001A8009847F6E7E708002008B540F6E40040F66F
:1001B800E403C2F20003C2F200001B1A9B1003EB17
:1001C800D373591000D108BD40F20002C0F20002FA
:1001D800002AF8D09047F6E710B540F6E804C2F2D6
:1001E8000004237873B9FFF7CBFF40F20003C0F295
:1001F80000032BB148F28450C0F60000AFF3008032
:100208000123237010BD00BF08B540F20003C0F2FF
:1002180000034BB148F2845040F6EC01C0F60000F0
:10022800C2F20001AFF3008040F6E400C2F2000021
:1002380003682BB140F20003C0F2000303B19847F2
:10024800BDE80840B0E700BF844641EA000313F068
:1002580003036DD1403A41D351F8043B40F8043BC5
:1002680051F8043B40F8043B51F8043B40F8043B88
:1002780051F8043B40F8043B51F8043B40F8043B78
:1002880051F8043B40F8043B51F8043B40F8043B68
:1002980051F8043B40F8043B51F8043B40F8043B58
:1002A80051F8043B40F8043B51F8043B40F8043B48
:1002B80051F8043B40F8043B51F8043B40F8043B38
:1002C80051F8043B40F8043B51F8043B40F8043B28
:1002D80051F8043B40F8043B403ABDD2303211D3C8
:1002E80051F8043B40F8043B51F8043B40F8043B08
:1002F80051F8043B40F8043B51F8043B40F8043BF8
:10030800103AEDD20C3205D351F8043B40F8043BC7
:10031800043AF9D2043208D0D2071CBF11F8013BC5
:1003280000F8013B01D30B8803806046704700BF8B
:10033800082A13D38B078DD010F003038AD0C3F19A
:100348000403D21ADB071CBF11F8013B00F8013B7C
:1003580080D331F8023B20F8023B7BE7043AD9D33B
:10036800013A11F8013B00F8013BF9D20B78037010
:100378004B7843708B7883706046704781F00041FA
:1003880002E000BF83F0004330B54FEA41044FEA72
:10039800430594EA050F08BF90EA020F1FBF54EA0D
:1003A800000C55EA020C7FEA645C7FEA655C00F0A9
:1003B800E2804FEA5454D4EB5555B8BF6D420CDD7A
:1003C8002C4480EA020281EA030382EA000083EAFD
:1003D800010180EA020281EA0303362D88BF30BD9D
:1003E80011F0004F4FEA01314FF4801C4CEA1131F3
:1003F80002D0404261EB410113F0004F4FEA033352
:100408004CEA133302D0524263EB430394EA050FDC
:1004180000F0A780A4F10104D5F1200E0DDB02FA4B
:100428000EFC22FA05F2801841F1000103FA0EF2DF
:10043800801843FA05F359410EE0A5F120050EF1A5
:10044800200E012A03FA0EFC28BF4CF0020C43FAD6
:1004580005F3C01851EBE37101F0004507D54FF0E3
:10046800000EDCF1000C7EEB00006EEB0101B1F533
:10047800801F1BD3B1F5001F0CD349085FEA300079
:100488004FEA3C0C04F101044FEA445212F5800F84
:1004980080F09A80BCF1004F08BF5FEA500C50F121
:1004A800000041EB045141EA050130BD5FEA4C0C04
:1004B800404141EB010111F4801FA4F10104E9D18D
:1004C80091F0000F04BF01460020B1FA81F308BF84
:1004D8002033A3F10B03B3F120020CDA0C3208DD50
:1004E80002F1140CC2F10C0201FA0CF021FA02F12B
:1004F8000CE002F11402D8BFC2F1200C01FA02F19B
:1005080020FA0CFCDCBF41EA0C019040E41AA2BFBF
:1005180001EB0451294330BD6FEA04041F3C1CDA87
:100528000C340EDC04F11404C4F1200220FA04F0A7
:1005380001FA02F340EA030021FA04F345EA030151
:1005480030BDC4F10C04C4F1200220FA02F001FA13
:1005580004F340EA0300294630BD21FA04F0294695
:1005680030BD94F0000F83F4801306BF81F480112E
:100578000134013D4EE77FEA645C18BF7FEA655CA1
:1005880029D094EA050F08BF90EA020F05D054EA73
:10059800000C04BF1946104630BD91EA030F1EBF78
:1005A8000021002030BD5FEA545C05D1400049417C
:1005B80028BF41F0004130BD14F580043CBF01F56F
:1005C800801130BD01F0004545F0FE4141F4700155
:1005D8004FF0000030BD7FEA645C1ABF1946104630
:1005E8007FEA655C1CBF0B46024650EA013406BF31
:1005F80052EA033591EA030F41F4002130BD00BFF0
:1006080090F0000F04BF0021704730B54FF48064AC
:1006180004F132044FF000054FF0000150E700BF2D
:1006280090F0000F04BF0021704730B54FF480648C
:1006380004F1320410F0004548BF40424FF0000179
:100648003EE700BF42004FEAE2014FEA31014FEABC
:1006580002701FBF12F07F4393F07F4F81F060510B
:10066800704792F0000F14BF93F07F4F704730B57A
:100678004FF4607401F0004521F0004120E700BF0D
:1006880050EA010208BF704730B54FF000050AE094
:1006980050EA010208BF704730B511F0004502D595
:1006A800404261EB41014FF4806404F132045FEA97
:1006B800915C3FF4DCAE4FF003025FEADC0C18BF3C
:1006C80003325FEADC0C18BF033202EBDC02C2F132
:1006D800200300FA03FC20FA02F001FA03FE40EAC4
:1006E8000E0021FA02F11444C1E600BF70B54FF0C4
:1006F800FF0C4CF4E06C1CEA11541DBF1CEA1355A6
:1007080094EA0C0F95EA0C0F00F0DEF82C4481EA0D
:10071800030621EA4C5123EA4C5350EA013518BF2D
:1007280052EA033541F4801143F4801338D0A0FB1A
:1007380002CE4FF00005E1FB02E506F00042E0FBC7
:1007480003E54FF00006E1FB03569CF0000F18BFCD
:100758004EF0010EA4F1FF04B6F5007F64F5407475
:1007680004D25FEA4E0E6D4146EB060642EAC62108
:1007780041EA55514FEAC52040EA5E504FEACE2E75
:10078800B4F1FD0C88BFBCF5E06F1ED8BEF1004F78
:1007980008BF5FEA500E50F1000041EB045170BDF4
:1007A80006F0004646EA010140EA020081EA030138
:1007B800B4EB5C04C2BFD4EB0C0541EA045170BD34
:1007C80041F480114FF0000E013C00F3AB8014F1AE
:1007D800360FDEBF002001F0004170BDC4F10004F7
:1007E800203C35DA0C341BDC04F11404C4F1200578
:1007F80000FA05F320FA04F001FA05F240EA0200D3
:1008080001F0004221F0004110EBD37021FA04F608
:1008180042EB06015EEA430E08BF20EAD37070BDC2
:10082800C4F10C04C4F1200500FA04F320FA05F021
:1008380001FA04F240EA020001F0004110EBD37023
:1008480041F100015EEA430E08BF20EAD37070BD93
:10085800C4F1200500FA05F24EEA020E20FA04F36C
:1008680001FA05F243EA020321FA04F001F000411B
:1008780021FA04F220EA020000EBD3705EEA430E8C
:1008880008BF20EAD37070BD94F0000F0FD101F0BB
:100898000046400041EB010111F4801F08BF013CF4
:1008A800F7D041EA060195F0000F18BF704703F032
:1008B8000046520043EB030313F4801F08BF013DB9
:1008C800F7D043EA0603704794EA0C0F0CEA135575
:1008D80018BF95EA0C0F0CD050EA410618BF52EA2F
:1008E8004306D1D181EA030101F000414FF0000035
:1008F80070BD50EA410606BF1046194652EA430643
:1009080019D094EA0C0F02D150EA013613D195EAB6
:100918000C0F05D152EA03361CBF104619460AD1FE
:1009280081EA030101F0004141F0FE4141F4700108
:100938004FF0000070BD41F0FE4141F4780170BDF8
:1009480070B54FF0FF0C4CF4E06C1CEA11541DBF5D
:100958001CEA135594EA0C0F95EA0C0F00F0A7F85F
:10096800A4EB050481EA030E52EA03354FEA01318C
:1009780000F088804FEA03334FF0805545EA13139F
:1009880043EA12634FEA022245EA111545EA106567
:100998004FEA00260EF000419D4208BF964244F1FE
:1009A800FD0404F5407402D25B084FEA3202B61A1D
:1009B80065EB03055B084FEA32024FF480104FF4F1
:1009C800002CB6EB020E75EB030E22BFB61A754665
:1009D80040EA0C005B084FEA3202B6EB020E75EBF8
:1009E800030E22BFB61A754640EA5C005B084FEA60
:1009F8003202B6EB020E75EB030E22BFB61A75462D
:100A080040EA9C005B084FEA3202B6EB020E75EB37
:100A1800030E22BFB61A754640EADC0055EA060EF8
:100A280018D04FEA051545EA16754FEA06164FEA3B
:100A3800C30343EA52734FEAC2025FEA1C1CC0D1E7
:100A480011F4801F0BD141EA00014FF000004FF074
:100A5800004CB6E711F4801F04BF01430020B4F135
:100A6800FD0C88BFBCF5E06F3FF6AFAEB5EB030CED
:100A780004BFB6EB020C5FEA500C50F1000041EBEA
:100A8800045170BD0EF0004E4EEA113114EB5C04B7
:100A9800C2BFD4EB0C0541EA045170BD41F480118A
:100AA8004FF0000E013C90E645EA060E8DE60CEA92
:100AB800135594EA0C0F08BF95EA0C0F3FF43BAFAF
:100AC80094EA0C0F0AD150EA01347FF434AF95EA66
:100AD8000C0F7FF425AF104619462CE795EA0C0F4A
:100AE80006D152EA03353FF4FDAE1046194622E717
:100AF80050EA410618BF52EA43067FF4C5AE50EAF1
:100B080041047FF40DAF52EA43057FF4EBAE12E7E0
:100B18004FF0FF3C06E000BF4FF0010C02E000BFC1
:100B28004FF0010C4DF804CD4FEA410C7FEA6C5CA4
:100B38004FEA430C18BF7FEA6C5C1BD001B050EA47
:100B4800410C0CBF52EA430C91EA030F02BF90EA32
:100B5800020F0020704710F1000F91EA030F58BFF1
:100B6800994208BF90422CBFD8176FEAE37040F053
:100B7800010070474FEA410C7FEA6C5C02D150EAF1
:100B8800013C07D14FEA430C7FEA6C5CD6D152EAAC
:100B9800033CD3D05DF8040B704700BF8446104671
:100BA80062468C461946634600E000BF01B5FFF770
:100BB800B7FF002848BF10F1000F01BD4DF808ED40
:100BC800FFF7F4FF0CBF012000205DF808FB00BF11
:100BD8004DF808EDFFF7EAFF34BF012000205DF86B
:100BE80008FB00BF4DF808EDFFF7E0FF94BF0120B8
:100BF80000205DF808FB00BF4DF808EDFFF7CEFFB9
:100C080094BF012000205DF808FB00BF4DF808EDF7
:100C1800FFF7C4FF34BF012000205DF808FB00BFC8
:100C28004FEA410212F5001215D211D56FF478730C
:100C3800B3EB625212D94FEAC12343F0004343EAAF
:100C4800505311F0004F23FA02F018BF404270478A
:100C58004FF00000704750EA013005D111F0004014
:100C680008BF6FF0004070474FF00000704700BFAA
:100C78004BB942B9002908BF002802D04FF0FF3114
:100C8800084600F03BB882B0EC462DE9005000F071
:100C98001DF8DDF804E002B00CBC70472DE9F04106
:100CA800069C154606460F46984600F029F805FBAF
:100CB80001F300FB0838A5FB00234344B21A67EB95
:100CC8000303C4E90023BDE8F08100BF2DE9F0412A
:100CD800069C154606460F46984600F067F900FB45
:100CE80008F8A0FB052305FB01884344B21A67EB0B
:100CF8000303C4E90023BDE8F08100BF704700BFCB
:100D080000292DE9F00FA8BF0026C0F2A980002B0A
:100D1800C0F2A180894690469C46144605460F4677
:100D2800002B47D18A425BD9B2FA82F353B1C3F19F
:100D3800200201FA03F720FA02F208FA03F4174333
:100D480000FA03F5210CB7FBF1F22B0C01FB127C26
:100D5800A0B243EA0C4700FB02F3BB4209D93F1992
:100D680002F1FF3C04D2BB4284BF023A3F1900D8CB
:100D78006246FF1AB7FBF1F3ADB201FB137145EA06
:100D8800014100FB03F0884208D9091903F1FF3734
:100D980003D2884288BF023B00D83B4643EA02435D
:100DA80000221846114616B1404261EB4101BDE8E8
:100DB800F00F70478B4284BF00221346F1D8BCFA6B
:100DC8008CF1002940F09080CC4528BF80458CBF2D
:100DD800002201229CBF01230A46E2D91346E0E71C
:100DE80012B90123B3FBF2F4B4FA84F3002B3DD11A
:100DF8003F1B200C1FFA84FC0122B7FBF0F12B0CDF
:100E080000FB117743EA07470CFB01F3BB420AD901
:100E18003F1901F1FF3880F0C180BB4284BF02391D
:100E28003F1940F2BB80FF1AB7FBF0F3ADB200FBED
:100E3800137045EA00400CFB03FC844508D90019EF
:100E480003F1FF3703D2844588BF023B00D83B46F5
:100E580043EA0143A5E7F643524263EB430359E7EC
:100E6800404261EB41014FF0FF3650E79C40C3F12F
:100E7800200227FA02F1200C25FA02F29F401743BC
:100E8800B1FBF0F24FEA174800FB12111FFA84FC7D
:100E980048EA01410CFB02F8884505FA03F508D930
:100EA800091902F1FF337FD2884584BF023A091934
:100EB8007AD9C8EB0101B1FBF0F300FB1311BFB203
:100EC80047EA01470CFB03F1B94209D93F1903F17D
:100ED800FF3804D2B94284BF023B3F1900D84346C9
:100EE8007F1A43EA024288E7C1F1200328FA03F295
:100EF8000CFA01FC42EA0C0C29FA03F44FEA1C4AEA
:100F080020FA03F309FA01F943EA0900B4FBFAF7F6
:100F18000AFB1744030C1FFA8CF943EA044409FB43
:100F280007FBA34508FA01F209D914EB0C0407F1F1
:100F3800FF3337D2A34584BF023F644432D9CBEB99
:100F48000404B4FBFAF30AFB134480B240EA0440F9
:100F580009FB03F4844209D910EB0C0003F1FF38B4
:100F68001ED2844284BF023B604419D943EA074732
:100F7800001BA7FB022398420DD314BF00230123B3
:100F880005FA01F191422CBF002203F001023B4611
:100F9800002A3FF406AF7B1E002202E7414642E7E3
:100FA8004346E3E71F46CAE71A4682E72DE9F003FE
:100FB800144605460E46002B41D18A4254D9B2FA4E
:100FC80082F34BB1C3F12006994020FA06F602FAE3
:100FD80003F40E4300FA03F5220CB6FBF2F02B0CD7
:100FE80002FB1061A7B243EA014607FB00F3B342D4
:100FF80009D9361900F1FF3104D2B34284BF02384F
:10100800361900D80846F61AB6FBF2F3ADB202FB61
:10101800136245EA024207FB03F7974209D91219FE
:1010280003F1FF3180F0EA80974288BF023B40F22B
:10103800E58043EA00400021BDE8F00370478B4299
:1010480084BF00210846F7D8B3FA83F4002C49D1AD
:101058008B4228BF82428CBF002101219CBF012006
:101068002146E9D90846E7E712B90124B4FBF2F4AE
:10107800B4FA84F7002F40F082800B1B260CA7B22D
:101088000121B3FBF6F02A0C06FB103342EA0343B6
:1010980007FB00F29A420AD91B1900F1FF3C80F0C5
:1010A800AF809A4284BF02381B1940F2A9809B1A6C
:1010B800B3FBF6F2ADB206FB123345EA034507FB74
:1010C80002F7AF4209D92C1902F1FF3380F09A8058
:1010D800A74288BF023A40F2958042EA0040BDE844
:1010E800F0037047C4F1200522FA05F6A340334304
:1010F8004FEA134821FA05F6A14020FA05F5B6FB98
:10110800F8FC0D4308FB1C66290C1FFA83F941EA19
:10111800064609FB0CF7B74202FA04F204D9F6189E
:101128000CF1FF3176D38C46F61BB6FBF8F708FBBB
:101138001766ADB245EA064509FB07F6AE4204D983
:10114800ED1807F1FF315FD30F4647EA0C47AD1B97
:10115800A7FB02239D420DD300FA04F114BF00251A
:10116800012591422CBF002105F0010138460029D4
:101178003FF462AF781E0021BDE8F0037047BC4021
:10118800C7F1200321FA03FC260CB94020FA03F327
:101198000B43BCFBF6F11A0C06FB11CC1FFA84F8C2
:1011A80042EA0C4C08FB01F2624500FA07F509D93E
:1011B8001CEB040C01F1FF3033D2624584BF0239C5
:1011C800A4442ED9C2EB0C0CBCFBF6F29BB206FB76
:1011D80012CC43EA0C4308FB02F0984209D91B19C8
:1011E80002F1FF3704D2984284BF023A1B1900D893
:1011F8003A461B1A42EA0141474642E70B4618E7BE
:10120800604654E71A4668E7AE4284BF023FED18CD
:101218009BD899E7B74284BFACF1020CF61883D883
:1012280081E70146CEE700BF10B502F003F84FF49E
:10123800A053C4F20003596A40F60413C2F2000333
:101248001B888B42C8BF01F58031C81A40F60814C4
:10125800C2F20004D4E90023121843EBE073C4E996
:10126800002340F60413C2F20003198001F0EEFFD8
:10127800D4E9000110BD00BF10B44FF4A053C4F26C
:1012880000035A6A92B24FF4A054C4F20004636A8D
:1012980011469A42C8BF03F580339A1A824203D88E
:1012A800C91A08449AB2F2E75DF8044B704700BFC8
:1012B80008B54FF47A7303FB00F0FFF7DDFF08BDB4
:1012C80000B585B0684602F09BF92020012102F0A4
:1012D800DBFA4FF46053C4F202031A6C42F02002A6
:1012E8001A644DF68363C4F21B33039AA3FB0213FB
:1012F8009B0C013B9BB24FF4A050C4F20000038545
:101308004FF6FF73C3620121018002F0F9FD05B0B9
:101318005DF804FB10B504462021032200F086FD89
:101328002046032101F0FAF8002001F093FA10BDDD
:1013380070B584B04FF48050C4F2010040F22551DA
:1013480002F03CFF002800F097804FF48053C4F26D
:1013580001039988C9B27F2918BF08291AD140F614
:101368009843C2F200031A68013A1A6013440D2226
:101378001A774FF48054C4F201042046082100F083
:1013880075FC2046202100F071FC2046082100F061
:101398006DFC71E00D2926D040F61013C2F200034F
:1013A8001A6801321A6040F69843C2F200031A68BC
:1013B80040F22B139A4201BF40F69843C2F2000351
:1013C80000221A6040F69844C2F2000423682344BD
:1013D80019774FF48050C4F2010000F047FC2368ED
:1013E8000133236048E040F61013C2F200031B6883
:1013F800002B37D040F69844C2F2000423682344F7
:101408000D221A774FF48050C4F2010048F2D80137
:10141800C0F6000100F03CFC226840F61016C2F24B
:1014280000063368D31A2344092200920025019547
:101438000295039541F21D30C0F6000047F6B871D9
:10144800C0F600014FF4EA721C3301F061F9A0699B
:1014580029462A462B4601F067FD3560236801338B
:10146800236009E04FF48050C4F2010048F2D8012B
:10147800C0F6000100F00CFC04B070BD30B589B0B6
:101488000220012102F0D8F91020012102F024FAEB
:10149800C023069302238DF81C3000248DF81E40CB
:1014A8008DF81F408DF81D304FF48065C4F2020599
:1014B800284606A901F07AFF28460621072202F0ED
:1014C80039F8284607210A4602F034F84FF4164343
:1014D8000293ADF80C40ADF80E40ADF81040ADF8F1
:1014E80014400C23ADF812304FF48055C4F20105B6
:1014F800284602A902F024FD284640F2255101227F
:1015080002F014FE25238DF804308DF805408DF87F
:10151800064001248DF8074001A801F0E1FE2846A5
:10152800214602F0D1FD09B030BD00BFF0B589B049
:101538000120014602F080F94FF40030012102F049
:10154800A3F90C27069702268DF81C6000248DF855
:101558001E408DF81F408DF81D602546C4F2020517
:10156800284606A901F022FF28463146072201F045
:10157800E1FF28460321072201F0DCFF08200121B2
:1015880002F05AF94FF47043069301258DF81C5068
:101598008DF81E4003238DF81D308DF81F404FF441
:1015A8004060C4F2020006A901F000FF4FF41643A0
:1015B8000293ADF80C40ADF80E40ADF81040ADF810
:1015C8001440ADF812704FF48846C4F20006304655
:1015D80002A902F0B5FC304640F225512A4602F035
:1015E800A5FD26238DF804308DF805408DF80640BA
:1015F8008DF8075001A801F073FE3046294602F025
:1016080063FD09B0F0BD00BF30B587B04FF0805022
:10161800012102F039F9012001F0D2FF012001F087
:10162800DFFF6124204602F07FF90028FAD04FF44A
:10163800007002F0B9F8012002F0EEF802F084FA26
:10164800002002F00BFC49F22753984239D00020C1
:1016580002F004FA02F022FA002403947C23049393
:10166800FE23059303A802F0A1F98DF80A4001258D
:101678008DF809508DF808508DF80B40284602A9BE
:1016880002F0B0FA1E238DF8063005238DF80530D8
:1016980004238DF804300C238DF80730284601A95F
:1016A80002F032FB02F03EFA204649F2275102F0DE
:1016B800BBFB284602F0D2F9204649F2275102F036
:1016C800B3FB002001F07CFF07B030BD2DE9F047E7
:1016D8008CB0FFF72BFFFFF7D1FEFFF7F1FDFFF707
:1016E80093FF40F69844C2F200044FF48055C4F2C8
:1016F80001052046294600F0A5FA204600F090FB97
:10170800284648F2F801C0F6000100F0C1FA0025A9
:101718004FF44064C4F202044FF4805A4FF4005965
:101728004FF480484FF400474FF4FA761BE0204608
:10173800514601F0E3FE2046494601F0DFFE20460F
:10174800414601F0DBFE2046394601F0D7FE30461F
:10175800FFF7AEFD20464FF4704101F0DDFE304644
:10176800FFF7A6FD0135012DE1DD1020012102F072
:1017780063F820270A9700268DF82E6001258DF83A
:101788002C5002238DF82D304FF48054C4F20204FB
:1017980020460AA901F00AFE2046394601F0BCFE9F
:1017A8000420294602F048F8802708978DF826601B
:1017B8008DF8246003238DF82530204608A901F010
:1017C800F5FD4FF4807608968DF82450204608A938
:1017D80001F0ECFD0194ADF80C700294ADF80E60C8
:1017E8004FF4FA73ADF8103001A800F0C3F94FF4C4
:1017F8008050C4F2010048F20C11C0F6000100F05C
:1018080047FA4FF48054C4F2010448F22017C0F696
:10181800000748F2D806C0F600064FF47A7801A807
:1018280000F0B2F905462046394600F031FA204664
:10183800294600F0C1FA2046314600F029FA404610
:10184800FFF736FDEBE700BF002103E00E4B5B58C6
:10185800435004310D480E4B42189A42F6D30D4AB4
:1018680002E0002342F8043B0B4B9A42F9D30B48A1
:10187800016841F47001016000F014F802F016FDEF
:10188800FFF724FF70470000B08500080000002023
:10189800E4080020E8080020D80E002088ED00E0C9
:1018A800FEE7000080B500AF4FF46053C4F20203B6
:1018B8004FF46052C4F20202126842F001021A6048
:1018C8004FF46053C4F2020300229A604FF460534D
:1018D800C4F202034FF46052C4F20202126822F00A
:1018E800847222F480321A604FF46053C4F2020307
:1018F80043F21002C2F200425A604FF46053C4F23D
:1019080002034FF46052C4F20202126822F48022E9
:101918001A604FF46053C4F202030022DA6000F048
:1019280009F84FF46D43CEF200034FF000629A605D
:1019380080BD00BF80B483B000AF00237B6000236C
:101948003B604FF46053C4F202034FF46052C4F298
:101958000202126842F480321A604FF46053C4F2F3
:1019680002031B6803F400333B607B6801337B6030
:101978003B68002B03D17B68B3F5A06FEDD14FF422
:101988006053C4F202031B6803F40033002B02D037
:1019980001233B6001E000233B603B68012B40F0E2
:1019A80082804FF46053C4F202034FF46052C4F2D1
:1019B8000202126C42F080521A644FF4E043C4F2FF
:1019C80000034FF4E042C4F20002126842F480427D
:1019D8001A604FF46053C4F202034FF46052C4F229
:1019E800020292689A604FF46053C4F202034FF403
:1019F8006052C4F20202926842F400429A604FF4C4
:101A08006053C4F202034FF46052C4F202029268B7
:101A180042F4A0529A604FF46053C4F2020345F2B4
:101A28000842C0F240725A604FF46053C4F2020395
:101A38004FF46052C4F20202126842F080721A60D7
:101A480000BF4FF46053C4F202031B6803F0007335
:101A5800002BF6D04FF47053C4F2020340F2056233
:101A68001A604FF46053C4F202034FF46052C4F298
:101A78000202926822F003029A604FF46053C4F2A3
:101A880002034FF46052C4F20202926842F002026A
:101A98009A6000BF4FF46053C4F202039B6803F0DE
:101AA8000C03082BF6D14FF46053C4F202034FF431
:101AB8006052C4F20202926822F400029A604FF463
:101AC8006053C4F202034FF44052C5F20002C3F857
:101AD80084204FF46053C4F202034FF46052C4F2FE
:101AE8000202126842F080621A6000BF4FF460532D
:101AF800C4F202031B6803F00063002BF6D00C3716
:101B0800BD465DF8047B704730B440F6E053C2F23E
:101B180000031B6843B940F6E053C2F2000340F6E5
:101B2800D862C2F200021A6040F6E053C2F2000323
:101B38001A681144EFF3088540F20003C2F200036B
:101B48001C682B1B994283BF0C2303604FF0FF30A6
:101B580040F6E0539EBFC2F200031960104630BC45
:101B6800704700BF08B501F065FB08BD08B501F076
:101B78006DFB08BD10B5044620B10123037501F0C3
:101B88003DFA206110BD00BF70B582B00446002345
:101B98008DF8073000930068218901F0BDFC60686A
:101BA800618901F0B9FC0220FFF766FB6068618972
:101BB80001F0A4FC0B20FFF75FFB6068618901F06E
:101BC800ABFC01254FF47A7613E0009B01330093B8
:101BD8008DF807502846FFF74FFBA28906FB02F253
:101BE800009B9A4219D02068218901F06DFC0128D8
:101BF800EBD09DF8073013F0FF0FF4D09DED007A7D
:101C0800B8EE477ADFED077AC7EE277A77EEA77A3C
:101C1800FDEEE77A17EE900A01E04FF0FF3002B0D0
:101C280070BD00BFCDCC684208B50346806800216E
:101C3800DA680B4601F004FA012814BF00200120DD
:101C480008BD00BF10B504468160002303604360EF
:101C580001F0D4F9E06001F0D1F9206101F0CEF98A
:101C6800A06101F0CBF9606110BD00BF00B583B081
:101C78008DF80710038803F040039BB2002BF9D0BE
:101C88009DF8071002F040FA03B05DF804FB00BFAE
:101C980070B506460C4607E0254615F8011B304688
:101CA800FFF7E4FF23782C46237813F0FF0FF3D1D6
:101CB80070BD00BF10B504460368D86800214FF016
:101CC800FF320B4601F0BCF901281CD101F0B2FA31
:101CD800236898686168FFF7DBFF2368986900212B
:101CE8000A460B4601F020F92368D86800210A4605
:101CF8000B4601F019F9A06800210A460B4601F0CD
:101D080013F901F0A3FA002000F0A4FD10BD00BFF4
:101D180010B584B00446416001F070F9A06000215C
:101D28004FF0FF320B4601F08BF9012815D14FF027
:101D3800FF33E36008230093002301930293039386
:101D480041F6BD40C0F6000048F22C11C0F6000173
:101D58008022234600F0DCFC11E048F23814C0F67B
:101D680000044FF48050C4F201002146FFF790FFB1
:101D78004FF48840C4F200002146FFF789FF04B001
:101D880010BD00BF0EB430B582B00446436863B1DD
:101D980006AA01921846059904F0ACF805462046B3
:101DA8006168FFF7B5FF284601E04FF0FF3002B049
:101DB800BDE8304003B07047F0B585B0064600294D
:101DC800BABF494201270027002246F26760C6F2DF
:101DD8006660541C80FB0135CB17C3EBA5031D4679
:101DE80003EB8303A1EB4303DBB204A90A443033BA
:101DF80002F80C3C29462246002DEAD167B130464C
:101E08002D21FFF733FF07E0013C04AB23443046A4
:101E180013F80C1CFFF72AFF002CF5D105B0F0BD14
:101E280040F6E453C2F200031860704703E08B42A7
:101E380008BF0270013003780D2BF8D1704700BF3E
:101E480030B40023C45CCD5CAC4203D1944203D0CF
:101E58000133F7E7002000E0012030BC704700BFE5
:101E68000023C15C914202D019B10133F9E7184649
:101E780070474FF0FF30704770B4054603782D2B3C
:101E880014BF00260126324600200AE0A3F13004E0
:101E9800E4B2092C08D800EB8000303B03EB40008B
:101EA8000132AB5C8B42F1D106B1404270BC704745
:101EB8002DE9F04FADB004460F4601A848F2741161
:101EC800C0F600014C22FEF7BFF914AB299340F687
:101ED800E453C2F200031B682893204600213A46C7
:101EE800FFF7BEFF0130044420460321FFF7C4FF7B
:101EF800461E0A280AD928A801A964224FF0FF33F0
:101F0800FFF740FF28A8FFF78FFE82E0B6F1FF3FFA
:101F180018BF4FF0000B23D10CE002EBC6035B683F
:101F2800B3F1FF3F04D152F83630B3F1FF3F08D088
:101F3800013604E0002640F20402C2F20002092E33
:101F4800EBDD0A2E0AD128A801A965224FF0FF333C
:101F5800FFF718FF28A8FFF767FE5AE04FF0010BBC
:101F6800204600213A46FFF77BFF431C1C4400250E
:101F78004FF0030840F20409C2F2000909EBC60A4F
:101F880038E02378642B09D0702B0FD10134204618
:101F98004146FFF771FF49F8360020E0013420463A
:101FA8004146FFF769FFCAF8040018E028A801A90C
:101FB80066224FF0FF33FFF7E5FE28A8FFF734FE4F
:101FC800BBF1000F0BD040F20403C2F200034FF044
:101FD800FF3243F8362003EBC6035A6019E0204667
:101FE80000213A46FFF73CFFB0F1FF3F0BD0431CFE
:101FF8001C440135012DCCBF00230123002808BF54
:102008000023002BBDD128A801A90022731CFFF7CB
:10201800B9FE2DB0BDE8F08F2DE9F04FADB0044604
:102028000F4602A848F2C011C0F600014822FEF788
:102038000BF914AB299340F6E453C2F200031B6872
:102048002893204600213A46FFF70AFF0130251859
:1020580028460321FFF710FF441E0A280AD928A89A
:1020680002A964224FF0FF33FFF78CFE28A8FFF780
:10207800DBFDA9E0B4F1FF3F0AD00022019226E07F
:1020880004EB440302EBC3035B6943B1013404E08E
:10209800002440F6E852C2F20002092CF0DD0A2CB6
:1020A8000AD128A802A965224FF0FF33FFF76AFE7C
:1020B80028A8FFF7B9FD87E040F6E853C2F200030D
:1020C80004EB440203EBC20301225A610192284641
:1020D80000213A46FFF7C4FE431C1D4404F1010BDE
:1020E80040F6E853C2F2000304EB440243F832B06E
:1020F80000264FF0030A40F6E853C2F2000303EB50
:10210800C209B0464EE02B78693B072B25D8DFE89B
:1021180003F01424240424241C0C013528465146B9
:10212800FFF7AAFEC9F8040031E0013528465146F8
:10213800FFF7A2FEC9F80C0029E0013528465146F0
:10214800FFF79AFEC9F8100021E0013528465146EC
:10215800FFF792FEC9F8080019E028A802A966222C
:102168005B46FFF70FFE019B6BB140F6E852C2F2E7
:1021780000026000011902EBC10100234B618B6072
:102188000B61CB604B6028A8FFF74EFD1CE028468A
:1021980041463A46FFF764FEB0F1FF3F0BD0431CBF
:1021A8001D440136042ECCBF00230123002808BF9C
:1021B8000023002BA7D128A802A900225B46FFF71D
:1021C800E1FD28A8FFF730FD2DB0BDE8F08F00BF76
:1021D80030B585B00C4640F6E453C2F200031B68E4
:1021E8000093051D284648F20821C0F60001224642
:1021F800FFF726FE20B128462146FFF759FE20E0CA
:10220800284648F21421C0F600012246FFF718FEBE
:1022180020B128462146FFF7FFFE12E0284648F283
:102228001C21C0F600012246FFF70AFE48B968469D
:1022380048F23021C0F60001FFF76AFD6846FFF753
:10224800F3FC05B030BD00BF10B584B004460A46A3
:1022580040F6E453C2F200031B6800930021FFF725
:10226800FFFD013020440321FFF706FE441E092C20
:1022780007D9684648F27421C0F60001FFF748FD07
:1022880012E0684648F29421C0F600012246FFF7A2
:1022980079FD40F20403C2F200034FF0FF3243F825
:1022A800342003EBC404626004B010BD30B585B0BF
:1022B80004460A4640F6E453C2F200031B68009342
:1022C8000021FFF7CDFD013020440321FFF7D4FDA5
:1022D8000246431E092B07D9684648F2B421C0F6C6
:1022E8000001FFF715FD14E040F6E854C2F20004BF
:1022F8005800C51804EBC50500216961A96029616A
:10230800E9606960684648F2D021C0F60001FFF72D
:1023180039FD05B030BD00BF30B585B00D4640F67B
:10232800E453C2F200031B680093041D204648F2E0
:102338000821C0F600012A46FFF782FD20B1204699
:102348002946FFF781FF21E0204648F21421C0F614
:1023580000012A46FFF774FD20B120462946FFF701
:10236800A5FF13E0204648F21C21C0F600012A46CA
:10237800FFF766FD50B9684648F2F421C0F600013F
:102388002246FFF7FFFC6846FFF74EFC05B030BD5C
:1023980000B5A3B040F6E453C2F200031B681E93D5
:1023A80005AB1F930268436881680091C168019179
:1023B80001690291416903911EA848F21431C0F6DF
:1023C8000001FFF7DFFC1EA8FFF72EFC23B05DF825
:1023D80004FB00BF00B595B040F6E453C2F2000319
:1023E8001B68109303AB11934A1C03684068009064
:1023F80010A848F26831C0F60001FFF7C3FC10A826
:10240800FFF712FC15B05DF804FB00BFF0B585B00E
:102418000E4640F6E453C2F200031B680093051D04
:10242800284648F20821C0F600013246FFF708FDA9
:10243800A0B3284600213246FFF712FD01300544BB
:1024480028460321FFF718FD411E092908D840F244
:102458000400C2F2000000EBC100FFF7BBFF1DE063
:10246800B1F1FF3F0FD106E007EBC4002146FFF7AB
:10247800B1FF013404E0002440F20407C2F200076F
:10248800092CF1DD0AE0684648F28C31C0F60001FB
:10249800FFF73EFC6846FFF7C7FB3CE0284648F2DA
:1024A8001421C0F600013246FFF7CAFC98B328464B
:1024B80000213246FFF7D4FC013028440321FFF7FE
:1024C800DBFC431E80B907E004EB440005EBC000C9
:1024D800FFF75EFF013404E0002440F6E855C2F23D
:1024E8000005092CF0DD16E0092B0AD803EB43039D
:1024F80040F6E850C2F2000000EBC300FFF748FFC7
:1025080009E0684648F2AC31C0F60001FFF700FC6C
:102518006846FFF789FB05B0F0BD00BF30B585B050
:1025280005460C4640F6E453C2F200031B680093CC
:1025380048F2C831C0F600012246FFF781FC28B1F5
:1025480028462146FFF762FF00202EE0284648F281
:10255800D031C0F600012246FFF772FC28B12846A8
:102568002146FFF735FE00201FE0284648F2D83103
:10257800C0F600012246FFF763FC28B12846214631
:10258800FFF7CAFE002010E02B78A34208BF002006
:102598000BD0684648F2E031C0F60001FFF7B8FBFF
:1025A8006846FFF741FB0120FFE705B030BD00BFDB
:1025B80070B506460D46502001F0A6FE044680B1CF
:1025C80028461DB9B00001F09FFEFFE7206320B93F
:1025D800204601F0A1FE002403E0A521B20002F08C
:1025E80055F9204670BD00BF38B50446154634304D
:1025F800102202F0C5F9002384F84330042D28BFC7
:102608000425E5626564201D00F0ACFD04F11800A6
:1026180000F0A8FD2461C5F10505A56164620023E9
:10262800A364E36438BD00BF38B5002440F6201524
:10263800C2F2000506E004EB840005EB800000F020
:1026480085FD0134042CF6D940F6D815C2F20005F0
:10265800284600F07BFD40F6EC14C2F20004204648
:1026680000F074FD40F6A010C2F2000000F06EFD0C
:1026780040F68810C2F2000000F068FD40F6C41071
:10268800C2F2000000F062FD40F69C13C2F20003A3
:102698001D6040F68413C2F200031C6038BD00BF01
:1026A80010B5044640F6C013C2F200031B68586018
:1026B80040F61023C2F200031B6898420DD240F680
:1026C8008413C2F20003186840F6C013C2F2000374
:1026D8001968043100F058FD10BD40F69C13C2F291
:1026E8000003186840F6C013C2F2000319680431E9
:1026F80000F04AFD40F25403C2F200031B689C42FA
:102708003EBF40F25403C2F200031C6010BD00BF7C
:102718002DE9F04F83B082468B46154699460C9EAC
:10272800DDF8348010460E99FFF742FF0446002872
:1027380077D0036B05F18047013F03EB870727F04C
:1027480007070095594632460F9BFFF74DFF38465D
:1027580051464A4600F046FD2060B8F1000F01D00E
:10276800C8F8004000F066FD40F61C13C2F20003F2
:102778001A6801321A6040F6C013C2F200031B68DF
:1027880073B940F6C013C2F200031C6040F61C1374
:10279800C2F200031B68012B15D1FFF745FF12E0B9
:1027A80040F6B413C2F200031B6863B940F6C013C5
:1027B800C2F200031B68DB6AB3429EBF40F6C01337
:1027C800C2F200031C60E36A40F61422C2F200025F
:1027D8001268934282BF40F61422C2F200021360CC
:1027E80040F60021C2F200010A6801320A6040F690
:1027F8001411C2F200010A68934282BF40F6141213
:102808000A46136040F62010C2F2000003EB83036F
:1028180000EB8300211D00F0A9FC00F017FD012446
:1028280001E04FF0FF34012C0FD140F6B413C2F28F
:1028380000031B684BB140F6C013C2F200031B68CB
:10284800DB6AB34201D200F0EDFC204603B0BDE8DC
:10285800F08F00BF70B5044600F0ECFC40F6C013E2
:10286800C2F200031B689C4208BF002425462CB90D
:1028780040F6C013C2F200031D68FFE72E1D304664
:1028880000F09EFCAB6A1BB105F1180000F098FC43
:1028980040F68810C2F20000314600F067FC40F6AE
:1028A8001813C2F200031A6801321A6040F60023B6
:1028B800C2F200031A6801321A6000F0C7FC40F641
:1028C800B413C2F200031B6813B10CB900F0AAFCE0
:1028D80070BD00BF40F60423C2F200031A6801323B
:1028E8001A6070472DE9F84340F60423C2F200034A
:1028F8001B68002B40F0828040F61023C2F20003D0
:102908001A6801321A601B6853BB40F69C13C2F266
:102918000003196840F68412C2F2000210681860B9
:10292800116040F60C22C2F20002116801311160F8
:102938001B681B683BB940F25403C2F200034FF016
:10294800FF321A600CE040F69C13C2F200031B68C9
:10295800DB68DB685A6840F25403C2F200031A606D
:1029680040F61023C2F200031A6840F25403C2F280
:1029780000031B689A4248D340F69C16C2F2000630
:1029880040F61028C2F2000840F61417C2F20007F9
:1029980040F62019C2F2000933681B6843B940F2B7
:1029A8005403C2F200034FF0FF321A60BDE8F88307
:1029B8003368DB68DC686368D8F800209A4206D27E
:1029C80040F25402C2F200021360BDE8F883251DEC
:1029D800284600F0F5FBA36A1BB104F1180000F0CB
:1029E800EFFBE36A3A68934288BF3B6003EB8300DE
:1029F80009EB8000294600F0B9FBCDE740F6082333
:102A0800C2F200031A6801321A60BDE8F88300BFF9
:102A18002DE9F04700F00EFC40F60423C2F2000353
:102A28001A68013A1A601B680024002B65D140F629
:102A38001C13C2F200031B680BBB00245DE0F368A3
:102A4800DC6804F1180000F0BBFB251D284600F0E7
:102A5800B7FBE36AD8F80020934288BFC8F8003073
:102A680003EB83000AEB8000294600F07FFBE26A53
:102A7800D9F80030DB6A9A4228BF012710E0002706
:102A880040F6A016C2F2000640F61418C2F200087A
:102A980040F6201AC2F2000A40F6C019C2F2000934
:102AA8003368002BCBD140F60823C2F200031B6821
:102AB80033B90DE0FFF716FF2368013B236003E0FD
:102AC80040F60824C2F200042368002BF2D1012743
:102AD800012F08D040F6BC13C2F200031B68012B7B
:102AE80018BF002409D140F6BC13C2F2000300222B
:102AF8001A6000F097FB0124FFE700F0A7FB2046CF
:102B0800BDE8F08710B540F60423C2F200031B6845
:102B180033B140F6BC13C2F2000301221A6010BDA3
:102B2800FEF782FB40F6C013C2F200031A6840F6B3
:102B3800B813C2F200031968441AD16C2144D16455
:102B4800186040F61413C2F2000340F62011C2F2D6
:102B5800000102E01A68013A1A601A6802EB820260
:102B680051F82220002AF5D040F61413C2F20003CF
:102B78001B6840F62012C2F2000203EB830302EB4B
:102B880083035A6852685A6003F108018A4204BFF5
:102B980052685A605B68DA6840F6C013C2F20003F4
:102BA8001A601B689A6C4FF4E843C4F20003DA60B9
:102BB80010BD00BF38B50D4640F6C014C2F200047F
:102BC8002168183100F0E0FA2068043000F0F8FAC3
:102BD800B5F1FF3F08D1216840F6C410C2F20000E9
:102BE800043100F0C3FA38BD40F61023C2F20003E6
:102BF80018682844FFF754FD38BD00BF38B5C368CE
:102C0800DC6804F11805284600F0DAFA40F60423D7
:102C1800C2F200031B68E3B9251D284600F0D0FA6C
:102C2800E36A40F61412C2F200021268934282BFAD
:102C380040F61412C2F20002136040F62010C2F2ED
:102C4800000003EB830300EB8300294600F08EFAB3
:102C580006E040F6A010C2F20000294600F086FA0D
:102C6800E06A40F6C013C2F200031B68DB6A9842B0
:102C780034BF0020012038BD40F60C23C2F2000307
:102C88001B68036040F61023C2F200031B68436010
:102C9800704700BF38B504460D4600F0CBFA2A68E5
:102CA800B2F1FF3F08BF002429D0216840F60C2369
:102CB800C2F200031B68994209D0616840F61023EC
:102CC800C2F200031B68994298BF012417D940F645
:102CD8001023C2F2000319686368C91A8A4298BFB0
:102CE80001240CD940F61021C2F2000109685B1AD0
:102CF8001A442A602046FFF7BFFF0024FFE700F0D0
:102D0800A5FA204638BD00BF40F6BC13C2F2000346
:102D180001221A60704700BF40F6C013C2F20003D8
:102D28001868704738B50446C26A40F6C013C2F244
:102D380000031B68DB6A9A423DD240F6C013C2F218
:102D480000031B68DB6AC3F105038361416940F630
:102D58002013C2F2000302EB820203EB82039942C2
:102D680022D1051D284600F02BFA40F6C013C2F206
:102D780000031B68DB6AE36240F61412C2F2000229
:102D88001268934282BF40F61412C2F20002136026
:102D980040F62010C2F2000003EB830300EB83002F
:102DA800294600F0E3F938BD40F6C013C2F200032B
:102DB8001B68DB6AC36238BD38B5044618B3C26AFB
:102DC800436C9A421FD0051D284600F0F9F9636C40
:102DD800E362C3F10502A26140F61412C2F20002D6
:102DE8001268934282BF40F61412C2F200021360C6
:102DF80040F62010C2F2000003EB830300EB8300CF
:102E0800294600F0B3F938BD10B5044600F012FAAF
:102E1800A26BE36B9A4214BF0024012400F016FA57
:102E2800204610BD10B5044600F004FAA46BD4F196
:102E3800010438BF002400F009FA204610BD00BF85
:102E480010B50446036C3BB903681BBB4068FFF729
:102E5800B3FF002363601DE06AB980681A46FDF776
:102E6800F3F9A268236C1344A3606268934211D3F8
:102E78002368A3600EE0C0681A46FDF7E5F9226CE6
:102E88005242E3681344E36021688B423EBF6368A3
:102E9800D218E260A36B0133A36310BD38B50346B3
:102EA80005685DB1026CC4681444C460406884421B
:102EB80028BFDD600846D968FDF7C6F938BD00BFF0
:102EC80038B5044600F0B6F904F124050AE0636A4F
:102ED8005BB12846FFF792FE08B1FFF715FFA36C18
:102EE800013BA364A36C002BF1DC4FF0FF33A36418
:102EF80000F0ACF900F09EF904F110050AE023692E
:102F08005BB12846FFF77AFE08B1FFF7FDFE636C58
:102F1800013B6364636C002BF1DC4FF0FF336364A7
:102F280000F094F938BD00BF2DE9F04F85B0044694
:102F38008B4601929A4600264FF00109374600F168
:102F4800100800F077F9A36BE56BAB4212D220466C
:102F580059465246FFF774FF636A3BB104F12400F7
:102F6800FFF74CFE012801D100F05CF900F06EF982
:102F780001203FE0019B1BB900F068F9002039E00F
:102F88001EB902A8FFF778FE4E4600F05FF9FFF77A
:102F9800A1FC00F04FF9636CB3F1FF3F08BF676411
:102FA800A36CB3F1FF3F08BFA76400F04FF902A874
:102FB80001A9FFF76FFEB8B92046FFF725FF68B1F2
:102FC80040460199FFF7F6FD2046FFF779FFFFF726
:102FD8001FFD0028B5D100F025F9B2E72046FFF71C
:102FE8006FFFFFF715FDACE72046FFF769FFFFF716
:102FF8000FFD002005B0BDE8F08F00BF38B54C20AC
:1030080001F082F90446C8B1002545600560856075
:10301800C56085630123C36305644FF0FF334364D0
:103028008364103000F092F804F1240000F08EF868
:10303800204629462A462B46FFF776FF204638BD0C
:103048002DE9F04784B004468A4601929946002546
:103058004FF001082F4600F1240600F0EBF8A26BB0
:1030680042B3E56820465146FFF718FFB9F1000F53
:1030780012D1A36B013BA363236813B9FFF74CFE7E
:103088006060236993B104F11000FFF7B7FD0128D0
:103098000CD100F0C7F809E0E560636A33B104F1C8
:1030A8002400FFF7ABFD08B100F0BCF800F0CEF843
:1030B800012048E0019B1BB900F0C8F8002042E05D
:1030C8001DB902A8FFF7D8FD454600F0BFF8FFF785
:1030D80001FC00F0AFF8636CB3F1FF3F08BF676411
:1030E800A36CB3F1FF3F08BFA76400F0AFF802A8D4
:1030F80001A9FFF7CFFD00BB2046FFF793FEB0B153
:10310800236833B900F096F86068FFF70BFE00F00B
:103118009DF830460199FFF74DFD2046FFF7D0FE98
:10312800FFF776FC002898D100F07CF895E7204658
:10313800FFF7C6FEFFF76CFC8FE72046FFF7C0FEDF
:10314800FFF766FC002004B0BDE8F08700F1080333
:1031580043604FF0FF328260C36003610023036065
:10316800704700BF00230361704700BF43685A6877
:103178004A6042688A605A68916059604160086193
:10318800036801330360704710B40C68B4F1FF3F63
:103198000CBF036900F1080301D104E05B685A68B9
:1031A8001268A242FAD95A684A6091608B605960E5
:1031B80008610368013303605DF8044B704700BF82
:1031C800436882689A60836842685A6003695A68EB
:1031D800824204BF82685A60002202611A68013A7A
:1031E8001A6070474FF0807340F8043C40F8081CA0
:1031F800002340F80C3C40F8202C6FF0020340F804
:10320800243C4438704700BF054B19680868B0E88B
:10321800F04F80F309884FF0000080F31188704761
:10322800C00900204EF60453CEF200034FF080523E
:103238001A6070474FF0BF0080F3118840F25803BE
:10324800C2F200031A6801321A60704740F258034C
:10325800C2F200031A68013A1A601AB94FF0000066
:1032680080F31188704700BFEFF30980114B1A688B
:103278001EF0100F08BF20ED108A20E9F04F1060F3
:103288002DE908404FF0BF0080F31188FFF73AFCA2
:103298004FF0000080F31188BDE8084019680868FD
:1032A800B0E8F04F1EF0100F08BFB0EC108A80F3A2
:1032B80009887047C009002008B54EF60453CEF2BD
:1032C80000034FF080521A604FF0BF0080F311885E
:1032D800FFF708FB4FF0000080F3118808BD00BF1E
:1032E80080B485B000AF78600023FB730023BB7304
:1032F8000F237B737B68DB78002B40D04FF46D4342
:10330800CEF20003DB68DB4303F4E0631B0AFB73C4
:10331800FB7BC3F10403BB737A7BFB7B42FA03F3A9
:103328007B737B685B781A46BB7B02FA03F3FB73FB
:103338007B689A787B7B1340DAB2FB7B1343FB7381
:10334800FB7B1B01FB734FF46143CEF200037A68E9
:1033580012781344FA7B83F800234FF46143CEF2CA
:1033680000037A6812785209D2B27968097801F0B4
:103378001F01012000FA01F143F8221011E04FF477
:103388006143CEF200037A6812785209D2B27968A2
:10339800097801F01F01012000FA01F1203243F8F9
:1033A80022101437BD465DF8047B704780B487B09F
:1033B80000AF7860396000237B6100233B61002304
:1033C800FB6000237B6176E07B69012202FA03F34C
:1033D8003B613B681A683B691340FB60FA683B69CC
:1033E8009A4265D17B681A687B695B00032101FA00
:1033F80003F3DB431A407B681A607B681A683B68F2
:103408001B7919467B695B0001FA03F31A437B6851
:103418001A603B681B79012B03D03B681B79022B90
:103428002ED17B689A687B695B00032101FA03F35C
:10343800DB431A407B689A607B689A683B685B79D3
:1034480019467B695B0001FA03F31A437B689A60AB
:103458007B685A687B699BB2012101FA03F3DB435D
:103468001A407B685A607B685A683B689B791946A2
:103478007B699BB201FA03F39BB21A437B685A60DB
:103488007B68DA687B699BB25B00032101FA03F36E
:10349800DB431A407B68DA607B68DA683B68DB7973
:1034A80019467B695B0001FA03F31A437B68DA600B
:1034B8007B6901337B617B690F2B85D91C37BD463E
:1034C8005DF8047B704700BF80B485B000AF7860BA
:1034D8000B467B800023FB737B681A697B8813404B
:1034E800002B02D00123FB7301E00023FB73FB7B5D
:1034F80018461437BD465DF8047B704780B483B026
:1035080000AF78600B467B807B687A881A830C371B
:10351800BD465DF8047B704780B483B000AF786027
:103528000B467B807B687A885A830C37BD465DF8EA
:10353800047B704780B485B000AF786013460A46B4
:103548007A807B700023FB600023BB607A787B88DD
:1035580003F007039B0002FA03F3FB607B88DB0898
:103568009BB21A467B88DB089BB219467B680831F8
:1035780053F821107B8803F007039B000F2000FA03
:1035880003F3DB4319407B68083243F822107B8839
:10359800DB089BB21A467B68083253F82220FB6886
:1035A8001343BB607B88DB089BB21A467B680832F2
:1035B800B96843F822101437BD465DF8047B70479C
:1035C80080B483B000AF0346FB712023C4F20E23FE
:1035D800FA791A600C37BD465DF8047B704700BF66
:1035E80080B483B000AF0346FB714FF46863C4F244
:1035F8004723FA791A600C37BD465DF8047B70479B
:1036080080B489B000AF78600023BB6100237B6180
:103618000023FB6102233B610023FB600223BB60A4
:103628004FF46053C4F202039B6803F00C03BB61C0
:10363800BB69042B0AD0082B0FD0002B5AD17A680B
:103648004FF41053C0F2F40313605AE07A684FF451
:103658009053C0F27A03136053E04FF46053C4F2FE
:1036680002035B6803F480039B0DFB604FF4605317
:10367800C4F202035B6803F03F03BB60FB68002BE6
:1036880013D04FF49053C0F27A03BA68B3FBF2F246
:103698004FF46053C4F20203596847F6C0730B40F5
:1036A8009B0903FB02F3FB6112E04FF41053C0F2D5
:1036B800F403BA68B3FBF2F24FF46053C4F20203A6
:1036C800596847F6C0730B409B0903FB02F3FB6183
:1036D8004FF46053C4F202035B6803F440331B0CDD
:1036E80001335B003B61FA693B69B2FBF3F27B682B
:1036F8001A6006E07A684FF41053C0F2F4031360BE
:1037080000BF4FF46053C4F202039B6803F0F00358
:10371800BB61BB691B09BB6140F25C03C2F20003D9
:10372800BA6913441B78DBB27B617B681A687B69D2
:10373800DA407B685A604FF46053C4F202039B6816
:1037480003F4E053BB61BB699B0ABB6140F25C03B5
:10375800C2F20003BA6913441B78DBB27B617B6851
:103768005A687B69DA407B689A604FF46053C4F208
:1037780002039B6803F46043BB61BB695B0BBB61DD
:1037880040F25C03C2F20003BA6913441B78DBB24F
:103798007B617B685A687B69DA407B68DA6024372A
:1037A800BD465DF8047B704780B485B000AF786093
:1037B8000023FB607B6803F44073B3F5407F17D1A7
:1037C8004FF46053C4F202039B68FB60FB6823F468
:1037D800F813FB607B6823F0704323F44073FA68A6
:1037E8001343FB604FF46053C4F20203FA689A6013
:1037F8004FF46053C4F202034FF46052C4F2020261
:10380800116F7A68C2F30B020A431A671437BD4670
:103818005DF8047B704700BF80B483B000AF0346F7
:10382800FB7140F63C63C4F24723FA791A600C37FF
:10383800BD465DF8047B704780B483B000AF786004
:103848000B46FB70FB78002B0CD04FF46053C4F28E
:1038580002034FF46052C4F20202116B7A680A4301
:103868001A630CE04FF46053C4F202034FF4605241
:10387800C4F20202116B7A68D2430A401A630C3709
:10388800BD465DF8047B704780B483B000AF7860B4
:103898000B46FB70FB78002B0CD04FF46053C4F23E
:1038A80002034FF46052C4F20202116C7A680A43B0
:1038B8001A640CE04FF46053C4F202034FF46052F0
:1038C800C4F20202116C7A68D2430A401A640C37B7
:1038D800BD465DF8047B704780B483B000AF786064
:1038E8000B46FB70FB78002B0CD04FF46053C4F2EE
:1038F80002034FF46052C4F20202516C7A680A4320
:103908005A640CE04FF46053C4F202034FF460525F
:10391800C4F20202516C7A68D2430A405A640C37E6
:10392800BD465DF8047B704780B487B000AF03469E
:10393800FB710023FB6000237B610023FB74FB7990
:103948005B09DBB2FB60FB68012B06D14FF46053C7
:10395800C4F202031B687B610FE0FB68022B06D1EF
:103968004FF46053C4F202031B6F7B6105E04FF410
:103978006053C4F202035B6F7B61FB7903F01F03A2
:10398800FB60FB687A6922FA03F303F00103002B5A
:1039980002D00123FB7401E00023FB74FB7C184672
:1039A8001C37BD465DF8047B704700BF80B584B006
:1039B80000AF78600023FB734FF42053C4F2000378
:1039C800CA225A624FF42053C4F2000353225A62A7
:1039D80000F064F80346002B02D10023FB7331E0AA
:1039E8004FF42053C4F200034FF42052C4F20002F3
:1039F800926822F040029A604FF42053C4F2000308
:103A08004FF42052C4F2000291687A6812680A439F
:103A18009A604FF42053C4F200037A6892681A61DE
:103A28004FF42053C4F200034FF42052C4F20002B2
:103A380011697A68526812040A431A6100F072F830
:103A48000123FB734FF42053C4F20003FF225A6290
:103A5800FB7B18461037BD4680BD00BF80B483B0DD
:103A680000AF0346FB71FB79002B06D04FF42053BF
:103A7800C4F20003FF225A620BE04FF42053C4F251
:103A88000003CA225A624FF42053C4F2000353229F
:103A98005A620C37BD465DF8047B704780B485B028
:103AA80000AF00237B600023FB730023BB604FF44F
:103AB8002053C4F20003DB6803F04003002B27D136
:103AC8004FF42053C4F200034FF0FF32DA604FF492
:103AD8002053C4F20003DB6803F04003BB607B683B
:103AE80001337B607B68B3F5803F02D0BB68002B55
:103AF800EDD04FF42053C4F20003DB6803F0400319
:103B0800002B02D00123FB7304E00023FB7301E0C8
:103B18000123FB73FB7B18461437BD465DF8047B15
:103B2800704700BF80B400AF4FF42053C4F20003C5
:103B38004FF42052C4F20002D26822F08002DA6008
:103B4800BD465DF8047B704780B485B000AF0023A4
:103B58007B600023FB730023BB604FF42053C4F247
:103B68000003CA225A624FF42053C4F200035322BE
:103B78005A624FF42053C4F200034FF42052C4F2A7
:103B88000002D26822F0A002DA604FF42053C4F297
:103B98000003DB6803F02003BB607B6801337B60B4
:103BA8007B68B3F5003F02D0BB68002BEDD04FF423
:103BB8002053C4F20003DB6803F02003002B02D07B
:103BC8000123FB7301E00023FB734FF42053C4F27D
:103BD8000003FF225A62FB7B18461437BD465DF886
:103BE800047B704790B585B000AF786039600023DA
:103BF800FB600023FB727B68002B0CD14FF4205331
:103C0800C4F200039B6803F04003002B17D13B6804
:103C18000022DA7013E04FF42053C4F200039B68CB
:103C280003F04003002B07D03B681B78184600F0D0
:103C38004BF90346FB6002E03B680022DA707B68C0
:103C4800002B0FD03B681B781A043B685B781B027B
:103C58001A433B689B781A433B68DB781B04134381
:103C6800FB601BE03B681B78184600F00FF9034621
:103C78001C043B685B78184600F008F903461B02F1
:103C88001C433B689B78184600F000F9034644EA59
:103C980003023B68DB781B041343FB604FF420539B
:103CA800C4F20003CA225A624FF42053C4F200033C
:103CB80053225A62FFF7F2FE0346002B02D100237B
:103CC800FB7215E04FF42053C4F20003FA6802F0C7
:103CD8007F3222F0FE421A60FFF724FFFFF734FF1D
:103CE8000346002B02D10023FB7201E00123FB7283
:103CF8004FF42053C4F20003FF225A62FB7A18469D
:103D08001437BD4690BD00BF90B585B000AF786050
:103D180039600023FB600023FB727B68002B0ED107
:103D28003B685B7803F01003002B08D03B685B7896
:103D380023F01003DBB20A33DAB23B685A707B68AF
:103D4800002B0DD03B685B78184600F0BDF80346A1
:103D5800FB603B689B78184600F0B6F80346FB60AA
:103D68007B68002B0FD03B68DB781A043B685B78D4
:103D78001B021A433B689B781A433B681B785B031A
:103D88001343FB601BE03B68DB78184600F07EF8C5
:103D980003461C043B685B78184600F077F8034636
:103DA8001B021C433B689B78184600F06FF80346DB
:103DB80044EA03023B681B785B031343FB604FF440
:103DC8002053C4F20003CA225A624FF42053C4F2AB
:103DD800000353225A62FFF761FE0346002B02D10B
:103DE8000023FB7215E04FF42053C4F20003FA6875
:103DF80022F07F4222F0C0025A60FFF793FEFFF7DD
:103E0800A3FE0346002B02D10023FB7201E001232D
:103E1800FB724FF42053C4F20003FF225A62FB7A6C
:103E280018461437BD4690BD80B485B000AF7860A1
:103E380039600023FB6042F65003C4F20003FB60C4
:103E48007B689A00FB681344FB60FB683A681A6059
:103E58001437BD465DF8047B704700BF80B485B059
:103E680000AF78600023FB6042F65003C4F2000301
:103E7800FB607B689A00FB681344FB60FB681B6867
:103E880018461437BD465DF8047B704780B485B08A
:103E980000AF0346FB710023FB7305E0FB7B013396
:103EA800FB73FB790A3BFB71FB79092BF6D8FB7B8B
:103EB8001B01DAB2FB791343DBB218461437BD464F
:103EC8005DF8047B704700BF80B485B000AF03463F
:103ED800FB710023FB73FB791B09DBB21A469200C6
:103EE80013445B00FB73FB7903F00F03DAB2FB7B2F
:103EF8001344DBB218461437BD465DF8047B70479F
:103F080080B483B000AF78600B46FB70FB78002B61
:103F180008D07B681B889BB243F001039AB27B6888
:103F28001A8007E07B681B889BB223F001039AB2D2
:103F38007B681A800C37BD465DF8047B704700BF6C
:103F480080B58AB000AF7860396000237B620023B7
:103F58003B620023FB610023BB617B681B8A9BB229
:103F68007B627B6A23F440537B623B68DB887A6A16
:103F780013437B627B6A9AB27B681A827B689B894F
:103F88009BB27B627B6A23F4B05323F00C037B6201
:103F98003B689A883B681B8913439AB23B685B89E4
:103FA80013439BB27A6A13437B627B6A9AB27B683B
:103FB8009A817B689B8A9BB27B627B6A23F44073FD
:103FC8007B623B689B897A6A13437B627B6A9AB2FD
:103FD8007B689A8207F108031846FFF711FB7A6895
:103FE8004FF48053C4F201039A4206D07A684FF422
:103FF800A053C4F201039A4202D17B693B6201E0FB
:104008003B693B627B689B899BB29BB21BB2002BCE
:104018000CDA3A6A13469B0013449A001A443B6828
:104028001B685B00B2FBF3F3FB610BE03A6A1346D3
:104038009B0013449A001A443B681B689B00B2FB20
:10404800F3F3FB61FA6948F21F53C5F2EB13A3FBC4
:1040580002135B091B017B627B6A1B09642202FB5A
:1040680003F3FA69D31ABB617B689B899BB29BB245
:104078001BB2002B10DABB69DB0003F1320248F2F5
:104088001F53C5F2EB13A3FB02135B0903F00703ED
:104098007A6A13437B620FE0BB691B0103F13202AA
:1040A80048F21F53C5F2EB13A3FB02135B0903F09D
:1040B8000F037A6A13437B627B6A9AB27B681A8120
:1040C8002837BD4680BD00BF80B483B000AF78609C
:1040D8000B46FB70FB78002B08D07B689B899BB252
:1040E80043F400539AB27B689A8107E07B689B8906
:1040F8009BB223F400539AB27B689A810C37BD4671
:104108005DF8047B704700BF80B483B000AF78606F
:104118000B467B807B88C3F308039AB27B689A803E
:104128000C37BD465DF8047B704700BF80B487B08C
:1041380000AF786013460A467A807B7000233B61A3
:104148000023FB600023BB6000237B617B687B61ED
:104158007B88DBB25B09DBB23B617B8803F01F0322
:10416800FB60FB68012202FA03F3BB603B69012B89
:1041780003D17B690C337B6109E03B69022B03D1D6
:104188007B6910337B6102E07B6914337B617B7848
:10419800002B06D07B697A691168BA680A431A60ED
:1041A80006E07B697A691168BA68D2430A401A60E6
:1041B8001C37BD465DF8047B704700BF80B487B0EC
:1041C80000AF78600B467B800023FB6000237B6197
:1041D8000023BB600023FB747B88DBB25B09DBB286
:1041E800BB607B8803F01F037B617B69012202FAB5
:1041F80003F37B61BB68012B06D17B689B899BB26B
:104208007A6913407B610FE0BB68022B06D17B689B
:104218001B8A9BB27A6913407B6105E07B689B8AA5
:104228009BB27A6913407B617B881B0A9BB2FB6057
:10423800FB68012202FA03F3FB607B681B889BB2D0
:10424800FA681340FB607B69002B05D0FB68002BE4
:1042580002D00123FB7401E00023FB74FB7C1846A9
:104268001C37BD465DF8047B704700BF014600203F
:104278000246034601F04CBE38B548F2B05448F245
:10428800AC55C0F60005C0F60004641BA41018BFA6
:1042980005EB840505D0013C55F8043D9847002CF2
:1042A800F9D1BDE8384004F06FB900BF70B548F2E5
:1042B800A45648F2A455C0F60005C0F60006761BC1
:1042C800B6101CBF043D002405D0013455F8043F46
:1042D8009847A642F9D148F2AC5648F2A455C0F620
:1042E8000005C0F60006761B04F048F9B6101CBF9E
:1042F800043D002406D0013455F8043F9847A642EF
:10430800F9D170BD70BD00BF40F29843C2F20003FE
:104318000146186800F008B840F29843C2F200035A
:104328000146186802F0EABE2DE9F04F01F10B05CD
:10433800162D87BF25F00705EB0F002310258D42AA
:104348002CBF194643F0010183B00746002940F00D
:10435800B580FDF707FCB5F5FC7F1FD240F29C46FF
:10436800C2F200064FEAD50C06EBCC03DC689C428F
:1043780000F0F4816368E268A16823F00303234432
:1043880038465D68CA6045F0010591605D60FDF7DB
:10439800EDFB0834204603B0BDE8F08F5FEA552CEA
:1043A80004BF7E214FF03F0C40F08F8040F29C46C6
:1043B800C2F2000606EB8101CC68A14206D10DE0ED
:1043C800002B80F26381E468A14207D0626822F082
:1043D8000302531B0F2BF3DD0CF1FF3C0CF1010C16
:1043E80040F29C43C2F20003346903F1080E74459D
:1043F80008BF5A6822D0616821F003014A1B0F2ABE
:1044080000F39081002AC3F814E0C3F810E067DADB
:10441800B1F5007F80F05F81C90803EBC1004FEA66
:10442800A1085A688168E0604FF0010909FA08F8A4
:1044380048EA0202A1605A608460CC604FEAAC038B
:1044480001209840904258D8024206D12CF0030C23
:10445800400002420CF1040CFAD006EBCC084446AA
:10446800E146E3689C4207D16FE1002A80F280812F
:10447800DB689C4200F06981596821F003014A1BFE
:104488000F2AF2DD1C46D3F80CC054F8088F5919CE
:1044980045F0010942F00105C3F804903846C8F810
:1044A8000CC0CCF8088071613161C1F80CE0C1F82A
:1044B80008E04D608A50FDF759FB6BE70C23002498
:1044C8000360204603B0BDE8F08FBCF1040F00F292
:1044D800EE804FEA951C0CF1380C4FEA4C0165E769
:1044E800214438464B6843F001034B60FDF73EFB1F
:1044F8000834204603B0BDE8F08FB468636823F041
:1045080003094D4504D8C5EB09030F2B00F3AE8012
:1045180040F6202340F6A80AC2F20003C2F2000ABD
:104528001B68DAF800102B4401311DBF03F58053D6
:104538000F3323F47F6303F1100C18BF23F00F0C23
:1045480004EB0902614638460192CDF800C0FDF738
:10455800DBFAB0F1FF3F8046019ADDF800C000F0B9
:104568001D81824200F2178140F6242BC2F2000B13
:104578004245DBF800306344CBF8003000F05D8141
:10458800DAF8000040F6A801013018BFC2EB0802B3
:10459800C2F2000116BF9B18C1F80080CBF80030AA
:1045A80018F007031FBFC3F108029044C3F58053F6
:1045B80003F1080A08EB0C0308BF4FF4805AC3F351
:1045C8000B03C3EB0A0A51463846FDF79DFA431C14
:1045D80018BFC8EB0002DBF80030C6F8088015BF2A
:1045E80052444FF0000A42F0010201225344B442FF
:1045F80040F6242AC8F80420CBF80030C2F2000A9A
:1046080015D0B9F10F0F40F2F8806168A9F10C02DA
:1046180022F0070201F0010EA118052042EA0E0E51
:104628000F2AC4F804E04860886000F2128140F65E
:104638001C22C2F20002B46811688B4288BF136062
:1046480040F61822C2F2000211688B4288BF13603C
:10465800626822F003029542C5EB020301D80F2BD2
:1046680004DC3846FDF782FA002493E6621943F029
:10467800010345F0010565603846B2605360FDF7F7
:1046880075FA0834204603B0BDE8F08F2244E36889
:104698005068A16840F00105CB60384699605560C4
:1046A800FDF764FA0834204603B0BDE8F08FBCF18A
:1046B800140F9CBF0CF15B0C4FEA4C017FF676AEF1
:1046C800BCF1540F00F28F804FEA153C0CF16E0CD0
:1046D8004FEA4C016AE64B0A042B58D9142B9CBFAD
:1046E80003F15B02500005D9542B00F2BA800A0B83
:1046F8006E32500006EB800040F29C48836883428B
:10470800C2F200087FD05A6822F00302914202D216
:104718009B689842F7D1D9687268E160A3608C60A1
:10472800DC608BE6611942F0010645F00105656021
:10473800384659611961C1F80CE0C1F808E04E60CB
:104748008A500834FDF712FA24E609F1010919F034
:10475800030F04F108047FF484AE28E004F1080391
:104768006469A34208BF0CF1020C3FF439AE01E6BC
:1047780019441C464868DB6854F8082F40F00105C6
:104788004D603846D3609A60FDF7F0F902E68A0971
:1047980038325000AEE7B4423FF4E6AEB46862681F
:1047A80022F0030257E7D8F8008098456BD11CF037
:1047B800030FA8F108030CF1FF3CF4D1736823EA56
:1047C80000037360400098423FF697AE00283FF41C
:1047D80094AE0342CC467FF440AE400003420CF155
:1047E800040CFAD039E6BCF5AA7F17D84FEAD53CB5
:1047F8000CF1770C4FEA4C01D8E50123C8F80430D6
:104808004446002227E791100120D8F8042000FA36
:1048180001F10A43C8F8042019467EE740F25453D0
:104828009C459DBF4FEA954C0CF17C0C4FEA4C011E
:10483800FC2188BF4FF07E0CB8E5C2F30B010029BC
:104848007FF49EAE0CEB0901B26841F001015160A2
:10485800EDE604F10801384602F050FCDAF80030C1
:10486800E5E6B3F5AA7F03D8CA0B7732500041E7D3
:1048780040F2545293429DBF8A0C7C325000FC2077
:1048880088BF7E2236E773689CE700BFF0B48407D0
:1048980043D0541E002A3ED0CDB2034603E0621E28
:1048A800002C38D0144603F8015B9A07F7D1032C83
:1048B8002AD9CDB245EA05250F2C45EA054515D973
:1048C800A4F110073F0903F1100606EB07161A4674
:1048D800156055609560D5601032B242F8D104F089
:1048E8000F040137032C03EB07130DD91E4622468C
:1048F800043A032A46F8045BFAD8221F22F003027E
:104908000432134404F003042CB1C9B21C4403F864
:10491800011BA342FBD1F0BC704714460346C6E70F
:1049280020F0030110F00300C0F1000051F8043B2F
:1049380000F1040C4FEACC0C6FF000021CBF22FA05
:104948000CF213434FF0010C4CEA0C2C4CEA0C4CC3
:10495800A3EB0C0222EA030212EACC1204BF51F8BC
:10496800043B0430F4D013F0FF0F1FBF013013F4E1
:104978007F4F013013F47F0F18BF0130704700BF1D
:1049880040EA01039B0770B42BD1032A84BF0C466D
:10499800034626D9214654F8045BA5F1013626EAD8
:1049A800050616F0803F05D1043A032A43F8045B54
:1049B8002146EFD89AB10C78013A1C7001333CB10A
:1049C8006AB111F8014F013A03F8014B002CF7D1F5
:1049D8002AB11A44002103F8011B9342FBD170BC91
:1049E80070470346E6E700BF2DE9F04FC7B093468E
:1049F8000A9113930F9002F04FFC00681990FFF78B
:104A08008FFF0A9C1C90A389190603D52369002BE4
:104A180001F07F800DF1D70436AD07940895079D06
:104A2800CDF82CB036A8441B48F208491F9448F228
:104A3800584548F25C440023C0F60004C0F600095B
:104A4800C0F6000510932B932A931A931B9318937F
:104A58001D93119329901594169506464F460B9C65
:104A68002378252B18BF002B00F0B380621C144656
:104A780001322378252B18BF002BF8D10B98251A63
:104A88000FD02A9B2B9A306001332A44072B75607C
:104A98002B922A93D8BF083600F3818011992944B4
:104AA80011912378002B00F082800023651C94F874
:104AB80001908DF887304FF0FF341A46129309930E
:104AC8000B950C942B460133A9F12001582900F2CB
:104AD8000284DFE811F0E40300040004EB0300049F
:104AE80000040004000400040004F2039903000415
:104AF8005D002D0200046C027302730273027302DC
:104B08007302730273027302730200040004000448
:104B180000040004000400040004000400044E0221
:104B28008B0200048B0200040004000400048402C9
:104B380000040004C8020004000400040004000487
:104B4800E30200040004FB02000400040004000463
:104B580000040004000400040004000422033803D5
:104B68008B028B028B02DD033803000400049D03D3
:104B78000004B1031C02C5035003000457030004DA
:104B88008000000400047F03129C13916442129475
:104B9800099D45F00405099593F8009093E70F984F
:104BA8000A9929AA02F002FF40B936AE76E72B9B94
:104BB80023B10F980A9929AA02F0F8FE0A9C1198C5
:104BC800A38913F0400F18BF4FF0FF3047B0BDE87E
:104BD800F08F0B9C65E7099C0B93A30640F1678255
:104BE800139DEB1D23F0070303F108041394D3E985
:104BF800004501234FF0000A8DF887A00C9A002A7F
:104C0800A2BF099820F08000099054EA05010C9889
:104C18000CBF00220122002818BF42F00102002A1E
:104C280000F0DF83012B00F00C85022B0DF1D70279
:104C380040F05181189804F00F012309904643EA87
:104C48000573425C29091C460D4654EA050188F89B
:104C5800002008F1FF32EED1089BC8EB03030E9346
:104C68000C9C0E9DA542B8BF254600240D951794AF
:104C7800BAF1000F02D00D9C01340D94099D15F076
:104C8800020B18BF0D9C099D1CBF02340D9415F032
:104C98008405149540F03483129D0D982C1A002C2D
:104CA80040F32E83102C48F25C4A40F3D6873046F6
:104CB8001E972B992A9A159E2746C0F6000A10259A
:104CC8000F9C02E0103F102F17DD01321031072A28
:104CD800066045602B912A92D8BF0830F2DD204645
:104CE8000A9929AA02F062FE00287FF467AF103FF4
:104CF800102F2B992A9A36A8E7DC3C461E9F0646B9
:104D080001322144072A2B912A92C6F800A0746028
:104D180000F3A5849DF887A008360C46BAF1000F69
:104D28000ED02A9B013301340DF187010122072B94
:104D380086E806002B942A93D8BF083600F3E2824F
:104D4800BBF1000F0DD02A9B0133023422A90222A5
:104D5800072B86E806002B942A93D8BF083600F361
:104D68000D84149B802B00F04F830C9D0E9BC3EB8E
:104D7800050ABAF1000F44DDBAF1100F48F20845F0
:104D8800DCBFC0F600052A9B27DDC0F600052246D9
:104D98002A9B54464FF0100BAA460F9D02E0103C88
:104DA800102C17DD01331032072B86E880082B9270
:104DB8002A93D8BF0836F2DD28460A9929AA02F0B4
:104DC800F5FD00287FF4FAAE103C102C2B9A2A9B94
:104DD80036AEE7DC5546A246144601335444072B49
:104DE80086E820042B942A93D8BF083609DD0F984B
:104DF8000A9929AA02F0DAFD00287FF4DFAE2B9C7D
:104E080036AE099DEA0500F188822A9B0E9DC6F8F8
:104E1800008001332C44072B2B9475602A9300F3F0
:104E280093830836099D6B0746D512980D99451A44
:104E3800002D41DD102D48F25C4ADCBFC0F6000AA7
:104E48002A9B27DD09972A9BDDF83C90DDF828B0DE
:104E5800159FC0F6000A4FF0100802E0103D102D13
:104E680017DD01331034072B86E880012B942A9331
:104E7800D8BF0836F2DD4846594629AA02F096FD01
:104E880000287FF49BAE103D102D2B9C2A9B36AE3C
:104E9800E7DC099F01332C44072B2B942A93C6F88F
:104EA80000A0756008DD0F980A9929AA02F07EFD16
:104EB80000287FF483AE2B9C119D0D991298814296
:104EC800ACBF6D182D181195002C40F048830023B5
:104ED8002A9336AEC3E5E308904643EA4573EA08E9
:104EE80004F0070115461C4601F1300354EA050198
:104EF80088F8003008F1FF32EDD1099CE0074146FF
:104F080000F1FF84089DC8EB05050E95A8E6099DEC
:104F18000B9315F0200300F0B080139CE31D23F0E1
:104F2800070303F108051395D3E90045002361E65B
:104F380093F80090B9F12A0F03F1010000F0A2875D
:104F4800A9F13001092982BF002403460C943FF6D9
:104F5800BBAD002310F8019B03EB830301EB430374
:104F6800A9F130010929F5D943EAE3730C93034603
:104F7800AAE5099D8DF8872045F010050995099C3B
:104F88000B93A20640F1E680139DE91D21F007016D
:104F9800D1E900230831139114461D46002A73F104
:104FA8000001C0F2CF839DF887A0012326E6099C63
:104FB80044F08004099493F8009084E50025A9F151
:104FC80030011295284613F8019B00EB800001EB95
:104FD8004000A9F130010929F5D9129074E5099C1E
:104FE80044F00804099493F800906CE5099C0B932D
:104FF80024078DF8872040F1AE84139DEB1D23F024
:10500800070303F108041D6813941A955B681B9342
:105018001B991A9802F0A2FC01281B991A9840F0D3
:105028007C8400220023FBF7D3FD002840F054863F
:105038009DF887A003250D95099D002425F080057E
:1050480048F21C4848F21843C0F60008C0F60003AE
:105058000C94099503240025B9F1470FD8BF984649
:105068000E94179504E6099C0B9344F010040994D8
:10507800099D15F020037FF450AF099C14F010022D
:1050880040F04C83099C14F0400300F047831398C8
:1050980004880430134600251390ABE5099D0B9353
:1050A80045F010050995099CA3063FF599AD099DA2
:1050B800ED0600F12583099C640640F121831398CD
:1050C8000488043000250123139093E5099D0B9370
:1050D80048F22844C0F60004A8068DF887201894E2
:1050E80040F18480139CE31D23F0070303F10805B6
:1050F8001395D3E900450998C30740F14B8254EA58
:10510800050100F04782302340F002008DF8883016
:105118008DF88990099002236CE50B93139B139CDF
:105128001B684FF0000A012504348DF887A00D95FF
:105138008DF8B0301394CDF830A0CDF85CA00E9562
:105148000DF1B0089AE5099C8DF88720A2060B930B
:105158003FF51AAF099CE30600F1E782099C650652
:1051680040F1E3821398B0F900400430E517224675
:105178002B46139012E7099C44F02004099493F8F5
:105188000090A0E4139C0B93D4F8008000258DF8C0
:1051980087500434B8F1000F00F07E850C98002881
:1051A8004046C0F24C8529460C9A02F07BF800284C
:1051B80000F0A3850C991394C8EB00008842B8BF8F
:1051C800014621EAE1740E910C950D9417959DF80E
:1051D80087A04DE5099D0B9348F23C44C0F60004B6
:1051E800A8068DF8872018943FF57CAF099CE10646
:1051F80000F18E82099C620640F18A821398048825
:1052080004300025139076E793F800902B225AE497
:1052180093F80090B9F16C0F0CBF099C099D1946D1
:1052280009BF44F0200445F01005013309940CBF70
:1052380091F80190099546E4099D0B93A9068DF80C
:10524800872040F19583139C2168119CE5172B4614
:10525800139D224604351395C1E90023FFF7FFBBD0
:10526800099D139A0B9345F0020548F23C40302300
:105278004FF078090995C0F60000151D8DF88830A3
:10528800139514688DF88990002518900223B1E4CD
:10529800099D45F04005099593F8009013E493F8AB
:1052A8000090002A7FF40FAC20220CE4099D45F001
:1052B8000105099593F8009005E4139C139D246853
:1052C800002C129405F10401FFF65EAC139193F8DB
:1052D8000090FFF7F8BB0B938DF88720B9F1000F0A
:1052E8003FF465AC002301259A460D958DF8B090E2
:1052F8008DF887300C9317930E950DF1B008BDE427
:105308002B9C0BE50F980A9929AA02F04FFB00285D
:105318007FF454AC2B9C36AE12E5B9F1650F40F31F
:10532800C2801A981B9900220023FBF747FC00282B
:1053380000F033812A9B169D013301340122072B8B
:10534800356072602B942A93D8BF083600F31C830B
:10535800239B109DAB4203DB099DEB077FF562ADF4
:10536800199D2A9B35601C9D01332C44072B7560C1
:105378002B942A93D8BF083600F3C083109D05F1FB
:10538800FF38B8F1000F7FF74DADB8F1100F48F2B4
:10539800084540F303852A9BDDF83CA0DDF828B0DA
:1053A800C0F600054FF0100905E0A8F11008B8F1A3
:1053B800100F40F3C08001331034072B86E88002B9
:1053C8002B942A93D8BF0836EFDD5046594629AAB0
:1053D80002F0ECFA00287FF4F1AB2B9C2A9B36AE46
:1053E800E3E7002B40F0C580099CE1075CBF0E9302
:1053F8000DF1D8087FF534AC1F9D30238DF8D730D8
:105408000E950DF1D7082BE4129D0D98C0EB050AF7
:10541800BAF1000F7FF7A9ACBAF1100F48F20845AE
:10542800DCBFC0F600052A9B27DDC0F60005224632
:105438002A9B54464FF0100BAA460F9D02E0103CE1
:10544800102C17DD01331032072B86E880082B92C9
:105458002A93D8BF0836F2DD28460A9929AA02F00D
:10546800A5FA00287FF4AAAB103C102C2B9A2A9B93
:1054780036AEE7DC5546A246144601335444072BA2
:1054880086E820042B942A93D8BF08367FF76DACA2
:105498000F980A9929AA02F089FA00287FF48EAB9E
:1054A8002B9C36AE61E4109D012D40F3D8812A9BD8
:1054B800C6F800800133621C0121072B71602B9212
:1054C8002A93D8BF083600F3F5811C9C199D224405
:1054D80035605C1C1C9D2B92072C2A94756000F388
:1054E800DC81083691461A981B9900220023FBF7A5
:1054F80065FB109D002840F0C0806B1E013408F148
:10550800010103EB0902072C31602A942B92736086
:1055180000F3B681083691461D9A631C1D9C2A9398
:105528004A4425A9072B2B9286E812000CDC083682
:10553800144677E4144601334444072B2B942A93EA
:1055480086E820017FF76DAC0F980A9929AA02F026
:105558002DFA00287FF432AB2B9C36AE62E40F980C
:105568000A9929AA02F022FA00283FF4B0ACFFF702
:1055780025BB0E920DF1D808FFF772BB0F980A9958
:1055880029AA02F013FA00287FF418AB2B9C36AE38
:10559800FFF7E7BB0223FFF72DBB239B002B40F34C
:1055A800FE81109D1798DDF840B08542A8BF0546DA
:1055B800002DC3440CDD2A9BC6F8008001332C441F
:1055C800072B75602B942A93D8BF083600F34B83BA
:1055D800179925EAE575C5EB0109B9F1000F40F304
:1055E800D180B9F1100F48F20845DCBFC0F60005BC
:1055F8002A9B40F3B380C0F6000522460C952A9BEF
:105608000F9C0A9D4FF0100A05E0A9F11009B9F1A5
:10561800100F40F3A18001331032072B86E8800475
:105628002B922A93D8BF0836EFDD2046294629AAAF
:1056380002F0BCF900287FF4C1AA2B9A2A9B36AE47
:10564800E3E7002D08BF0A2C80F040811F9D30340D
:105658008DF8D7400E950DF1D708FFF701BB0F98CD
:105668000A9929AA02F0A2F900287FF4A7AA9DF8AE
:1056780087A02B9C36AEFFF751BB05F1FF38B8F178
:10568800000F7FF749AF48F20845B8F1100FC0F690
:10569800000528DD4B464FF0100AA946DDF83CB05E
:1056A8000A9D04E0A8F11008B8F1100F19DD0134C3
:1056B8001033072C86E880042B932A94D8BF083629
:1056C800F0DD5846294629AA02F070F900287FF42F
:1056D80075AAA8F11008B8F1100F2B9B2A9C36AEBA
:1056E800E5DC4D469946013408EB0903072C2B935A
:1056F8002A9486E8200100F3C380083699460BE710
:10570800139D2C680435139501230025FFF772BA01
:10571800139D2C68043513950025ECE4139D2C6823
:10572800043513950025FFF765BA139D13982C6867
:10573800E51722462B460430002A73F10001139026
:10574800BFF631AC4FF02D0A644265EB45058DF884
:1057580087A00123FFF752BA0C9D144601334C442D
:10576800072B86E820022B942A93D8BF083609DD38
:105778000F980A9929AA02F019F900287FF41EAA9D
:105788002B9C36AE179D239BA844109DAB424DDB46
:10579800099DE9074AD41098C8EB0B05C31AAB4218
:1057A800B8BF1D46002D0CDD2A9AC6F800800132CC
:1057B8002C44072A75602B942A92D8BF083600F328
:1057C8005D8225EAE575C5EB0308B8F1000F7FF7A0
:1057D80029ABB8F1100F48F2084540F3DF822A9B45
:1057E800DDF83CA0DDF828B0C0F600054FF0100940
:1057F800224605E0A8F11008B8F1100F7FF79AAE1D
:1058080001331032072B86E880022B922A93D8BFE7
:105818000836EFDD5046594629AA02F0C7F8002895
:105828007FF4CCA92B9A2A9B36AEE3E7199D2A9AD6
:1058380035601C9D01322C44072A75602B942A92EE
:10584800D8BF0836A7DD0F980A9929AA02F0AEF842
:1058580000287FF4B3A9239B2B9C36AE9BE7099DB8
:10586800EA073FF524AE2A9AC6F80080631C541C48
:10587800072C4FF001022B932A9472607FF73DAFFB
:105888000F980A9929AA02F091F800287FF496A99E
:10589800DDF8AC902A9C36AE3EE60F980A9929AA04
:1058A80002F084F800287FF489A9DDF8AC902A9CDE
:1058B80036AE18E60F980A9929AA02F077F8002858
:1058C8007FF47CA92B9A2A9B36AEFEE50DF1D70B07
:1058D800204629460A220023FBF7CAF930328BF802
:1058E8000020204629460A220023FBF7C1F9044676
:1058F8000D4654EA0500D8460BF1FF3BE8D1FFF707
:10590800ABB9302B3FF4A8A9089C3023A41A9046C1
:105918000E9401F8013CFFF7A3B902F01FF8002824
:1059280040F08D80099D0C9048F2244848F22043AD
:105938000324C0F60008C0F6000325F080050D9486
:105948000995B9F1470FD8BF984617900E949DF85E
:1059580087A0FFF78DB9139CE31D23F0070303F11C
:1059680008051C6813951A945B681B93FFF750BBD6
:10597800099CE20640F1B480139D119C2B68043504
:1059880013951C60FFF76BB80F980A9929AA02F0C3
:105998000DF800287FF412A92B9C36AED8E42A9A79
:1059A800169D013201340121072A35602B942A9271
:1059B800716000F313810836184628B9109D1DB987
:1059C800099DED077FF52EAA2A9B1C99199D214454
:1059D80001331C9C3560072B2B9174602A93D8BF28
:1059E80006F1080200F3BD814442002C40F3178100
:1059F80048F20845102CC0F6000540F3FB8010263D
:105A0800DDF83C90DDF828A003E0103C102C40F3B2
:105A1800F18001331031072B176056602B912A93C0
:105A2800D8BF0832F1DD4846514629AA01F0BEFF29
:105A380000287FF4C3A82B992A9B36AAE5E70C9C7B
:105A4800013408BF062429F0200508BF0C9406D0AD
:105A5800472D04D10C9C002C08BF01240C941B9BDF
:105A6800099C002B44F480741494BDBF1C4604F1B7
:105A7800004A4FF02D0BDDF86CA0A8BF4FF0000BCB
:105A8800B5F14600D0F1000C5CEB000CBCF1000F46
:105A98004DD0032123A80C9C0091029024A927A88B
:105AA80004901A9A0194534603910F98CDF818C0A0
:105AB80000F026FB472D8046DDF818C003D1099C6D
:105AC800E10740F10F810C9C4444BCF1000F43D026
